:102000000080002001690000E9680000E968000024
:1020100000000000000000000000000000000000C0
:10202000000000000000000000000000E96800005F
:102030000000000000000000E96800005569000091
:10204000E9680000E9680000E9680000E96800004C
:10205000E9680000E968000055350000ED680000FF
:10206000E9680000FD530000E9680000E96800002D
:10207000D5530000E96800000D540000E968000035
:10208000E9680000E9680000E9680000E96800000C
:1020900000000000E9680000E9680000E96800004D
:1020A000E9680000E9680000E9680000E9680000EC
:1020B0000000000010B5064C2378002B07D1054B1B
:1020C000002B02D0044800E000BF0123237010BDA4
:1020D00020010020000000004CD3000008B5084B90
:1020E000002B03D00748084900E000BF07480368F9
:1020F000002B03D0064B002B00D0984708BDC046EC
:10210000000000004CD30000240100201801002032
:102110000000000038B50121124800F0CBF8124C45
:10212000201C00F0EBFD142004F0C0FE051C00F0A4
:10213000FBF9291C201C00F0BEFD102004F0B6FEA7
:10214000051C00F04FFA291C201C00F0B4FD1020E3
:1021500004F0ACFE051C00F0A1FA291C201C00F0C4
:10216000AAFD38BD480100204C01002008B50248F6
:1021700000F04CFE08BDC0464C01002008B50368C5
:10218000C9B21B68984708BD70B58E780D1C1E4CEF
:10219000092E02D83023237005E0301C0A2106F0F6
:1021A000E5FC30302070301C0A2106F023FD3A2374
:1021B00030316170A3706878092802D83023E37049
:1021C00004E00A2106F0D2FC3030E07068780A2181
:1021D00006F010FD3A233031217163712878092807
:1021E00002D83023A37104E00A2106F0BFFC30308E
:1021F000A07128780A2106F0FDFC00233031201C54
:10220000E171237270BDC0463C01002070B50E79AB
:102210000D1C274C092E02D83023237005E0301CFA
:102220000A2106F0A3FC30302070301C0A2106F091
:10223000E1FC2E2330316170A3706E79092E02D833
:102240003023E37005E0301C0A2106F08FFC3030AB
:10225000E070301C0A2106F0CDFC2E233031637172
:102260002171FA21E888890006F080FC3030A071E5
:10227000FA21E888890006F0BDFC88B2642106F0E6
:1022800075FC3030E071E888642106F0B3FC88B258
:102290000A2106F06BFC30302072E8880A2106F033
:1022A000A9FC00233031201C6172A37270BDC046AE
:1022B0003C01002008B5034B0360181C02F064FFCA
:1022C00008BDC04690080020014A024B1A607047C2
:1022D0009008002048010020F8B50E1C041C086876
:1022E000682102F0B1FF2D4D0021281CFFF746FFA9
:1022F000306802F0E7FF00284DD1306868210722DE
:1023000002F09DFF072846D1281C02F0FCFEC0B257
:1023100043060A275B0F7B430F26304018182070B6
:10232000281C02F0F0FEC0B203097B4330401818AD
:102330006070281C02F0E7FEC0B283069B0F7B434F
:1023400030401818A070281C02F0DDFEC0B203094E
:102350007B4330401818E070281C02F0D4FEC0B255
:1023600003097B43304018182071281C02F0CBFE73
:10237000C0B203097B43304018186071281C02F07A
:10238000C2FEC0B203095F430640B819FA23C0B2C7
:10239000DB00C018E080201CF8BDC046900800207B
:1023A0007FB50C4B1E250024009501930294061C5A
:1023B0000A21E622C823406800F07EF9064B8722F6
:1023C00070680095019302940A215200C82300F01E
:1023D00073F97FBDC8C90000D5C9000073B5CC68CA
:1023E0000E1C201C0C4901F03DFC201C002101F0BA
:1023F00057FC0A4D201C291C02F04CF900230093C5
:102400000193301C0A22064900F0BAFC291C201C4A
:1024100002F040F973BDC046FFFF0000C4B70000E2
:10242000E2C9000008B5081C002A01D1034902E0F6
:10243000012A02D1024900F0FEFC08BDFAC90000E1
:1024400002CA000010B5044B041C0833036000F0FE
:10245000B1FB201C10BDC04618CA000010B5041CFA
:10246000FFF7F0FF201C04F025FD201C10BD00002C
:10247000F0B5037B8FB0041C0F1C002B4CD0274EF3
:1024800003AD281C311CFFF727FF2B7822699A42E5
:1024900042D02361FC682249201C01F0E3FB201C90
:1024A000002101F0FDFB291C301CFFF7AFFE011CD1
:1024B00005A805F032FA291C301CFFF765FE011C47
:1024C00008A805F02AFA201C164902F0E3F805A92D
:1024D0000BA805F045FA002532230522FF330BA98E
:1024E000201C009502F0F0F90BA805F0CFF908A91F
:1024F0000BA805F035FA32230BA9A022FF33201CCC
:10250000009502F0E1F90BA805F0C0F908A805F064
:10251000BDF905A805F0BAF90FB0F0BD48010020DB
:10252000FFFF0000ECAF000010B50549041C00F0EF
:102530005DFB044B201C083323600023236110BD86
:102540000ACA000018CA0000704700001FB53223F5
:1025500040680093054B0A210193002302931E2239
:10256000C82300F0A9F805B000BDC04638CA000075
:1025700037B5CD680C1C8021281C090201F072FBC4
:10258000281C064901F08CFB002300930193201CBA
:1025900003490A2200F0F4FB37BDC046FFFF0000EC
:1025A00043CA000008B5002A03D1081C014900F005
:1025B00042FC08BD0ACA000010B5044B041C0833D5
:1025C000036000F0F7FA201C10BDC04660CA00008E
:1025D00010B5041CFFF7F0FF201C04F06BFC201C5E
:1025E00010BD000010B50449041C00F0FFFA034BB5
:1025F000201C0833236010BDFAC9000060CA000027
:10260000704700001FB5322340680093054B0A2134
:102610000193002302931E22C82300F04DF805B059
:1026200000BDC04680CA000037B5CD680C1CF8213B
:10263000281C090201F016FB281C064901F030FB9A
:10264000002300930193201C03490A2200F098FB09
:1026500037BDC046FFFF000093CA000008B5002A3E
:1026600003D1081C014900F0E6FB08BD0ACA0000BE
:1026700010B5044B041C0833036000F09BFA201CC7
:1026800010BDC046B0CA000010B5041CFFF7F0FF33
:10269000201C04F00FFC201C10BD000010B50449E4
:1026A000041C00F0A3FA034B201C0833236010BD68
:1026B00002CA0000B0CA0000F7B5051C08A80088CF
:1026C00001900AA8008800900020182444432C1987
:1026D0001827E65F002E01DB0130F6E72382019B1D
:1026E000009E099F638200232683E761A181E28126
:1026F0002362FEBDF0B5041C89B00068039101F0AF
:10270000D3FF0590206801F0D3FA0690206801F00D
:10271000D5FA039D18226A43A21807901032138934
:1027200020681E0720D5D90600D501E1DA0701D5BA
:10273000F72300E0F9235B00E15A01F093FA039DCF
:1027400018266E43A6190C20315E0E23F25E122568
:10275000705F1025735F1018009000200190CB1857
:10276000206801F039F9E1E021210B40202B01D153
:10277000918802E0F8235B00E15A01F073FA039EAE
:1027800018277743E7190E23FA5E0C20395E1226CC
:10279000B85F1026BB5F10180026CB18009001967A
:1027A000206801F0B1FD04F0FDF8F9235B003D1C49
:1027B0002068E15A083501F055FA0E23FA5E0A2026
:1027C0002D5E0C20395E10203B5E5019CB18009016
:1027D00001962068103701F087FB04F0E3F83B898D
:1027E0002068D90701D5F72304E05A0601D5F988F6
:1027F00002E0F6235B00E15A01F034FA039D18274A
:102800007D4365192E8B02231E4020680835002E5B
:1028100013D0FE235B00E15801F03CFF0826AB5FBC
:102820002068DF0FFF1801F041FF4008C0B27F10A1
:102830003F1A04202B5EFB1822E0FC235B00E158CA
:1028400001F028FF039B321C01335F430123E7198A
:102850007968A06800960193331C00F01DFB0826E0
:10286000AB5F071CDE0F2068F61801F01FFF47431F
:10287000FB0FDF1976107F1004202B5EF61BF31878
:1028800002930A216B5E2068DE0FF61801F010FF3C
:1028900040080622AB5EC0B27610361A039DF718C8
:1028A00018236B43E318198B212210330A40206848
:1028B000202A01D1998802E0F8235B00E15A01F057
:1028C000EFF9039D18266E430025A6190095019582
:1028D000029A3B1CF169A06800F0DEFA04F062F88D
:1028E000328B06231340062B22D1A068F169039096
:1028F0002068049101F0DAFE029B04991A1A0095EF
:102900003B1C0195039800F0C7FA04F04BF8A0684F
:10291000F6690390206801F0C9FE029900950A1833
:1029200001950398311C3B1C00F0B6FA04F03AF80C
:102930002068059901F0AEFE2068069901F092F931
:102940002068079901F0ACF909B0F0BD70B5051C1D
:102950000E1C002418236343EB1818229B5E002BE7
:1029600006DB281C211CFFF7C5FE002E00D0B04757
:102970000134142CEED170BD0C30142200230380DE
:1029800043808380C380044B013A8381034B0361FE
:102990001830002AF2D170470080FFFFF9C900000B
:1029A00010B5016042608360041CFFF7E5FF01235E
:1029B000F6225B425200A3520B49F7225200A15269
:1029C000F8221F215200A152F9225200A352074AB5
:1029D000FA235B00E252FC2200235200A350FE22A5
:1029E0005200201CA35010BD1084FFFF00F8FFFF11
:1029F000F0B5041C87B04068049100F01BFD00286E
:102A000000D1BAE0606800F063FC606800F027FD68
:102A1000051C606800F056FD061C206801F048F9AE
:102A20000121231C49420590123300220391D988C9
:102A300008B200281ADBC80718D4039F013715D144
:102A4000991F0020095E8D4210DB981E0027C05F91
:102A500009188D420ADC191F0020095E8E4205DB31
:102A60000027D85F09188E4200DC03920132183328
:102A7000142ADCD1039D01353AD0039E18257543F5
:102A800065192F8B2E1C102310361F402BD1FA23D3
:102A90005B00E15A206801F0E5F8368908231E4002
:102AA0002068ED18002E0ED00423E95E0626AA5FEA
:102AB0000826AB5F0A26AD5FCB1855190095019724
:102AC00000F08AFF0DE00623EA5E0427E95F08278D
:102AD000EB5F0A27ED5FCB1855190095019601F0C1
:102AE00003FA03F05FFF049D002D01D00398A8476F
:102AF000606800F09FFC002802D003F053FFF7E766
:102B0000039E013633D0039F18267E43A619358BCA
:102B1000371C102310371D4029D1F9235B00E15ADF
:102B2000206801F09FF808233F89F6181F402068AD
:102B30000423F15E002F0CD00627F25F0827F35F15
:102B40000A27F65FCB1896190096019500F044FF0E
:102B50000BE00825735F0625725F0A25765FCB18A8
:102B600095190095019701F0BFF903F01BFF20684C
:102B7000059901F077F8039801E00120404207B081
:102B8000F0BDFC235B00C150704770B5F62676009F
:102B90008153F72105AD490042522D88F822520099
:102BA0008552F92204AC520083522488FA235B0038
:102BB000C45270BD10B5044B041C08330360406858
:102BC00004F078F9201C10BDD0CA000010B5041C18
:102BD000FFF7F0FF201C04F06DF9201C10BD10B5AC
:102BE000041C806808F0AAF8201C10BD024B81600C
:102BF000083303607047C046D0CA0000F0B50B69C7
:102C0000051C802085B080000C1CCF68039304F065
:102C10004DF9231C061C039A1433391CFFF7C0FE20
:102C2000301C6E600A49FFF7ACFFF822094B120214
:102C300000921F2201926868191C074AFFF7A5FF3E
:102C40002B68281C9B68211C984705B0F0BDC04626
:102C5000C4B70000FFFF00001084000038B5041C5A
:102C60000D1C40680021FFF7C3FE021C431C04D06A
:102C70002368201C5B69291C98472368291CDB6892
:102C8000201C984738BD10B50368041C1B69984781
:102C900060680021FFF75AFE10BD10B50023041C28
:102CA000036043608360143000F0F2F801235B425C
:102CB000201CA36110BDF8B5041C0E1C081C211CAF
:102CC000FFF79CFF656823689D4210D10123002D0A
:102CD00000D06B006360980008F026F8AA00A16895
:102CE000071C08F035F8A06808F028F8A7602368EA
:102CF000A268591C9B0021609E50F8BD1D4B73B506
:102D0000041C18601C4804F0D1F8051C00F0E6FC17
:102D1000E560582004F0CAF803250223061C00953C
:102D2000019305220423062100F01BFA2661E068C6
:102D3000002100F031FD0021E0680A1C0B1C00F0AE
:102D400099FF00210A1C0B1CE06801F015F8E068EF
:102D50000A4901F09FFC2069002100F015FA291CA6
:102D6000206900F0E2FB201C1430E16800F091F8CB
:102D700073BDC046680100202C050000C4B70000E8
:102D800037B506AC20CC143024780095019400F0BF
:102D900083F83EBD38B58369041C0D1C0268002B06
:102DA00001DB002A21D10023934224D0A06899009E
:102DB0000958A94217D1002101222A73E068A361B2
:102DC0000A1C0B1C00F056FF00210A1C0B1CE068BB
:102DD00000F0D2FF281C211CFFF740FF281C211CFB
:102DE000FFF751FF07E00133DEE781689B005B5886
:102DF00000211973D7E738BD08B50368994204D29A
:102E000083688900C958FFF7C5FF08BD826910B5FE
:102E1000041C013205D10368002B02D00021FFF70A
:102E2000EBFFA3695A1C05D0A2689B009858211C8F
:102E3000FFF714FF10BDF7B50268051C0F1C0192C7
:102E40000024019B9C420FD0AA68A3009E58391C05
:102E5000B06808F049F8002804D1281C311CFFF79D
:102E600099FF01E00134ECE7F7BD000010B5054C17
:102E7000201CFFF712FF201C0349044A07F016FF2D
:102E800010BDC0464C010020DF2B000000000020D8
:102E90007047016070470000F0B587B004930CAB39
:102EA000071C01CB081C1B780391141C059308F028
:102EB0002DF83B68061C187839493A4A00280AD18F
:102EC0008C4204D11C7C5968744301310C1B944220
:102ED00012D15A6809E08C4204D11C7C9968744371
:102EE00001310C1B944207D19A681C7C0132744357
:102EF000141BE30F1C1964100399002502912B1C6D
:102F0000029903980A1AB24247DA029A11784AB231
:102F1000002A21DA002B05D10B1C3033DBB2012B48
:102F20001AD835E0D02B0ED181290AD0952901D8A5
:102F3000703104E0B52901D8713100E07231C9B2B5
:102F400008E0062106E0D12B06D1912901D04E39A7
:102F5000F5E72721144B595C0C9B002B0AD10598EF
:102F6000002812D13868049B027C6A43A21801F041
:102F7000A1FB0AE0059A002A07D10C9B009501935A
:102F80003868221C049B01F0FBFE0135EDB20021E4
:102F900002980B1C01300290B2E7281C07B0F0BD6C
:102FA0000F2700000E270000F0CA0000437A002B14
:102FB00004D18372C372C36001234372704730B57A
:102FC00085B0041C02AD00680291039204F0CCF8B5
:102FD0006B79E179227A00932068002304F078FA73
:102FE00029792068029A04F08FF8206804F0B2F87A
:102FF00005B030BD70B5041C1826FFF7D7FF207947
:10300000331C43430D4D0821EB18595603F0CAFEFB
:10301000A079331C43430821EB18595603F0C2FE34
:10302000607908214643AD19695603F0BBFE044B95
:10303000201C06CBFFF7C3FF70BDC046C8CB000005
:103040006C01002008B50068002901D1012100E0D1
:10305000002104F093F808BD08B5031C032912D819
:10306000081C1B6805F078FD050B0208181C0021E0
:1030700007E0181C012104E0181C022101E0181CC3
:10308000032104F0A7F808BD08B50068032900D89B
:10309000042104F087F808BD08B5006804F0B8F80A
:1030A00008BD0000094B0A4A0A491A6000225A71F9
:1030B0001A71094B1960162119711821997117217C
:1030C000597101215A72D9711A7270476C0100202E
:1030D00000093D00CC0A002074010020F8B54368C7
:1030E0000E1C1A688169041C8A431A600825231C77
:1030F0002E3372B218780121002A00DB0021271C30
:103100002C3703F007FE013D3878002103F002FE62
:10311000760038780121EDB2F6B203F0FBFD002D08
:10312000E5D1F8BDF8B5061C0C250024371C2C375A
:103130003878012103F0EEFD3878002103F0EAFD34
:10314000331C2F3364001878A4B203F013FE002858
:1031500001D00134A4B2013DEDB2002DE6D1201C16
:10316000F8BD70B5061C2C363170011C2D310A706B
:1031700004AC021C25782E3205AC13702478031C95
:103180002F331D705C7070BD031C3833F0B519709F
:103190004B4B00278364D7235B00C364FA231B01D6
:1031A0000365E1235B004365EF23C3634023FF33E3
:1031B0000364031C39330A2247630D3B5A73041C12
:1031C00018221878111C41433E4B3F4ECD565918DA
:1031D000ED01AD194968656001252E1C8E40A66180
:1031E000261C85B02D36019631785143CE5659189C
:1031F000F601B446344E4968B4446646A6602E1CB7
:103200008E40E661261C2E36029631785143CE560A
:103210005918F601B4462C4E4968B4446646E66037
:103220002E1C8E402662261C2F3603963178514381
:10323000CE565918F601B446244E4968B444664641
:1032400026612E1C8E406662261C303631784A4339
:10325000D1569A18C9018C461C4953688C442A1CC3
:1032600061469A40A2626161291C03F0F9FC019B4E
:10327000291C187803F0F4FC02990878291C03F043
:10328000EFFC039A391C107803F0EAFC3078291C13
:1032900003F0E6FCA368E6691A6832431A606368C3
:1032A000A1691A680A431A60E368266A1A683243F9
:1032B0001A606369A26A19680A431A6005B0F0BD12
:1032C000D20F0000C8CB0000104400412044004150
:1032D0008368F0B5C1691A6889B08A431A60031C13
:1032E0003033041C0021187803F0BAFC4F4A002642
:1032F000351C079602920696059203960196231CAA
:10330000393304931B789E424FDA6369A16A1B68C4
:10331000194248D1201C9021FFF7E0FE6368A169A3
:103320001A68201C0A431A601A68A1698A431A6045
:10333000FFF7F8FE6369A26A1B68071C1A4232D1C4
:10334000201CD021FFF7CAFE6368A1691A68201CFF
:103350000A431A601A68A1698A431A60FFF7E2FEFD
:10336000334B7A1E9A421ED8421E92B29A421AD803
:10337000019A039BD2191B180499019203930B78AD
:10338000052B0FD9059ABA4200D90597069BBB4277
:1033900000D206970299814200D90290079A824290
:1033A00000D2079001350136A9E7231C3033187885
:1033B000012103F055FC04990B78052B0CD9059AD3
:1033C0000699023D5318019A0799D21A0192029A5E
:1033D0008B180399C91A0391A368E1691A680A4313
:1033E0001A60049A1378023B9D4201D0012D17D137
:1033F000231C38331B78616B8B4206D10398291C40
:1034000005F0B4FB2080019805E00198291C05F027
:10341000ADFB20800398291C05F0A8FB608003E029
:1034200001235B422380638009B0F0BD9F860100C9
:10343000FE0F000038B5051C3035041C002128782B
:1034400003F00EFC6369A46A1B6828781C40634281
:103450005C41E4B2012103F003FC201C38BD38B507
:10346000031C008805B26A1C2AD0588802B20132B7
:1034700026D01A1C3832586B1278824206D19A6CC8
:10348000DC6BAD1A201C6843D96C0FE01A6D1C6C04
:10349000596D002807D1551B201C6843891A05F077
:1034A000B3FB001905E0AD1A201C6843891A05F02A
:1034B000ABFBC343DB171840A04200DD201C80B2E9
:1034C00000B238BD38B5031C008802B201322AD0E0
:1034D000588805B26A1C26D01A1C3832586B1278EC
:1034E000824206D11A6D1C6CAD1A201C6843596DBE
:1034F00007E09A6CDC6BD96C002806D1AD1A201C51
:103500006843891A05F080FB06E0551B201C6843C0
:10351000891A05F079FB0019C343DB171840A04254
:1035200000DD201C80B200B238BD031C013900B59B
:10353000393303290AD8081C05F00EFB02080406DB
:10354000012204E01B2202E0662200E00C221A7035
:1035500000BD000072B60A4B0F22198C11401A1CD4
:103560003F3211704E331978064AC9B211600222F7
:103570001A7001221A7004221A7062B67047C0468F
:103580000048004124030020094B20215A690A43C6
:103590005A61DA6910210A43DA61064B40221A6047
:1035A000054B064A5A63064A9A63064A1A807047D0
:1035B0000004004000E100E00048004190010020CC
:1035C00060020020020F0000F0B5374E85B0039175
:1035D000364C00210092317023780222344F9343FD
:1035E0000122237022703B69072593433B61314BD5
:1035F0007B64314B1D70314DE96031492A80096887
:10360000304A28310191A960127800996860698078
:103610000292012A03D02C4B401868602B80291C91
:1036200010222A4807F094FB0123337021780222EC
:10363000914321702370396924489143244A3961A8
:103640001D497A640722234F0A7000223A60019ACA
:1036500003996A60029AA9602B80002A04D0009A1C
:103660005318AB601C4B2B8010221030134907F00D
:103670006FFB00233370227802231A432270012249
:1036800032702278134323703B68002BFCD0002358
:103690003370227802239A432270012232702278FA
:1036A0009A43227005B0F0BD3F48004140480041B8
:1036B00000480041000A80004D48004140030020BE
:1036C00004000020300300200104000090010020CD
:1036D000000980002403002001080000024A0023A2
:1036E0008352024A835270472205000024050000DD
:1036F000F8B50323194040234176EF22FF33022916
:103700000ED0032912D0012905D00021017042609A
:10371000836048250FE001708260436028250AE03D
:103720000021017042608360882504E0012101705E
:1037300082604360E825124F124B3E1CDC36316834
:1037400001241B68221C8A401A60C4370E4B39685A
:103750001B68221C8A401A6036210C48FFF79CFC2B
:103760000B4B3A681B68211C914019600748291CC3
:10377000FFF792FC074B32681B6894401C60F8BD51
:10378000C8CB000054030020600300207401002017
:103790002C03002058030020F0B585B0029003915F
:1037A0000B20012103F05CFA0720012103F058FAF5
:1037B0000920012103F054FA0121082003F050FAF6
:1037C000524A534BFC32012412691B68514D201C94
:1037D00090401860281CFFF70DFC281C211CFFF7E7
:1037E00031FC281C0221FFF737FC281C0221FFF7BF
:1037F0004BFCFFF7C9FE454E474BDC3631681B6872
:10380000221C8A401A60414A444BC43212681B6829
:10381000201C3E4D90401860414FAC3529683B68F4
:10382000221C8A401A600A2003F0A2F83D4B286847
:103830001B68221C82401A60322003F099F82A6823
:103840003B68211C91401960C82003F091F8364B69
:1038500032681B6894401C60344B1C78621ED2B2E4
:103860000192334A002C22D0284D5978C43528685B
:103870009F1C284E1368012282401A60301CFFF7FB
:103880000BFC264B2A681B680121914019603D1CE6
:1038900001357B1BE318DBB2002B05D06B1E1978BA
:1038A000301CFFF7F9FBF3E7019ABB18D5E7136863
:1038B000164A0126C4321268164D301C904018601A
:1038C0001121281CFFF7E8FBC82003F051F8281C41
:1038D0002921FFF7E1FB281C2C21FFF7DDFB0B4A18
:1038E0000D4BDC3212681B68964002991E60012263
:1038F000104B5242CC600C76CA520F4B081CCC5273
:103900000399FFF7F5FE05B0F0BDC046C8CB000037
:103910005C03002074010020580300202C030020C9
:1039200028030020500200205403002032CB000066
:10393000600300201A0500001C050000F7B56D4665
:10394000089869700C1219122C70EB7001ACA970F8
:1039500013121B4D237003126270A370E070194F95
:10396000C43529683B6801228A401A602A2116481A
:10397000FFF792FB154E2968336801228A401A60CE
:10398000134A00231370684612490422FFF71CFEF5
:1039900029683B6801228A401A602B210A48FFF7F8
:1039A0007BFB2A683368012595401D60084D002186
:1039B0002970201C07490422FFF706FEF7BDC04608
:1039C000C8CB000060030020740100202C030020FD
:1039D0003003002020030020F0B58BB0079310AB1C
:1039E00010CB03901B88069105920493002B02D103
:1039F000934BC35A0493069D079CA54201DD069490
:103A00000795059D109CA54201DD059410958D4AF2
:103A10008D4BDC3212681B68012191401960079DB3
:103A2000069C049B2F1B002B02D1854B039DEB5A58
:103A3000002F02DA7C42079901E006993C1CDAB2B9
:103A400012021B121A4392B20023A34208DA181C76
:103A5000039D0C3040002818013342809BB2F4E7EC
:103A6000059D0B192A1C00950398FFF767FF754EFB
:103A7000764BC436306801251B682A1C82401A60C8
:103A80002C217348FFF708FB724B32681B68954086
:103A90001D60039D704B1A3500221A70281C6200AD
:103AA0006E490895FFF790FD049B002B02D1644BF3
:103AB000039CE35A0699002F01DA07997F42DAB294
:103AC00012021B121A4392B20023BB4208DA181CDE
:103AD000039D0C3040002818013342809BB2F4E76C
:103AE000109CCB19221C00940398FFF727FF554D1B
:103AF000564BC435286801241B68221C82401A607A
:103B00002C215348FFF7C8FA524B2A681B6894408F
:103B10001C60514B00221A7008987A004F49FFF739
:103B200053FD109D0598049B2C1A002B02D1444B89
:103B3000039DEB5A002C03DA65420995109A01E0C7
:103B4000059A0994D9B209021B12194389B20023BC
:103B5000099DAB4208DA181C039D0C304000281860
:103B6000013341809BB2F3E7069953190093039800
:103B70000B1CFFF7E3FE334F344DC4373868012682
:103B80002B68321C82401A602C213148FFF784FADE
:103B9000304B3A681B6896401E6009992E4B0022F4
:103BA0001A7008984A002D49FFF70EFD049A254E19
:103BB000002A03D1224B0398C35A0493002C02DA43
:103BC000109964420591049BDAB212021B121A4347
:103BD0000023A34208DA191C03980C31490041184C
:103BE00001334A809BB2F4E70599371C0B190799FA
:103BF00000930398059A0B1CC437FFF79FFE3868A3
:103C00002B6801252A1C82401A602C211048FFF7DE
:103C100043FA104B3A681B68291C914019600E4BFF
:103C200000221A70089862000C49FFF7CDFCDC36C0
:103C30000B4B32681B6895401D600BB0F0BDC04651
:103C40001A050000C8CB00005403002060030020C8
:103C5000740100202C0300203003002020030020EA
:103C6000580300200B120375014B4175C152704778
:103C70001A05000030B507255411A94321431C241F
:103C80002240DB10D2001A4300238175037609021B
:103C9000024BC2750A43C25230BDC0461C0500002B
:103CA0000B0A8375014BC175C15270471C0500009A
:103CB000014BC05A7047C0461A050000014BC05A5C
:103CC0007047C0461C050000CBB2F7B51B020912B5
:103CD0001943041C0023E21851830233A0229200EE
:103CE0009342F8D11C4E1D4B321CDC321268012568
:103CF0001B68291C91401960A26800210092201CB9
:103D00000A1C6368371CFFF719FEC437144B396867
:103D10001B682A1C8A401A6012482C21FFF7BCF944
:103D2000114B3A681B6895401D60F0250F4B00222F
:103D30001A70201CA0221A300D49D200013DFFF755
:103D400043FC002DF2D1DC360A4B32681B6801219E
:103D500091401960F7BDC046C8CB00005403002055
:103D600060030020740100202C0300203003002099
:103D7000200300205803002010B50324A243E34091
:103D8000A2401A43072399430C02111C2143FFF759
:103D90009BFF10BDF0B587B004900CA810C8A446D6
:103DA0000EAC247800880594002802D14548049D73
:103DB000285A994202DD0C1C191C231C624502DDA5
:103DC000141C6246A44664465D1C01346D1AA41A94
:103DD000ADB2A4B26C43A026251C7600B44200D933
:103DE000351CC7B2ADB200123F0207430395002055
:103DF000039D86B2AE4205D2049D4600AE1977837C
:103E00000130F5E70598304D002807D02E1C2F48CB
:103E1000DC36366800680127B740076060460090CE
:103E20002F1C0498FFF78AFDC437294B39680126F7
:103E30001B68321C8A401A602C212648FFF72CF997
:103E4000254B3A681B689640A0211E6049008C42B1
:103E500006D8224B049800221A701A30620021E022
:103E6000201C04F083FE0026071CBBB29E420BD22E
:103E70001A4B002204981A70A0221A301849920096
:103E8000FFF7A2FB0136F0E7A021201C490004F057
:103E9000B1FE8BB2002B08D0104B049800221A7090
:103EA0001A304A000E49FFF78FFB059C002C06D004
:103EB0000C4BDC352A681B6801219140196007B062
:103EC000F0BDC0461A050000C8CB00005403002016
:103ED00060030020740100202C0300203003002028
:103EE0002003002058030020F0B591B00A9316ABD0
:103EF000039001CB09911B8807920493002B03D1F7
:103F0000DF4B0399CB5A0493099A0A9B9A4202DD2C
:103F10000A980A9209900799169A914201DD079230
:103F20001691D84AD84BDC3212681B6801219140A7
:103F3000196009980A9B1B1A0C93042B00DCCFE133
:103F40001699079A891A0D91042900DCC8E1049C8E
:103F50000130013206900592002C02D1C84B039823
:103F6000C45A0599039800910699059A0B1CFFF70E
:103F7000E5FCC44FC54DC437386801262B68321C98
:103F800082401A602C21C248FFF786F8C14B3A687C
:103F90001B6896401E60E3B21B0224121C43BE4BFA
:103FA000684600223E301A70BC4902220480FFF7A6
:103FB0000BFB0A99049C01390B91002C02D1B04BE8
:103FC000039AD45A059B0B991A1C009303980B1C57
:103FD000FFF7B4FCAB4E2B68C436306801252A1CB1
:103FE00082401A602C21AA48FFF756F8A94B326884
:103FF0001B6895401D60E3B21B0224121C43A64BB4
:10400000684600223E301A70A44902220480FFF75D
:10401000DBFA1699049C01390591002C02D1984BCA
:10402000039AD45A059B06991A1C009303980B1CFB
:10403000FFF784FC934F954DC437386801262B68F1
:10404000321C82401A602C219148FFF725F8914BD1
:104050003A681B6896401E60E3B21B0224121C43A0
:104060008D4B684600223E301A708C490222048033
:10407000FFF7AAFA049C002C02D1814B0399CC5A79
:10408000059A0B9900920B1C0398FFF757FC7D4E85
:104090002B68C436306801252A1C82401A602C2106
:1040A0007B48FEF7F9FF7B4B32681B6895401D602B
:1040B000E3B21B0224121C43774B684600221A709D
:1040C0003E30764902220480FFF77EFA099F0C9C5D
:1040D000049B0237043C002B02D1694B0399CB5A55
:1040E000DAB212021B121A4392B20023A34208DA78
:1040F000191C03980C314900411801334A809BB2C6
:10410000F4E7079A3919059100920398391C059B29
:10411000FFF714FC5B4E5D4BC436306801251B680D
:104120002A1C82401A602C215948FEF7B5FF594BD2
:1041300032681B68954003991D60574B1A31002265
:1041400065001A700691081C2A1C5449FFF73CFAB6
:10415000049B002B02D14A4B039AD35ADAB21202C3
:104160001B121A4392B20023A34208DA191C0398C7
:104170000C314900411801334A809BB2F4E716998B
:1041800003980091169A391C059BFFF7D7FB3D4E0B
:104190003E4BC436306801241B68221C82401A60E2
:1041A0002C213B48FEF778FF3A4B32681B6894405D
:1041B0001C60394B00221A7038492A1C0698FFF7F8
:1041C00003FA07990D9A049B0231043A0891079269
:1041D000002B02D12A4B0398C35ADAB212021B12E7
:1041E0001A4392B2002307998B4208DA191C0398EC
:1041F0000C314900411801334A809BB2F3E7089A19
:1042000003985218099905920B1C0092089AFFF71F
:1042100095FB1C4F1D4DC437386801262B68321C96
:104220001B4C82401A602C21201CFEF735FF194BD5
:104230003A681B68964007991E60174B4E00002293
:104240001A700698321C1549FFF7BEF9049A0D4FF3
:10425000002A03D10A4B0398C35A04930499CAB2A3
:104260000B1212021A43002307998B4218DA191C09
:1042700003980C314900411801334A809BB2F3E79F
:104280001A050000C8CB0000540300206003002082
:10429000740100202C0300203003002020030020A4
:1042A000059A0A9900920B1C0398089AC437FFF7E5
:1042B00045FB2B68386801252A1C82401A602C2196
:1042C000201CFEF7E9FE0B4B3A681B6895401D6009
:1042D000094B00221A7006980849321CFFF774F93E
:1042E000074A084BDC3212681B68012191401960B3
:1042F00011B0F0BD2C03002030030020200300206B
:10430000C8CB000058030020F0B591B0099316AB5C
:10431000041C01CB05911B8806920393002B02D14C
:10432000D34BE35A03930599099A914201DD059213
:104330000991069B1698834201DD06901693CD4A9B
:10434000CD4BDC3212681B68012191401960059A3F
:104350000999891A0891042909DCC64AC74BDC323D
:1043600012681B6801219140196011B0F0BD1698C8
:104370000699431A042BF0DD089A5B10043A08985A
:104380000F930A925300089A02380C93410052008E
:1043900000230B900D910E9207930798002802D0EE
:1043A000012874D0E8E0059D039B0235002B01D164
:1043B000AF4BE35ADAB212021B121A4392B2002335
:1043C0000A998B4207DA191C0C3149006118013334
:1043D0004A809BB2F4E7069B6A18049200931A1C69
:1043E000201C291C049BFFF7A9FAA24FA44BC43739
:1043F000386801261B68321C82401A602C21A148B3
:10440000FEF74AFEA04B3A681B6896401E609F4B21
:10441000261C00221A361A70301C9D490C9AFFF790
:10442000D3F8039B002B01D1914BE35ADAB212026D
:104430001B121A4392B200230A998B4207DA191C05
:104440000C314900611801334A809BB2F4E7169A97
:10445000291C0092201C049BFFF770FA854F884BA3
:10446000C437386801251B682A1C82401A602C2139
:104470008448FEF711FE844B3A681B6895401D6026
:10448000824B00221A70301C81490C9AE6E0059D8F
:10449000069A039B01350132002B01D1744BE35A7C
:1044A000D9B209021B12194389B200230B98834227
:1044B00007DA181C0C3040002018013341809BB2F1
:1044C000F4E7291804910092201C291C049BFFF793
:1044D00035FA684F6A4BC437386801261B68321CAE
:1044E00082401A602C216748FEF7D6FD664B3A6879
:1044F0001B6896401E60654B261C00221A361A70F7
:10450000301C0D9A6249FFF75FF8169A039B013A37
:10451000002B01D1564BE35AD9B209021B121943A1
:1045200089B200230B98834207DA181C0C30400034
:104530002018013341809BB2F4E7291C0092201C13
:10454000049BFFF7FBF94B4F4D4BC43739680125EE
:104550001B682A1C8A401A602C214A48FEF79CFDE1
:10456000494B3A681B6895401D60484B00221A7001
:10457000301C47490D9A71E0079B06981A18039B57
:10458000002B01D13A4BE35AD9B209021B1219434D
:1045900089B200230898834207DA181C0C304000C7
:1045A0002018013341809BB2F4E70092201C05994A
:1045B000099BFFF7C3F92F4E314BC43631680125F3
:1045C0001B682A1C8A401A602C212E48FEF764FDC5
:1045D0002D4B32681B6895401D602C4B251C00221A
:1045E0001A351A70281C0E9A2949FEF7EDFF169B02
:1045F00007981A1A039B002B01D11D4BE35AD9B21D
:1046000009021B12194389B200230898834207DA72
:10461000181C0C3040002018013341809BB2F4E795
:104620000092201C0599099BFFF788F9114F144B44
:10463000C437396801261B68321C8A401A602C2155
:104640001048FEF729FD104B3A681B6896401E6023
:104650000E4B00221A700E490E9A281CFEF7B4FF6A
:10466000079A0F9B01320792934200DB95E674E6AE
:104670001A050000C8CB0000540300205803002096
:1046800060030020740100202C0300203003002070
:1046900020030020C1600B7803744B7843748B783F
:1046A0008374CB78C3747047C0687047007C7047D0
:1046B000407C7047F0B5041C007C0E1C111C1A1CB9
:1046C000637C051C5D43C008434387B00395A57C0C
:1046D0007248761B1D1C7543ADB22B1D9BB2029315
:1046E000DC306F4B076801261B68301CB84018602F
:1046F000607C237C1018CB180138013B0090201CF3
:10470000FFF71CF9654F674BC43738681B68321CCC
:1047100082401A6064482C21FEF7BEFC634B3A6865
:104720001B689640039F1E60A0267600B74235D8CE
:10473000FB080433EB189BB29C466B035D1BADB2C8
:104740005B48029E2F18F719FF00BFB266451DD0C7
:10475000E168029E0723885DF91DC91A021C89B20F
:104760001A410C31D60701D5524A00E0524AA25AEA
:104770004900D6B236021212324361184A80013B18
:10478000EAD2029B01339BB20293D9E74B4B039FC2
:104790000022201C1A701A307A0072E00398311C33
:1047A00004F0E4F980B20490311C039804F022FA7A
:1047B00089B203910025E1680022059102990598CC
:1047C0000723405C8446D61DF61A6046B6B21841EF
:1047D0000C36C70701D5374800E03748205A760025
:1047E000C7B23F0200123843A6197080013BEAD2DB
:1047F00008320131A02392B289B25B009A42DED125
:10480000029B261C28339BB202931A362B4BA02204
:10481000301C00272A4992001F700135FEF7D4FE94
:104820000498ADB28542C6D3039D002D2CD0E80874
:104830000490029DFB0004987A199BB292B29C46A8
:1048400087421BD0E1680723885C61460731C91A9B
:10485000021C89B21A410C31D50701D5154A00E076
:10486000154AA25A4900D5B22D0212122A436118E4
:104870004A80013BE9D20137BFB2DAE7039D301C21
:104880006A000F49FEF7A0FE044A0E4BDC321268A4
:104890001B6801219140196007B0F0BDC8CB000032
:1048A0005403002060030020740100202C0300202A
:1048B000FC1F00001A0500001C050000300300204A
:1048C0002003002058030020F0B585B002AF7B60C4
:1048D0008B68151C5A1C0833DB08061CDB00684675
:1048E000C01A854602AC081C0023211C03F042F8C4
:1048F0003B6A301C00932A1C7B68211C00F03CFBA7
:10490000BD46F7BDF0B5C3680433187810705C7805
:1049100054609D789560DE78D6601C797F2C02DD2E
:1049200080277F003C1B14619C1D5B795361814291
:104930000CD0FF280AD0002D0ED07543013DEB1797
:104940005B0F5D19ED100135641905E0FF38431E5A
:104950009841C0B29461F0BD231CD6E7F0B595B084
:1049600007920DAA04900993FFF7CCFF0024A04200
:1049700000D1F4E0139E01250896049E794B777CC4
:10498000129E291C05967E430696774E1B68321CA4
:10499000DC32126804989140099A1960D719079976
:1049A000059A00978B18099AFEF7C8FFC4366F4B1B
:1049B00031681B682A1C8A401A606D482C21FEF75A
:1049C0006BFB6C4B32681B6895401D60069E402354
:1049D000FF339E425CD8069EB4420ED2049F664BC3
:1049E000221CFB5A0C32D9B2520009021B120B4393
:1049F000BA1801345380A4B2EDE70DAB98680028D3
:104A00000AD15E4B0498069F00221A701A307A0071
:104A10005B49FEF7D9FD99E0D9681A8A9B8807910E
:104A200009920B9380210022079B9A42E9DA0B9EA0
:104A3000059B951901335D43041C5443099FA4460B
:104A40007D19ADB2002383421FDA66469C196707C1
:104A500006D1089C089E247801360A940896802185
:104A60000A9F0F420DD0049E464C345B5E19E7B29C
:104A70003F02B6B224123C430C36049F7600BE19A6
:104A8000748001334908DBB2DDE70132D2B2CBE7F3
:104A9000079E1299384A7318049E0097B25A013340
:104AA00001920294301C0799099AFFF773F90F9B42
:104AB000002B4BD080270597109FBC4246DA00257B
:104AC0000F9B9D423FDA6343EB18590707D1089EBD
:104AD000089F367801370A968026089705960A9F20
:104AE000059E374229D0079F1199099E7B180E9980
:104AF000321952185B19191C00920498FEF71EFF18
:104B0000194F1A4BC437396801261B68321C8A407A
:104B10001A602C211648FEF7BFFA164B3A681B683C
:104B200096401E60049F174B1148FE5A310AFEF74B
:104B3000B3FAF1B20E48FEF7AFFA059E6B1C760889
:104B40000596DDB2BCE70134E4B2B5E7064A0E4B88
:104B5000DC3212681B6801219140129C1960201CF4
:104B600015B0F0BD54030020C8CB00006003002046
:104B7000740100202C0300201C05000030030020DD
:104B8000200300201A050000580300200000000048
:104B9000F0B595B00A920DAA051C0B93FFF7B2FE73
:104BA0000024A04200D1D1E06D4A13996D4BDC3254
:104BB00012681B6806910121914019600F9BA34266
:104BC00009D1674A684BDC3212681B6801219140A9
:104BD0001960129CBAE01B9805F080FF5F4B5E4A9B
:104BE00005F08EF9061C0F1C00F062FC05F0B4FF06
:104BF000391C0790301C00F0AFFC05F0ADFF80229F
:104C0000089004940592049A109B9A42D9DA1A9952
:104C1000029102991A9BCA1A0F9B04999A4200DBCF
:104C200091E04B43D218530707D10699069A0978A9
:104C300001328023099106920593029804F0A2FCA8
:104C40000E9A04990390881804F09CFC061C0A989C
:104C500004F098FC0799041C039804F0D9F908990A
:104C6000071C301C04F0D4F9011C381C04F0FAFABB
:104C7000011C201C04F068F804F064FC041C0B9870
:104C800004F080FC0799071C301C04F0C1F9089956
:104C9000061C039804F0BCF9011C301C04F054F805
:104CA000011C381C04F050F804F04CFC099B0599D9
:104CB000021C0B421AD0211C231C0090281CFEF75A
:104CC0003DFE274F294BC437396801261B68321C2B
:104CD000274C8A401A60201C2C21FEF7DDF9254B59
:104CE0003A681B6896401E60234B1CE02B7E002B0D
:104CF00022D1211C231C0090281CFEF71FFE184FF8
:104D00001A4BC437396801261B68321C184C8A407C
:104D10001A60201C2C21FEF7BFF9164B3A681B685D
:104D200096401E60154BEE5A201C310AFEF7B4F96E
:104D3000F1B2201CFEF7B0F9059A029B520801332C
:104D40000592029365E7013104915CE7201C15B0E0
:104D5000F0BDC046C046C046EC51B81E85EB913F41
:104D6000C8CB00005403002058030020600300203B
:104D7000740100202C0300201A0500001C0500000F
:104D8000F0B597B0061C1D980C1C1492159305F0F5
:104D9000A5FE704B6E4A05F0B3F8337C727CDB08DD
:104DA0005343B27C08900991A41A6B4A5C43DC32ED
:104DB0006A4B12681B68012191400434A4B2196047
:104DC000002107940691737C06998B4200D8B3E0CA
:104DD00000220392337C0399DB08994200DBA2E0B6
:104DE000F26807995318039A089809999B5C1293E3
:104DF00000F05EFB0A900B91069805F06FFE041C14
:104E00000D1C0898099900F0A7FB0C900D910C9AC5
:104E10000D9B201C291C05F073F80A9A0B9B0E9021
:104E20000F91201C291C05F06BF8039B1090119129
:104E3000DB00002113930291029A1399307C5318DE
:104E40001C9A5043181805F049FE049005911498D7
:104E500005F044FE0A9A0B9B041C0D1C049805994E
:104E600005F04EF80E9A0F9B05F0DAFA021C0B1CA7
:104E7000201C291C04F0E2FB05F0FCFD071C159822
:104E800005F02CFE0C9A0D9B041C0D1C0498059932
:104E900005F036F8021C0B1C1098119904F0CEFB9B
:104EA000021C0B1C201C291C04F0C8FB05F0E2FDB1
:104EB000411C021C7B1C0091301C391CFEF73EFD7E
:104EC000254F274BC437396801251B68254C2A1C00
:104ED0008A401A602C21201CFEF7DEF8224B3A682B
:104EE0001B68291C9140029A1960072312999B1A8A
:104EF0001941294201D01D4B03E0337E002B09D11B
:104F00001B4BF55A201C290AFEF7C6F8E9B2201CF3
:104F1000FEF7C2F8029A01320292082A8CD1039B52
:104F20000133039356E7079A9B189BB20793069B9E
:104F30000133DBB2069346E7074A0E4BDC321268B8
:104F40001B6801219140196017B0F0BDC046C046F2
:104F5000EC51B81E85EB913FC8CB000054030020F4
:104F600060030020740100202C0300201A050000BB
:104F70001C05000058030020F0B5051C87B0081C74
:104F80001E1C0491141C05F0C1FF264B05909C4289
:104F900003D12C7C696844430C1B234B9C4207D1F2
:104FA0002C7C059A6B6854431C1BE30F1C1964107E
:104FB0000021049F03910499059A7B1A93422FDAEA
:104FC0000C992A7C002911D13978281C002A06D195
:104FD000221C331CFFF7C2FC013024181EE0221CE7
:104FE000331CFFF767FB2B7CE41817E03978002AA5
:104FF0000CD1039A0C9B00920193281C221C331C99
:10500000FFF7C6FD03990918039107E00C9A009376
:105010000192281C221C331CFFF7B2FE0137CAE79D
:1050200007B0F0BD0F2700000E2700001D4B1E49E2
:105030001A1CD832127852B2D20150181B4908609B
:105040001B4952181B490A601A1CC03212781649B3
:1050500052B2D20150181849086015495218174920
:105060000A601A1CFF32527A0F4952B2D20150180C
:105070001349A83308600E49521812490A601B7878
:10508000094A5BB2DB0199180F4A116008490F4ABF
:105090005B1813600E490F4B00225A520E495A52A8
:1050A0007047C046C8CB0000184400415803002098
:1050B00014440041540300202C030020600300200E
:1050C000500300205C030020280300205002002031
:1050D0002205000064030020240500000020704722
:1050E000F8B5051C0F1C161C0024B44208D02B6810
:1050F000395D1B68281C9847002801D00134F4E76B
:10510000201CF8BD704708B5183001F04DFF08BDF0
:1051100008B5183001F056FF08BD38B5837D0D1C69
:10512000002B06D0041C6034201C01F064FF002812
:1051300001D0002004E0201C291C01F026FF0120E2
:1051400038BD08B5183001F04DFF08BDF7B5019323
:10515000FA239B0083600B4B00250833041C456039
:10516000036018300F1C161C01F004FF201C603077
:1051700001F000FF019B27612675A575201C637552
:10518000FEBDC046A0CB000070B50D49041C0069EF
:1051900002F0C2F9206902F056F81826207D331C6F
:1051A0004343084D0821EB18595601F0FBFD607D83
:1051B00008214643AD19695601F0F4FD70BDC046A3
:1051C000A0860100C8CB0000F7B5041C00200E1C0F
:1051D000151C0193824231D0271C1837381C01F06E
:1051E000DFFE2069311C012202F06AF8002823D07A
:1051F000206902F0D4F8011C381C01F0C6FE01261B
:105200002069AE420ED002F03BF80221206902F084
:1052100041F8206902F0C3F8011C381C01F0B5FE0A
:105220000136EDE702F023F8019B002B05D0206941
:10523000032102F02FF800E0051CE8B2FEBD08B51E
:105240000123FFF7C1FF08BD10B5031CA833041CE0
:105250001970603001F0A4FE0123A37510BDF8B5EC
:105260000022031C8275A833041C0F1C00691978E6
:1052700002F026F8002805D12069032102F00AF87F
:1052800002251DE0261C6036301C01F09BFE002824
:105290000FD0301C256901F087FEC1B2281C02F036
:1052A0003EF80028EED12069032101F0F3FF032529
:1052B00006E0051C002F03D02069032101F0EAFF5E
:1052C000281CF8BD08B50121FFF7C9FF08BD38B596
:1052D000041C006902F041F8002879D0206902F02E
:1052E0004AF800280ED1206902F04FF800281FD09C
:1052F000206902F045F800281AD0206902F04AF827
:10530000002815D1206901F0BBFF2069032101F0BD
:10531000C1FF231CB0331D68002D04D02368201C5E
:105320001B699847A847201C183001F039FE4FE050
:10533000206902F02AF8031C2069002B16D001F026
:105340009FFF2069032101F0A5FF206902F022F8E8
:1053500000283DD0201C603001F022FE0123A375FF
:10536000AC342368002B33D0984731E001F0FEFFC6
:1053700000282DD0206902F00DF8251C00280FD040
:105380006035281C01F01EFEFF21002803D0281CD8
:1053900001F00AFEC1B2206901F0D2FFA07517E04A
:1053A0001835281C01F027FE031C2069002B02D0B1
:1053B00001F05DFF08E001F0F2FF011C281C01F084
:1053C000E4FD206901F05CFF2069032101F062FF28
:1053D00038BD000008B50248FFF779FF08BDC04698
:1053E0009008002008B50348034914221523FFF74D
:1053F000ADFE08BD90080020BC0A002008B5024898
:1054000002F05CF908BDC046000A002008B5024859
:1054100002F054F908BDC04644090020F7B5164F04
:105420001649381C01F0F1FD1549164801F0EDFD53
:105430001549164801F0E9FD1549164801F0E5FD4A
:105440001549164801F0E1FD154D03260124281CDD
:10545000144901F0DAFD391C0096231C0194002246
:10546000114802F019F90096291C01941F221E23ED
:105470000E4802F011F9F7BDC00A002000080042F2
:10548000000C0042C40A002000100042C80A00209C
:1054900000140042BC0A002000180042CC0A002080
:1054A000D00A0020001C0042000A0020440900200D
:1054B00010B5021C26480B1C490086B049088142E1
:1054C0001EDD2448814205DD101C191C04F0A8FFD4
:1054D00006B010BD101C191C02AA00F095F8032399
:1054E000184001281DD0022811D0002824D0012402
:1054F00002980399049A059B009400F0FDFFE7E7EA
:10550000101C191C114B104A00F0BAFAE0E7049A7B
:10551000059B0298039900F0B3FA80231B06C91873
:10552000D6E7049A059B00900298039900F0E4FFE7
:1055300080231B06C918CBE702980399049A059BA0
:1055400000F09EFAC4E7C046000000000000000022
:10555000FB21E93FFFFFEF7F10B5021C28480B1C21
:10556000490086B0490881421FDD2648814205DD99
:10557000101C191C04F054FF06B010BD101C191C9F
:1055800002AA00F041F803231840012822D0022883
:1055900014D0002825D0049A059B0298039900F0A6
:1055A0006FFA80231B06C918E6E700210091101C42
:1055B000191C124B104A00F09FFFDDE70124049AEA
:1055C000059B02980399009400F096FF80231B0628
:1055D000C918D1E7049A059B0298039900F050FA84
:1055E000CAE7012402980399049A059B009400F0ED
:1055F00083FFC1E7C046C046000000000000000075
:10560000FB21E93FFFFFEF7FF0B556464D4644468C
:105610005F46F0B44B005E08A34B91B0041C0D1C18
:1056200091468A469E4200DC86E0A04B9E4223DCE7
:10563000002900DCCEE1291C8C4B8B4A04F0F0FEE3
:105640009B4B041C0D1C9E4200D18FE0884A894B65
:1056500004F0E6FE021C0B1C49460A604B60201C4D
:10566000291C04F0DDFE824A824B04F0D9FE4A4632
:105670009060D160012067E08E4B9E4200DC91E09B
:105680008D4B9E4267DC8D493315C9180B05F51A01
:105690008B46291C041C05F0EDF905F01FFA021CCD
:1056A0000B1C201C291C0A920B9304F0B9FE724AB1
:1056B000724B04F025FC0F1C061C05F0DBF905F00D
:1056C0000DFA041C0D1C221C2B1C301C391C0C94C4
:1056D0000D9504F0A5FE684A684B04F011FC684A79
:1056E000684B0E900F9103F001FB002800D192E16E
:1056F000634A644B201C291C03F0F8FA431E9841AE
:1057000002231B1A022200926D4A0AA801924946FE
:105710005A4600F0D9FA5246002A15DA4C46646817
:105720008021090663184946CA68802424064B6014
:105730001319CB60404207E0111C14605560504AB9
:10574000504B8A60CB60002011B03CBC904699461B
:10575000A246AB46F0BD221C2B1C04F061FE4A465B
:105760009060D160106051600020EDE7464A474BE1
:1057700004F056FE464A474B041C0D1C04F050FE34
:10578000021C0B1C49460A604B60201C291C04F0BB
:1057900047FE3F4A3F4B04F043FE4A469060D160CB
:1057A0000120D1E700F054FF3B4A3C4B041C0D1C88
:1057B00004F0A6FB3A4A3B4B03F040FF05F05AF9D0
:1057C000834605F08BF9294B274A0490059104F094
:1057D00097FB021C0B1C201C291C04F021FE244AF0
:1057E000244B029003910498059904F089FB5B46D1
:1057F00006900791029803991F2B65DC5A46013ADF
:10580000304B9200D358B3425ED0069A079B04F007
:1058100007FE0D1C0F1C041C49460C604D608046A1
:1058200042463B1C0298039904F0FAFD069A079B36
:1058300004F0F6FD4A46041C0D1C9460D5605446E5
:10584000031C5846002C00DB7EE74446146080228F
:1058500012064C46BF1889186760A360E160404299
:1058600072E7C046C046C04600004054FB21F93FE5
:105870003163621A61B4D03D000000000000704145
:1058800000000000000000000000601A61B4D03D7C
:105890007370032E8A19A33B83C8C96D305FE43F40
:1058A000000000000000E03FFB21E93F7BD90240FF
:1058B000FB21F93FFB213941FFFFEF7FEAFBFFFFAF
:1058C00068D00000E8CF0000069A079B04F0A8FD0E
:1058D0004B00041C0D1C4A4636155B0D80460F1C00
:1058E00014605560F31A102B9ADD584B564A0498F1
:1058F000059904F005FB041C0D1C221C2B1C0298AE
:10590000039904F08DFD08900991089A099B02986B
:10591000039904F085FD221C2B1C04F081FD4C4AE8
:105920004C4B041C0D1C0498059904F0E9FA221C48
:105930002B1C04F075FD06900791069A079B0898AA
:10594000099904F06DFD4B460D1C041C1C605D6044
:105950004B005B0D0F1C80460899099AF31A0291BF
:105960000392312B00DC5BE73B4A3C4B04980599E2
:1059700004F0C6FA041C0D1C221C2B1C029803996F
:1059800004F04EFD02900391029A039B0898099936
:1059900004F046FD221C2B1C04F042FD304A314B22
:1059A000041C0D1C0498059904F0AAFA221C2B1C57
:1059B00004F036FD06900791069A079B029803991A
:1059C00004F02EFD4A46041C0D1C80460F1C14607A
:1059D000556025E7291C244A244B03F02FFE264B53
:1059E000041C0D1C9E4218D0214A224B03F026FEB7
:1059F000021C0B1C49460A604B60201C291C04F049
:105A00000FFD1B4A1B4B03F019FE4A469060D16004
:105A10000120404298E6032374E60C4B0A4A03F047
:105A20000DFE0B4A0B4B041C0D1C03F007FE021C61
:105A30000B1C49460A604B60201C291C04F0F0FC3A
:105A4000034A044BDFE7C0460000601A61B4D03D52
:105A50007370032E8A19A33B0000002E8A19A33B02
:105A6000C14920259A837B3900004054FB21F93F2E
:105A70003163621A61B4D03DFB21F93FC046C04694
:105A8000F0B5474680B488B0029203934B005B08A0
:105A90009846894B061C0F1C984563DC04F0EAFF0E
:105AA000002800D1DDE0321C3B1C301C391C04F006
:105AB00027FA6E4B6C4A041C0D1C04F021FA6C4A48
:105AC0006C4B03F0BBFD221C2B1C04F019FA6A4A34
:105AD0006A4B04F0A5FC221C2B1C04F011FA684A46
:105AE000684B03F0ABFD221C2B1C04F009FA664A3C
:105AF000664B04F095FC221C2B1C04F001FA644A4E
:105B0000644B03F09BFD221C2B1C04F0F9F904905C
:105B10000591614A614B201C291C04F0F1F9049A9B
:105B2000059B00900191201C291C04F0E9F9029AC0
:105B3000039B041C0D1C301C391C04F0E1F9021CF1
:105B40000B1C201C291C04F06BFC021C0B1C009875
:105B5000019904F065FC021C0B1C5148514904F0EA
:105B60005FFC71E0321C3B1C04F0CAF93F4B3E4A1B
:105B7000041C0D1C04F0C4F93D4A3E4B03F05EFDCD
:105B8000221C2B1C04F0BCF93B4A3C4B04F048FCA3
:105B9000221C2B1C04F0B4F9394A3A4B03F04EFD99
:105BA000221C2B1C04F0ACF9374A384B04F038FCAB
:105BB000221C2B1C04F0A4F9354A364B03F03EFDA1
:105BC0002B1C221C04F09CF93C4B04900591984539
:105BD0009FDD3B4B98453BDC3A4900220B1C43447C
:105BE0002F4830490092019304F01AFC0690079167
:105BF000294A2A4B201C291C04F082F9009A019B97
:105C000004F00EFC049A059B00900191201C291CB5
:105C100004F076F9029A039B041C0D1C301C391CFD
:105C200004F06EF9021C0B1C201C291C04F0F8FB6C
:105C3000021C0B1C0098019904F0F2FB021C0B1CC7
:105C40000698079904F0ECFB08B004BC9046F0BD40
:105C5000154A164B069207931549164A0091019270
:105C6000C6E70F480F49EFE7D43888BEE9FAA8BD68
:105C7000C4B1B4BD9EEE213EAD529C804F7E923E9B
:105C80009015CB19A001FA3E7751C1166CC1563F51
:105C90004C5555555555A53F000000000000E03F0C
:105CA000000000000000F03F000000000000E73F9F
:105CB000000000000000D23FFFFF3F3E3233D33FE1
:105CC0000000E93F0000E0FFF0B556464D4644466F
:105CD0005F46F0B48E4C8246A544A89D10938D4B30
:105CE000141CAA00109DD2580E91013DE01E1821EF
:105CF0000C92069502F088FFC343DB171840C3439C
:105D00005A00D318DB001B190F90441B0C980B93FF
:105D10002F1817D4A998A500E71926AE4519013701
:105D200007E0286804F0DAFE013403C60435BC42FB
:105D300008D0002CF5DA01346C496B48043503C6F1
:105D4000BC42F6D10C9C002C00DAADE30C9B109CFD
:105D50000133DB00E4009EADA34699462B1C5B4457
:105D6000E93B002076ACFF3B80460D940493069DF2
:105D7000002D00DAACE104980026071C47445B4D77
:105D8000594C50468319186859683A687B6804F082
:105D9000B7F8021C0B1C201C291C03F04FFC083612
:105DA000041C0D1C083F5E45EBD10D9908220B1C0D
:105DB000434490441C605D60C845D8D10C9D11AC33
:105DC000AB000894E41811940A950A9C0D9DE30019
:105DD000EB181E685F68002C38DD231C013BDB00DC
:105DE000ED1812A8A300A846C4185546814604958C
:105DF000A2463F4A3F4B301C391C04F081F804F0A6
:105E000039FE04F06BFE3C4A3C4B041C0D1C04F0B4
:105E100077F8021C0B1C301C391C04F001FB04F049
:105E200029FE494604318946043901C1201C4446F3
:105E3000291C2268636803F001FC08256D42061CDA
:105E40000F1CA844D145D4D104988246301C391C7B
:105E50000B9A00F0B9FC2A4A2A4B041C0D1C04F0D2
:105E60004FF800F0F9FB284A284B04F049F8021CCF
:105E70000B1C201C291C04F0D3FA041C0D1C04F07C
:105E8000F9FD814604F02AFE021C0B1C201C291C73
:105E900004F0C6FA0B9C061C0F1C002C00DCF9E079
:105EA0000A9A12AD013A9200AB581821091B181C2E
:105EB0000841814488401B1AAB5017252D1B2B41EC
:105EC0000993099D002D50DD0A9C0125A944002C51
:105ED00000DC08E1A10012AB8022591800240E4812
:105EE000550423E0C046C04600000000000000004A
:105EF000000000000000703E000000000000704143
:105F0000000000000000C03F000000000000204032
:105F100084FDFFFF70D10000FFFFFF00002A02D0C8
:105F2000AA1A1A60012404338B4208D01A68002C84
:105F3000F4D0821A1A60043301248B42F6D10B9DEF
:105F4000002D0EDD012D00D1AFE0022D09D10A9BFD
:105F500012AA013B9B00D25812AD02929202920A01
:105F6000EA50099D022D00D17BE0301C391CCB4B3F
:105F7000C94A02F0BBFE002800D1B6E00A980C9C8A
:105F8000013884420CDC810012AD119C6B18002298
:105F90001D68043B2A43A342FAD1002A00D067E2DD
:105FA0000C9B12A8013B9B00C358002B00D079E248
:105FB0000C9B0122023B9B00C318043B5968013231
:105FC0000029FAD00A9B0A9C0133A4180A94A34220
:105FD00000DDFAE60F9DA99C5A199200A418069DAF
:105FE000A1460D9CEA18DB00E318109D0A9C04935F
:105FF0002B19D20026A8DB0026AD80185D1980463B
:1060000009954946086804F069FD069C42461060FF
:106010005160002C22DB47460026A04D9E4C504686
:106020008319186859683A687B6803F069FF021C95
:106030000B1C201C291C03F001FB0836041C0D1C42
:10604000083F5E45EBD10499082330C1099C042226
:10605000984404919144A045D3D1B6E68F4D8E4C1F
:10606000F1E7321C3B1C8E488E4904F0D9F9061C1E
:106070000F1C002C00D178E70B9A8948894900F061
:10608000A3FB021C0B1C301C391C04F0C9F9061CB4
:106090000F1C6AE70B9C002C11D10A9B12A8013B34
:1060A0009B00C558ED1509950BE70A9B12A8013B0B
:1060B0009B00C05812A94202520ACA5051E77A4ABC
:1060C0007A4B02F037FE002805D1002409944CE7F2
:1060D000724D714C69E6022409940A9C0125A94479
:1060E000002C00DDF6E6002429E70B9D4C466A42B1
:1060F000301C391C0F9400F067FB6D4A6D4B041C7B
:106100000D1C02F017FE002800D1D3E16A4A6B4B48
:10611000201C291C03F0F4FE04F0ACFC061C0A98B9
:106120008700301C04F0DAFC614A624B03F0E8FEA1
:10613000021C0B1C201C291C04F072F904F09AFCB0
:106140000A9A0B9C904601229044454612A91834A5
:10615000AB00C8510B94CE50514852490B9A00F0F5
:1061600033FB4346041C0D1C002B5CDB0D999E0089
:10617000DB0012A89B460F1C86195F44306804F0B0
:10618000ADFC221C2B1C03F0BBFE4B4A4B4B386072
:106190007960201C291C03F0B3FE089A043E041CFD
:1061A0000D1C083F9642E9D10D9B45461C1C5C44E2
:1061B0000C9A0494013500204EA944460695834666
:1061C000894692460A945046002860DB3C49049F69
:1061D0008846324D304C002604E0082398440837A6
:1061E0005E4511DC4246106851683A687B6803F0EE
:1061F00087FE021C0B1C201C291C03F01FFA013611
:10620000041C0D1CB245E8DA5846C3004B441C6020
:106210005D60049C0121069D083C8B440494AB45C1
:10622000D1D10A9A9046A89C022C4BDC002C00DDB0
:10623000DFE020D14346002B00DA5AE1DC004EAD0E
:106240002C194CAE00250023281C191C22686368F9
:1062500003F0F4F9083C051C0B1CB442F4D1099C72
:10626000191C002C02D08020000619180E9C2A1C34
:106270000B1C226063600F9C072020409F239B0023
:106280009D443CBC90469946A246AB46F0BD034DAA
:10629000014CB9E7C046C046000000000000000005
:1062A000000000000000F03F000000000000E03FA0
:1062B0000000000000007041000000000000703E7F
:1062C00080D10000A89D032DD5D14046002800DCD8
:1062D0000AE140464EADC00083462B1C5B441E685D
:1062E0005F684346013BA946DB004B444CAC04933A
:1062F0000A949A4601E0261C2F1C55462C686D68AE
:10630000321C201C291C3B1C0694079503F096F9AF
:10631000041C0D1C221C2B1C0698079904F080F805
:10632000321C3B1C03F08AF952469060D160082071
:1063300040420A998244146055608A45DBD1424646
:1063400000270026012A3ADD4B46049D5B441E6867
:106350005F68A84601E0261C2F1C45462C686D6826
:10636000321C201C291C3B1C0494059503F066F983
:10637000041C0D1C221C2B1C0498059904F050F8D9
:10638000321C3B1C03F05AF942469060D160082051
:106390004042804414605560C145DCD14C464D46B6
:1063A0005C44083500270026381C311C22686368CD
:1063B00003F044F9083C071C0E1CAC42F4D1099CC4
:1063C000002C00D181E00E9C4E984D4620606D68F7
:1063D000802000062B18494663604846CB6880221F
:1063E000120680689B18B618A060E360276166619A
:1063F00041E7424600250024002A10DBD3004EA8C6
:10640000C6184CAF00250024281C211C3268736874
:1064100003F014F9083E051C0C1CBE42F4D1099A85
:10642000211C002A02D080231B06E1180E980B1CA9
:106430002A1C026043604E984F992A1C231C03F0CB
:10644000EFFF4246002A07DD50ACD50065190CCCA1
:1064500003F0F4F8AC42FAD1099C002C02D080255C
:106460002D0649190E9C021C0B1CA260E36002E77A
:106470000B9D804612A843584C46183D0F940B952F
:10648000002B00D068E64246013A9300C318291C4D
:1064900000E0013A043B5D681839002DF9D09046C0
:1064A0000B9159E601228DE5109D76ACED00AB46CF
:1064B0000D9483E40A98291C8600201C04F0DAFA63
:1064C0000A9A12A98851904646E60E9C4E984F991A
:1064D0003A1C20606160331C49468868C9682261A3
:1064E0006361A060E160C6E64EA9002700268946E8
:1064F00065E700250023B2E6F0B589B00492059364
:10650000514B4A00061C0F1C52089A4206DC04F04C
:10651000B1FA391C031C301C002B64D0321C3B1C0C
:10652000301C391C03F0ECFC321C3B1C041C0D1C01
:1065300003F0E6FC374B364A02900391201C291CDD
:1065400003F0DEFC344A354B03F06AFF221C2B1C9F
:1065500003F0D6FC324A334B03F070F8221C2B1C9C
:1065600003F0CEFC304A314B03F05AFF221C2B1CA7
:1065700003F0C6FC2E4A2F4B03F060F80E9B0690EA
:106580000791002B31D02C4A2C4B0498059903F02D
:10659000B7FC069A079B009001910298039903F0BB
:1065A000AFFC021C0B1C0098019903F039FF221C60
:1065B0002B1C03F0A5FC049A059B03F031FF204A35
:1065C000204B041C0D1C0298039903F099FC021C3B
:1065D0000B1C201C291C03F031F8021C0B1C301C66
:1065E000391C03F01DFF09B0F0BD069A079B201C63
:1065F000291C03F085FC124A124B03F011FF029A8A
:10660000039B03F07DFC321C3B1C03F017F8EAE708
:106610007CD5CF5A3AD9E53DEB9C2B8AE6E55A3E2C
:106620007DFEB157E31DC73ED561C119A0012A3FC8
:10663000A6F810111111813F000000000000E03F9A
:10664000495555555555C53FFFFF3F3EC046C046CD
:106650004B0059087047C046F0B556464D46444673
:106660005F46F0B4524A4F007F0D83B0BE18041C41
:106670000D1C89468A4680460197132E2ADC002E7F
:1066800056DB4C4F021C37413B1C0B4003439C46DE
:10669000BB4667460B1C002F13D0424B404A02F00A
:1066A000CDFF414A414B02F03BFB002807D0002DB3
:1066B0004EDB53465F46BB430022994690464B460D
:1066C0004246101C191C03B03CBC90469946A24699
:1066D000AB46F0BD332E0BDD0B1C8021021CC90024
:1066E0008E42EED1291C02F0A9FF021C0B1CE8E728
:1066F000019F314ABB1801225242DA4093465F465D
:10670000021C0B1C0742DCD0264B254A02F096FFE8
:10671000254A264B02F004FB0028D0D0002D1DDBBB
:1067200042465B469A439046D1464B464246C8E7AE
:106730001C4B1B4A02F082FF1B4A1C4B02F0F0FA72
:106740000028BCD0002D17DB0027B846B946B6E7B5
:1067500080235B0333415E19B246AAE7142E19D099
:10676000164B019A9F1A0123BB401B199C420FD95B
:106770006F1CBA469846D3E76B005B081C4302D1F6
:106780000027B8469BE70E4F00239846B94696E788
:106790009846C5E76B1C9A46C2E7C046C046C0464D
:1067A0009C7500883CE4377E00000000000000007B
:1067B00001FCFFFFFFFF0F00EDFBFFFF33040000B4
:1067C0000000F0BFC046C046F8B53D4E171C331C54
:1067D0000B40041C0D1C0A1C1B1525D14B005B082B
:1067E00018431ED0201C291C2E4B2D4A03F088FB79
:1067F000344B041C0D1C9F4231DB0E4033150A1C28
:10680000363B3149DB198B4215DD221C2B1C2648F7
:10681000264900F061F8244A244B03F071FB041C64
:106820000D1C291C201CF8BD28498B421ED026496E
:10683000DB198B42E9DC002B05DD25491B050A40ED
:106840001D1C1543EDE7191C353118DA214B9F4209
:10685000DBDC17481749221C2B1C00F03DF8144ABA
:10686000144B03F04DFB041C0D1CDAE7201C291C03
:10687000221C2B1C02F0E2FE041C0D1CD1E7144963
:1068800036331B050A401D1C1543201C291C0A4ACF
:106890000A4B03F035FB041C0D1CC2E7C046C04682
:1068A00000000000000050439C7500883CE4377EE7
:1068B00059F3F8C21F6EA501000000000000903CD3
:1068C0000000F07FB03CFFFFFE070000FF07000064
:1068D000FFFF0F8050C3000030B5DA0FD2074B0026
:1068E0005B08111C194330BDFEE7000008B5034BDF
:1068F0001B68002B00D0984708BDC046D40A002072
:1069000038B50F490F4CA14204D100F04FF800F008
:10691000ADFA0BE00C4D8D42F7D00023CA18E818F1
:10692000A24204D2006804331060F7E7FEE7904209
:10693000EBD0064B064A9342E7D2002204C3F9E7A4
:10694000000000202001002050D300002001002082
:10695000D410002008B500F026F8002801D100F07E
:1069600017F808BD014B18607047C046D40A0020D4
:1069700070B5041E08D0054B1D681E1C00F012F8EF
:1069800033685B1BA342F9D370BDC046D80A002010
:1069900008B5034B1A6801321A6000F0B1FA08BD5D
:1069A000D80A0020704700207047000070B5494A9F
:1069B0001E21536802208B430343474953608B6970
:1069C000082423438B61454C454B9C829C8A204381
:1069D0009882101CDA689407FCD5424A012414708E
:1069E0001478E50704D53F4C647864B2002CF7DBDB
:1069F00001249460547864B2002CFBDB3A4D394C8E
:106A00006560547864B2002CFBDB8225354CED01C7
:106A10006580547864B2002CFBDB02249C84DC6823
:106A2000E606FCD5314D2E4CE562DD682C4CEE06B9
:106A3000FBD5A58C2E4E3543A584DD68284CEE068B
:106A4000FBD5A58C02263543A584DC682506FCD53C
:106A5000234CE4686606F8D5DC68E506FCD500241E
:106A60009460547864B2002CFBDB224D1D4C6560B1
:106A700055781C4C6DB2002DFADB1E6A1E4D354058
:106A80001D621D6A8026B5431D620323A3601B4B54
:106A9000636053785BB2002BFBDB00230B72184A58
:106AA0004B728B72CB72174BFF211A60164B174A31
:106AB0001B6812685C01D20E214011439A06520FE6
:106AC00012020B1C1343124A13854368802213439E
:106AD000436070BD00400041000400400C0600000F
:106AE00000080040000C004001050100B905FF7DD1
:106AF000040A000000070300FFFCFFFF030601007B
:106B0000006CDC020800002024608000206080000F
:106B100000400042314BFA21186810B5890002F09C
:106B200025F82F4B0138984224D82E4A2E4B50601E
:106B3000186AC0210002000A0906014319620024F4
:106B4000072194601160196A80220902090A12065D
:106B50000A431A62254BFC211A6A0A431A62196A0F
:106B6000FC2292010A431A62196AA022D2020A4345
:106B70001A6200E0FEE7201C0021013400F070F8EA
:106B8000142CF8D11A4C63785BB2002BFADB194B4A
:106B90006380194B5A7ED209012AFAD0E422D2002E
:106BA0009A803F22DA70597E134AC9090129FAD026
:106BB000C0235B0100201361907000F023F863781C
:106BC0005BB2002BFBDB0D4A094B5A800C4BDA7988
:106BD000D209012AFAD041225A7010BD08000020C3
:106BE000FFFFFF0010E000E000ED00E000040040C7
:106BF000000C00401E400000004000422140000008
:106C00000048004200B5144A517E131CC9090129ED
:106C1000F9D00138042813D81969104A0A401A61BA
:106C20005A780F218A4301F097FF030509070300F3
:106C3000012102E0032100E002210A435A700AE028
:106C40001169F0231B050B43136153780F218B430C
:106C500002210B43537000BD00400042FFFFFFF0D4
:106C600010B51824021C201C5043274B1818007A1A
:106C700040B2013046D0032944D8081C211C01F041
:106C80006BFF02331121624398569A18C3011F48C3
:106C900052681B1899184031022008700121914058
:106CA00059602FE06243985618499A185268C301F8
:106CB0005B189918403106200870012191405960F5
:106CC00099611FE051435A56104859184B68D20138
:106CD0001118C818403006240470012098404860FC
:106CE0000B49521850600DE0624398569A18C30140
:106CF000064852681B18991840310220087001217B
:106D00009140996010BDC046C8CB000000440041CE
:106D10001044004118235843134AF0B513180824AF
:106D20001C5701341FD08256104ED2015D680124D9
:106D30009019231C8668AB401E420BD10E1C771E97
:106D4000BE41401934404030A50004780426B443C5
:106D50002C430470002903D105495218536002E006
:106D6000024E92199361F0BDC8CB0000004400416F
:106D70001044004118235843084A08211318595653
:106D8000013109D082560649D20152185B68106A57
:106D9000D8400123184000E000207047C8CB000015
:106DA0000044004118224243F8B52D4D0824AA188A
:106DB0001457031C621C50D0481C00240C284CD8CB
:106DC00001F0CAFE071E1E1E1E1E1E1E1E0A0A0AF5
:106DD0000A000124644240E0092902D1181C002164
:106DE00003E00A2904D1181C0221FFF739FF23E030
:106DF00000240B2931D1181C0121FFF731FF2CE0B1
:106E000018225343EA185268EB560120141C044020
:106E10005508DB01002C11D0124C1B195D193035BF
:106E20002E780C010F21314021439A18C9B22970E4
:106E3000403213781843107000240EE0094E0F27DB
:106E40009B195D1930352E789A18BE433143C9B26B
:106E500029704032137818431070201CF8BDC046CA
:106E6000C8CB000000440041FEE7704710B5FFF7B3
:106E700051FE03F033FFFFF7F8FF0120FFF778FD25
:106E8000084C201C00F0B2FF201C01F027F8FBF793
:106E900041F9FBF76BF9044B002BFAD000E000BF7F
:106EA000F7E7C0468B0F00200000000008B503F094
:106EB0003BFF08BD08B503F041FF08BDF7B58A18D0
:106EC000061C0D1C01920C1C019B671B9C4207D0E9
:106ED000336821781B68301C984701340028F3D1AF
:106EE000381CFEBD014B18607047C0460C000020E6
:106EF000024B012252421A607047C0460C0000202B
:106F0000154A1368581C25D0013B1360002B21D172
:106F100072B6124A124B04329A4207D8BFF34F8F0F
:106F2000104A114BDA60BFF34F8F11E00F4B197D00
:106F3000C807FBD5188B2021FF319208520001436E
:106F40001983DA610A4A1A801A7DD107FCD5E5E770
:106F5000C046FDE77047C0460C000020002000003E
:106F6000030200000400FA0500ED00E000400041CB
:106F700002A5FFFF10B500214022041C03F0F1FE22
:106F80000023201C2364636410BD026C10B53F23F2
:106F9000541C2340446CA34201D08154036410BDAF
:106FA0000023036443647047436C026C934206D031
:106FB000C25C3F2101330B404364101C01E00120FF
:106FC00040427047026C436CD01A00D54030704785
:106FD000036C406C834202DBC01A3F3001E0C01AF0
:106FE00001387047436C026C934201D0C05C01E0F1
:106FF000012040427047026C3F2301321A40436C2B
:10700000D01A43425841C0B2704701607047F7B58B
:1070100008AC267804689D1E27686C1EA541ECB25A
:10702000920705683A4327063A432A600268072513
:1070300029405068B501002C00D05C03294301436E
:107040000C435460F7BD30B50368C0251C68AD0320
:1070500012052A402243C024A402090421401143FE
:10706000196003685A6814435C6030BD03680121ED
:107070001A680A431A600268116801231942FBD199
:10708000D1691942F8D17047036802211A680A438E
:107090001A600268D3699907FCD4704703681A7EA6
:1070A000D10702D41A7E9107FCD5704703680022ED
:1070B0005A8370470368187E4007C00F7047036803
:1070C000187EC009704703688022197E52420A4325
:1070D0001A7670470368187E0123184070470368CA
:1070E000188DC0B2704703681A7E01200242FBD09F
:1070F00019857047036801219A7D0A439A75704784
:10710000036801221A75704770B5036801268D0760
:10711000ED0F31401C686D070907294321431960B1
:1071200004685100034801F021FD0138C0B220730A
:1071300070BDC046006CDC02036801211A680A4376
:107140001A600268116801231942FBD1D169194202
:10715000F8D17047036802211A680A431A6002686E
:10716000D3699907FCD470470368DA699107FCD4A6
:107170001A6802218A431A607047000038B5041C5F
:107180000D1CFFF7F1FF236801221540AA070449EF
:107190001D68201C0D4015431D60FFF7DBFF38BD47
:1071A000FFFFFFBF70B5041C0D1E10D0FFF7DCFF02
:1071B000291C074801F028FD4100054801F0D6FCD4
:1071C00026680138C0B23073201CFFF7C3FF70BDC2
:1071D000006CDC0270B50125041C0D408907CE0F40
:1071E000FFF7C2FF23687107074A1E68201C16407C
:1071F0000E431E6023682A0704491D680D4015438D
:107200001D60FFF7A7FF70BDFFFFFFDFFFFFFFEF70
:1072100003689A6A520A52021143996203681A7EFD
:107220005107FCD5986AC0B27047036801211A68FB
:107230000A431A600268116801231942FBD1D1691F
:107240001942F8D17047036802211A680A431A608C
:107250000368DA699107FCD45A8B30218A431021E4
:107260000A435A830268D3695907FCD470470368FC
:10727000802219685968D2020A435A607047000098
:107280000368034A196859680A405A607047C04643
:10729000FFFFFBFF30B5036803241D680C40074A5D
:1072A000596824040A40ED0622436D0F5A60052DEB
:1072B00003D10268D3695907FCD430BDFFFFFCFF3E
:1072C00049001143036830B5CDB2598B0324090935
:1072D0002140012904D0598B09090C40022CF4D11A
:1072E000596AC90AC902294359620368002A03D1AD
:1072F0001A7ED107FCD50DE0187E0122400810400F
:1073000008D1197E1142F7D05968C02292020A436F
:107310005A6003E05B8B01209B08984330BD0368F3
:10732000283319700268107E0123184003D1518B55
:107330001942F8D003E0528B181C92089043704712
:10734000036828331970036800201A7E510703D59B
:107350005B8B01209B089843704703681868C00640
:10736000400F043843425841C0B270470368187E4A
:107370004007C00F70470368187E0123184070470C
:107380000368588BC006C00F70470368187E8007DB
:10739000C00F70470368588B0007C00F7047036821
:1073A0001A68D206520F052A02D11A7E9107FCD51F
:1073B00028331878C0B270470368224A30B5934228
:1073C00011D0214A934211D0204A934211D0204A31
:1073D000934211D01F4A934211D01F4A934230D199
:1073E0000E2319220DE0092314220AE00A23152294
:1073F00007E00B23162204E00C23172201E00D23E3
:107400001822DCB2154901209B08A0409B000860AF
:107410005B180320C021890004405D58E000FF2470
:107420008440A5432C1CC0258540281C204358506F
:107430008023DB011A430A4B5A805A7852B2002A41
:10744000FBDB30BD00080042000C0042001000428F
:107450000014004200180042001C004200E100E05D
:10746000000C0040F8B5041C151C0E1C1F1CFFF777
:10747000A3FF201CFFF7FAFDB1001C220A40690798
:107480002368090C0A431A60226884239375012E2D
:107490001AD10821012D00D110210C4B7943186815
:1074A000C00001F063FB236807219A890140D204E0
:1074B0004903D20C0A439A8123680004C20C9889BC
:1074C000400B400310439881F8BDC04608000020DF
:1074D000F7B5019308AB041C1F780D1C161CFFF7B1
:1074E0002BFE201CFFF768FFBF070C221743C022AA
:1074F000920336051640C02292022D0423683E43B3
:1075000001991540354307221D600A4080212368F8
:1075100089020A435A60F7BD38B5041C0D1CFFF7F9
:107520004BFF201CFFF781FE236814221A60074BD3
:107530006900186801F01AFB2468421EE068FF2306
:107540001A4098431043E06038BDC0460800002050
:107550000120704708B50368014A1B6A984708BDB7
:107560001304000010B5041C0069FFF77FFD201C08
:107570001430FFF715FD201C5C30FFF711FD10BD26
:1075800008B51430FFF71EFD08BD10B5041C201C03
:107590005C30FFF717FD0028F9D12069FFF77EFD69
:1075A00010BD08B55C30FFF713FD08BD70B5051CB4
:1075B0001435041C281CFFF7F7FC231CA8331B7888
:1075C000061CFF2B0AD0281CFFF702FD0A2805DD48
:1075D000231CB033B4341B6822681A60301C70BDA1
:1075E00008B51430FFF7FEFC08BD70B5041C006937
:1075F0000E1CFFF76FFD251C5C35002804D0281CED
:10760000FFF7E0FC00280CD0281CFFF7F4FC002852
:10761000FAD1281C311CFFF7B8FC2069FFF76AFD7E
:1076200003E02069311CFFF75EFD012070BD000002
:10763000F0B585B01D1C0AAB1B78041C00930BAB86
:107640001B78161C01930CAB1B780F1C02930DAB1F
:107650001B78039300234360FA239B0083600D4B48
:10766000083303601430FFF785FC201C5C30FFF703
:1076700081FC009A231CA43327619A70019A201C74
:10768000DA70029A1E701A71039A5D701A7505B04D
:10769000F0BDC046C0D1000030B585B0041C08A8BC
:1076A000057809A8007800950190FF2002900390CA
:1076B000201CFFF7BDFF201C05B030BD38B5041CF1
:1076C0000069FFF7F7FC002819D02069FFF707FDD4
:1076D000251C1435011C281CFFF757FC231CA8335C
:1076E0001B78FF2B0BD0281CFFF772FC092806DC47
:1076F000231C221CAC33B4321B6812681A60206948
:10770000FFF7E8FC002811D0251C5C35281CFFF78A
:1077100059FC002807D0281CFFF746FCC1B220699D
:10772000FFF7E1FC02E02069FFF7EAFC2069FFF7C0
:10773000C6FC002805D02069FFF7C5FC2069FFF7CB
:10774000B5FC38BDF023081C18403038434258417E
:107750007047F0231B01194080239B0099420CD0F5
:10776000C0239B00994206D080235B0005209942EC
:1077700004D0002002E0072000E0062070470F231D
:107780001940012905D002394B424B410220C01A51
:1077900000E0002070470000F0B5031C85B00391A5
:1077A000A433041C182718783B1C4343344E08218B
:1077B000F3185956151CFFF7F5FA231CA533187852
:1077C0003B1C43430821F3185956FFF7EBFA231CDF
:1077D000A7331B78022B0AD1231CB8331878FF2853
:1077E00005D047430821F7197956FFF7DBFA271C24
:1077F000A8373878FF281AD00121FFF731FA3B78F3
:1078000018225A43B3561F4FDB01211CAC31D81943
:1078100008601D49B6185B18211C7268B0310B60F6
:10782000012191400A1C211CB4310A601A60012117
:107830000A1C039B2069FFF715FE291C201CFFF77B
:1078400088FF291C071C201CFFF799FF291C061C18
:10785000201CFFF777FF391C0090331C20690122A0
:10786000FFF7D5FB231CA7331978013B1A78206951
:10787000FFF7E9FB2069FFF707FC05B0F0BDC04644
:10788000C8CB0000184400411444004110B5041C4A
:10789000006803F053FA201C10BD10B5041C0068EA
:1078A000002801D003F04AFA00232360A36063603C
:1078B00010BD38B5041C0D1C0068013103F0F6FA48
:1078C000002801D021C4012038BD036810B5041C74
:1078D000002B02D043688B4209D2201CFFF7E9FF3E
:1078E000002805D0A368002B01D122681370012065
:1078F00010BD70B50E1C111C041C151CFFF7E5FF14
:10790000002803D1201CFFF7C8FF04E0A560206811
:10791000311C03F0F3FA201C70BD38B50023041CA1
:107920000D1C036043608360994207D0081C03F07C
:10793000EDFA291C021C201CFFF7DBFF201C38BDC0
:1079400010B50B1C041E8C4208D00968002903D016
:107950009A68FFF7CEFF01E0FFF79FFF201C10BDE4
:1079600010B50023041C036043608360FFF7E8FF49
:10797000201C10BD38B50D1C002A14D0002912D0CF
:1079800081688B4202D300232B700CE0541EC91A6D
:107990008C4200D90C1C0168221CC918281C03F059
:1079A000BCFA00232B5538BD10B507230F22024027
:1079B000141C00093034092A00DD0734CC54013B83
:1079C000F4D210BD70B5C2B219495301CB189E68EC
:1079D000184DC0242E40A40526439E60164E8001FB
:1079E00009683018083258605201505C0726B043CD
:1079F0000126304350549E6935402C439C610F4C06
:107A00005C61505C7024A0431024204350549C6857
:107A10000B488A18204080246403204398609868AB
:107A20004021800B8003986053790B43537170BDE4
:107A3000940F0020FFFFFF8FAC0D0020E80B00200B
:107A4000FF3F00F038B5041C08CC01211A78051C52
:107A50000A431A708022201C0021520003F081F991
:107A60002B689A78D107FCD45C6238BD134BF0B513
:107A70001B6899035A029B01C90ED20E5B0F1F2986
:107A800000D105211F2A00D11D22072B00D103237D
:107A900004688E01278D0A491F253940314321850D
:107AA00001682A400C8DAC4322430A850268190301
:107AB000108D044B03400B431385F0BD2460800000
:107AC0003FF8FFFFFF8FFFFFEFF3108303600123F9
:107AD000436072B670470368002B02D162B6BFF3F1
