:100000000C94D7250C9408260C9408260C940826EA
:100010000C9408260C9408260C9408260C940826A8
:100020000C9408260C9408260C9408260C94082698
:100030000C9408260C9408260C9408260C94082688
:100040000C9408260C9408260C9408260C94082678
:100050000C9408260C9408260C9408260C941BB2C9
:100060000C9408260C94D7B00C94AEB00C940826CF
:100070000C9408260C9408260C9408260C94082648
:100080000C9408260C9408260C9408260C94082638
:100090000C9485B00C945CB00C9408260C94F8C5B4
:1000A0000C9408260C9408260C9408260C94082618
:1000B0000C9408260C9408260C9408260C94082608
:1000C0000C9408260C9408260C9408260C9433B043
:1000D0000C940AB00C9408260C9408260C9408265C
:1000E0000C940826A5267D28DE29FB2A662C662C82
:1000F000862E1F301B376731D033553402390A3A08
:100100004F3C4F3CDE2939473947DE290C3B793DCE
:10011000DE2D713E5C3FDD41D240C3425644034672
:100120001C462332F86AFF6A0A6B116B1A6B216B4B
:100130002A6B796BA0A1BEA1E5A1FBA1FBA1FBA14C
:1001400012A29AA2A0A19AA235A29AA243A243A265
:1001500060A260A2E5A1C5A2C5A2E5A143A29AA2A0
:10016000FBA16EA29AA29AA29AA29AA29AA288A28D
:100170009AA29AA21AAF1DAF0CAF10AF16AF54AF30
:1001800021AF25AF2BAF2FAF33AF39AF3DAF41AF6D
:1001900054AF47AF4BAF4FAF82CC89CC92CC99CC08
:1001A000A2CCA9CCB2CCBBCC00407A10F35A00A0B0
:1001B000724E18090010A5D4E80000E87648170030
:1001C00000E40B54020000CA9A3B000000E1F50570
:1001D000000080969800000040420F000000A086BA
:1001E00001000000102700000000E80300000000EC
:1001F0006400000000000A00000000000100000090
:1002000000002C76D888DC674F0823DFC1DFAE59A9
:10021000E1B1B796E5E3E453C63AE651997696E83C
:10022000E6C28426EB898C9B62ED407C6FFCEFBCC0
:100230009C9F40F2BAA56FA5F490055A2AF75C93EB
:100240006B6CF9676DC11BFCE0E40D47FEF520E621
:10025000B500D0ED902E0300943577050080841E04
:10026000080000204E0A000000C80C333333330F5F
:10027000986E12831141EF8D2114893BE65516CFFC
:10028000FEE6DB18D1844B381BF77C1D901DA4BB08
:10029000E424203284725E228100C9F124ECA1E5BD
:1002A0003D274672656552616D3A20002018205F37
:1002B000000000000000000000000000000000003E
:1002C000000000000000000000000000000000002E
:1002D000000000000000000000000000000000001E
:1002E000000000000000000000000000000000000E
:1002F00000000000000000000000000000000000FE
:1003000000000000000000000000000000000000ED
:10031000000000000000000000120000001F80002C
:10032000000DC000001EE0000033300000619800A6
:1003300000CCCC0000CC6C000180360003023600FB
:1003400007061B00018E1B0000F61B0000061B00A9
:1003500000061B0000061B000007FB000007FB0057
:10036000000000000000000000000000000000008D
:100370000000000007FFFE0007FFFF00060003006B
:1003800006000300060633000606330006003300AD
:1003900006003300070033000380330001C0330040
:1003A00000FC3300007C3300000C3F00000C1E00FA
:1003B000000C0000001BFC0000192400001FFC00C2
:1003C000000000000000000000000000000000002D
:1003D00000000000000000000080040000EFDC00CE
:1003E00000FFFC0000D02C0000C00C0001800600C3
:1003F0000180060003000300030CC300030CC300CC
:100400000300030003030300018A4600018FC600B6
:1004100000E01C0000703800003FF000000FC0003A
:1004200000000000000000000000000000000000CC
:10043000000000000000000000E01E0003F7BF0005
:1004400003FFFF0003F03F0003E01F0001800600F0
:10045000019C66000335B30003353300033CF30011
:10046000037C7B00033873000180060001800600D6
:1004700000E01C0000703800003FF000000FC000DA
:10048000000000000000000000000000000000006C
:100490000000000000000000000FE00000303F00FE
:1004A000004000800080008001000080013000805A
:1004B0000230008002000180020001000200010001
:1004C0000201010002010100027F0100024101005E
:1004D00002410200024102000138FC0001880000D4
:1004E0000078000000000000000000000000000094
:1004F0000000000000078000001FE000003FF00047
:10050000007FF800007FFC0000FFFC0000FFFC0003
:1005100001C00E00019FE600018CC60001CCCE0098
:1005200001C00E0001CCCE000197A600018006009C
:100530000180060000C00C0000FFFC00003FF0003E
:1005400000000000000000000000000000000000AB
:10055000000000000000000000000000000000009B
:100560000000000001C0000006C00300044002803B
:10057000064002400E200140012E0320009102207F
:100580000085FE20044569200CC300201FE00060A8
:1005900010000040180E99800FF8E100000FBF0016
:1005A000000000000000000000000000000000004B
:1005B00000000000000000000070380000FFFC0098
:1005C000008FC60001BFF60001F87E0001E01F00A9
:1005D00003C00F0003800700038CC600038CC70014
:1005E000038007000383070003C94F0003CFCF0038
:1005F00003C00F0000F03C0000FCFC00003FF000D6
:1006000000030000000000000000000000000000E7
:10061000000000000000000000078000000FC00084
:100620000019E0000039E000005FE000003FE0005A
:100630000017E0000013F0000013F0000033F80092
:100640000023F8000023FC000023F0000033F0003A
:10065000001BF000001FF0000021F800003FF80030
:10066000000000000000000000000000000000008A
:10067000000000000000000000000000000000007A
:1006800000000020000000E0000000C01FFFFFC0CD
:100690001FFFFFC0107FFFC0157FFDC015BFF8E032
:1006A0000AFFF8600F3FF00007FFC00001FF800065
:1006B0000007800000008000000000000000000033
:1006C000000000000000000000000000000000002A
:1006D000000000000000000000000000000000001A
:1006E00000000000000C0000000F0000001FC00010
:1006F00000FFE00001EFF1C003EFFB80066FFF0099
:100700000E63FF0007F3FB8003EBF18000FFF04076
:10071000001C1000000000000000000000000000AD
:1007200000000000000000000000000000000000C9
:1007300000000000000000000001000000030000B5
:1007400000070000000F0000001700000023010058
:1007500000C0830001804F0002603F0006603F0040
:1007600001804F0000C0830000230100001700003B
:10077000000F00000007000000030000000100005F
:100780000000000000000000000000000000000069
:10079000000000000000000000000000001FE0005A
:1007A0000067980000F03C0001E79E0003EFFF00A7
:1007B000020C310003F8DF8007E8DF8007F81F80B4
:1007C00007F83F8007E8FF800728D380061CE180F8
:1007D00002172100021FE1000210210003F03F0078
:1007E0000000000000000000000000000000000009
:1007F0000000000000000000001C70000014500009
:100800000092940000FABE0000FABE0000FBBE0099
:1008100000739C00000FE0000007C000001FF00004
:100820000007C000001FF000001FF0000007C0001C
:10083000000380000006C000000FE000000FE00091
:1008400000000000000000000000000000000000A8
:1008500000000000000000000001C000000FE000E8
:10086000003FA000007FE000007DE00000F00000FD
:1008700000F0000000FBE00000FFF00000FFF800C7
:1008800000FFF800007FFC00007FFC00007FFC0000
:100890000077FE000077FE0000771F0000771C80C5
:1008A0000000000000000000000000000000000048
:1008B00000000000000FC0000030300000C00C003D
:1008C0000180C6000101F2000203F1000207A1004D
:1008D00004076080040E0080040C0080041C00806B
:1008E000041C0080041C0080023E0100023A01004A
:1008F000011402000024060000200C00003030002B
:10090000000FC00000000000000000000000000018
:1009100000000000000000000000000000000000D7
:100920000000000007FFFF800500008005C0008078
:1009300007FFFF8007FFFF800400008004000080A5
:100940000400008004000080040000800400008097
:100950000400008007FFFF8000000000000000008E
:100960000000000000000000000000000000000087
:100970000000000000000000000000000000000077
:10098000000000000000000003FFFF800200008064
:1009900006FE3E8006FE00800600008006FFFE8008
:1009A00006FEFE800600008007FFFF8004000100B5
:1009B00007FFFF0000000000000000000000000032
:1009C0000000000000000000000000000000000027
:1009D0000000000000000000000000000000000017
:1009E000000038000000C600000082000000820005
:1009F00003FF838002004480060738800618C08009
:100A000006104080061040800618C080060700804F
:100A100007FFFF800400010007FFFF000000000047
:100A200000000000000000000000000000000000C6
:100A3000000000000000000000440000004400002E
:100A40000044000000FE00000082000000FE0000E4
:100A500000FE000000FE0000007C0000001000000E
:100A6000001078000010CC000010840000108400FA
:100A70000010840000198400000F0400000004002E
:100A80000000000000000000000000000000000066
:100A90000000000000000000000000000000000056
:100AA00000000000007C00000092000000920000A6
:100AB0000082000000EE000000820000007C0000C8
:100AC000001078000010CC0000108400001084009A
:100AD0000010840000198400000F040000000400CE
:100AE0000000000000000000000000000000000006
:100AF00000000000000000000002000000020000F2
:100B00000047100000CF980000EFB80001DFDC00C4
:100B100003CF9E0001FFFC0001FFFC0003DFDE00AD
:100B200003AFAE0007FFFF0003DFDE0003BFEE00F0
:100B300007870F0007F77F0008E7388000E73800D5
:100B400000000000000000000000000000000000A5
:100B500000000000000000000037B0000037B000C7
:100B6000003FF000003FF000003FF000001FE000F9
:100B7000000FC000000300000003000003C30F00CB
:100B800001E31E0000F33C00007B7800003FF00012
:100B9000001FE000000FC0000007800000030000FD
:100BA0000000000000000000000000000000000045
:100BB000000000000002000000020000000700002A
:100BC000000500000002000000078000001FC000B8
:100BD00000272000001FC000003FE000007FF00061
:100BE000009FC800003FE00000FFF80001FFFC008C
:100BF00003FFFE00040701000007000000070000DB
:100C000000000000000000000000000000000000E4
:100C1000000000000000000000190000001B800020
:100C2000001FC000001FE000001FF000003FF800A0
:100C3000007FFC0000FFFE0000E10E0000E10E005E
:100C400000E10E0000FFFE0000FFFE0000E10E00CC
:100C500000E10E0000E10E0000FFFE0000FFFE00BC
:100C60000000000000000000000000000000000084
:100C70000000000000000000007FFC0000400400B5
:100C80000059B4000059B4000040040000400400C2
:100C90000059B4000059B4000040040000400400B2
:100CA0000059B4000059B4000040040000400400A2
:100CB000004184000041840000418400007FFC006A
:100CC0000000000000000000000000000000000024
:100CD0000000000003FFE0000200200002FFA0006F
:100CE0000200200002FFA0000200200002FFA0007E
:100CF0000200200002FFA0000200200002FFA0006E
:100D000002FFA0000200200002FFA000020020005D
:100D1000023E2000023E2000023E200003FFE000D1
:100D200000000000000000000000000000000000C3
:100D3000000000000003000000030000000FC000DE
:100D4000000FC0000003000000030000000FC000FF
:100D5000001FE000007FF80000FFFC0001FFFE0024
:100D600001FCFE0001F87E0001F87E0001F87E0023
:100D700001F87E0001F87E0001F87E0001F87E0097
:100D80000000000000000000000000000000000063
:100D9000000000000000000001FDFC00032226000E
:100DA000020002000200020000222600007DFC007A
:100DB00003000000030000000300000003084200DD
:100DC0000318C6000339CE00037BFE0003FFFE00BC
:100DD00003FFFE0003FFFE0003FFFE0003FFFE0013
:100DE0000000000000000000000000000000000003
:100DF0000000000000010000180FC06017DFEFA026
:100E0000107138201031302010D12C201F1FE3E04A
:100E1000001FE000001FC000001FC000001FC00036
:100E2000001FC000001FC000001FE000001FE00006
:100E3000001FE000001FE000001FE000001FE000B6
:100E400000000000000000000000000000000000A2
:100E50000000000000000000000FE000000C600037
:100E6000000920000009A00000082000000C60001C
:100E7000000FE000007FFC00007FFC00007FFC0012
:100E800001FFFF0001FC7F0001F83F0001F83F0077
:100E900001F83F0001F83F0001F83F0001F83F0072
:100EA0000000000000000000000000000000000042
:100EB0000000000000080000000F0000000BE00030
:100EC0000008780000080800000F0800000BE80088
:100ED0000008780000080800000808000008080062
:100EE00000080800000808000078080000F8080062
:100EF00001F8080001F0780001E0F8000001F800B6
:100F00000001F0000000E000000000000000000010
:100F10000000000000000000001C3800003E7C00C3
:100F2000003E7C00003E7C00001C380001000000F8
:100F300001CFF00001FFF00001FFF00001FFF00021
:100F400001CFF0000107E0000005A000000DB00097
:100F500000099000001998000011880000318C00F1
:100F60000000000000000000000000000000000081
:100F70000000000000000000007FFE0000A0140040
:100F80000140140001C01800014018000140280071
:100F900001FFF800014018000140140000C01C00CF
:100FA00000A0140000A00C00007FFC0000A00E00B8
:100FB00000E00C0000E00C0000C0140001FFF8008D
:100FC0000000000000000000000000000000000021
:100FD00000000000000000000000000000000E0003
:100FE0000001F600003ECE0003F9F000023E0000D2
:100FF00003FFFE00031CE20003FFFE00007FFE0073
:10100000007FFE00007FFE00007FFE00007FFE00EC
:10101000007FFE00007FFE000000000000000000D6
:1010200000000000000000000000000000000000C0
:10103000000000000000000000FFE000008220002F
:101040000082200000FF20000081200000FFE0005F
:10105000008E200000FFE0000080200000FFE00084
:10106000008720000085E00000FD300000152E0004
:10107000006F2A000041EE00003C3C000007F00039
:101080000000000000000000000000000000000060
:101090000000000000000000002000000020000010
:1010A0000050000000580000005700000029000018
:1010B000002C800000248000001250000049B8007D
:1010C0000044F00000435C0000A0BF80071D7F804B
:1010D00000A08F800040070000400000004000009A
:1010E0000000000000000000000000000000000000
:1010F0000000000000000000000F00000030C000F1
:101100000020400000402300004026000040260050
:1011100000402E0000205A000030F100000F19009E
:1011200000051E0000773C00007C7C0000FFF800FA
:10113000007FF000001FE0000007C0000000C000BA
:10114000000000000000000000000000000000009F
:101150000000000000000000000120000006D80090
:101160000004C800000DA8000015FC000065A600E2
:1011700000E3720001F69C0003FB670000FC97008F
:10118000007E3F00003DFF80001750000039D8006E
:10119000000EC8000004C8000009B800001B0000D1
:1011A000000400000000000000000000000000003B
:1011B00000000000001018000010100004082000BB
:1011C000020BA0C00103E1000083F200000FFC004D
:1011D0000033FE000861FF0007763F0000780F0033
:1011E000007C0F00003E0600009FF800010FFA008F
:1011F0000607F9000803F880001BF8C00010000083
:101200000020840000208400000080000000000016
:1012100000000000000000000000000000030000CB
:1012200000030000000FC000001FE000003FF000BE
:10123000007FF8000064980000649800007FF800C8
:101240000000000001FFFE0003FFFF0007FFFF801A
:1012500001F7BE0001F7BE0000E31C000000000023
:10126000000000000000000000000000000000007E
:10127000000000000000000000000000000000006E
:101280000000000000000000000000000003F80063
:101290000FC7FC0001FFFC000007FC000007FC007A
:1012A0000000000000FFFF0001FFFF8001FFFF8042
:1012B00001FFFF8001FFFF800100008001800180AD
:1012C00000FFFF0000000000000000000000000020
:1012D0000000000000000000000078000010440042
:1012E000002024000047160000C89E0003504F0055
:1012F00004504F0002904F000788878007871F80A7
:1013000007E53FC00FF77F000FF8FE0003FDFC006C
:10131000007DF800007FF000007FF000007FF0000B
:1013200000000000000000000000000000000000BD
:101330000000000000018000000380000003400066
:1013400000024000000440000004C00000038000D0
:1013500000070000000E00000019C0000037E00088
:1013600000357000003530000033300000192000D7
:10137000001CE0000007800000008000000E8000DC
:10138000000E8000000700000000000000000000C8
:1013900000000000000000000001000000018000CB
:1013A0000001C0000001E000000170000001180011
:1013B0000001080000010800000108000001080009
:1013C00000011000000120000001000000010000E9
:1013D000000F0000003F0000003E0000003C000045
:1013E00000000000000000000000000000000000FD
:1013F000000000000000000007FFFF8004000080E4
:1014000004FFFC8005FFFE8005FF068005FF0680C7
:1014100005FF068005FFF68005FFF68005FFF680D4
:1014200005FFFE8005FFFE8005FFFE8005FFFE80B4
:1014300004000080059BC0800400008007FFFF803F
:10144000000000000000000000000000000000009C
:10145000000000000000C000000180000002000049
:101460000004000000080000001000000020000040
:1014700003FFFE00024F0E00024CE600027DF60064
:10148000024BFA00024BFA00027BFA00027BFA00E0
:10149000027DF600027CE600027F1E0001FFFC00D8
:1014A000000000000000000000000000000000003C
:1014B0000000000000000000000FE0000016D00057
:1014C000001930000016D0000016D00000193000BE
:1014D0000016D000003FF80000301800003FF80070
:1014E000003FF800003FF800002FE800002008004F
:1014F000001FF0000003800000038000000FE000E8
:1015000000000000000000000000000000000000DB
:1015100000000000000000000000000000000000CB
:101520000000000000FFFC0007FFFF800FFFFFC06E
:101530000FC00FC0000FC0000F9CE7C0003030008C
:10154000003030000060180000E01C0000F03C009B
:1015500001F03E0001F87E0001FFFE0001FFFE00E9
:10156000000000000000000000000000000000007B
:101570000000000000000000000003E000003C103C
:101580000001F008001E3C0400FC3E0401833C0402
:10159000010138040206B0047E18B0048117B004BB
:1015A00080E8B004C028B0045F988004204880041C
:1015B00010048038080383C004019C0003FFE0008E
:1015C000000000000000000000000000000000001B
:1015D0000000000000000000000003E000001C10FC
:1015E0000001E008000E0004007C000401830004F8
:1015F00001010004020080147E0080E481008FE479
:1016000080C0BFE4C020B1C45F9080C42048800483
:1016100010048038080283C004019C0003FFE0002E
:1016200000000000000000000000000000000000BA
:1016300000000000000000000FF000000810000093
:1016400008100000780FFE00400002004000020079
:1016500041FFFFF841000008420000104200001066
:101660004400002048000020480000405000008056
:101670005000008060000100600001007FFFFE005C
:10168000000000000000000000000000000000005A
:101690000000000000000000001FE000003FF0001C
:1016A000003030000030300007FFFF8007FFFF8070
:1016B00007FFFF8007FFFF8007FFFF8007FFFF8016
:1016C00007FFFF8007FFFF8007FFFF8007FFFF8006
:1016D00007FFFF8007FFFF8007FFFF8007FFFF80F6
:1016E00000000000000000000000000000000000FA
:1016F000000000000000000000000000000FE000FB
:10170000001FF000073FF8000740040007FFFFC07C
:1017100007FFFFC007F83FC007F01FC007E00FC07A
:1017200007E00FC007E00FC007E00FC007E00FC0E1
:1017300007F01FC007F83FC007FFFFC007FFFFC04B
:101740000000000000000000000000000000000099
:101750000000000000000000000FC000003030005A
:10176000004008000083040001030200010302009E
:1017700002030100020301000203F9000203F90061
:10178000020001000200010001000200010002004D
:10179000008004000040080000303000000FC0004E
:1017A0000000000000000000000000000000000039
:1017B0000000000000000000000000000000000029
:1017C00000000000000000000F000000108000007A
:1017D000108003C010801FE00FF07F00003FF80072
:1017E000001FE000001FE000003FF8000FF07F0046
:1017F00010801FC0108003E0108000000F00000068
:1018000000000000000000000000000000000000D8
:1018100000000000000000000007C00000183000B9
:101820000033D800002C6800005014000050140051
:10183000005014000050140000FFFE0000FFFE00E6
:1018400000FEFE0000FC7E0000FEFE0000FEFE002A
:10185000007EFC00003FF800001FF0000007C00001
:101860000000000000000000000000000000000078
:1018700000000000000000000000F8000001FC0073
:101880000003FE000007C7000007C7000007C700ED
:101890000007FF00000FFF00000FFE00000FFC001C
:1018A000003FF800003F000000FE000000FC0000C8
:1018B00003F8000003F0000003E0000003C0000094
:1018C0000000000000000000000000000000000018
:1018D0000000000000000000000000000000000008
:1018E00000000000003FF000002010000040080051
:1018F00000400800004008000080040001FFFF00D5
:10190000039FE700030FC300030FC300039FE7001B
:1019100003FFFF0000E01C0000E01C0000E01C00D2
:1019200000000000000000000000000000000000B7
:101930000000000000000000000000000007800020
:1019400000048000001FE000002010000040100094
:1019500000400800004008000080040001FFFF0074
:10196000039FE700030FC300030FC300039FE700BB
:1019700003FFFF0000E01C0000E01C0000E01C0072
:101980000000000000000000000000000000000057
:10199000000000000000000000FFFC0000E01C0050
:1019A00001E01E0001FFFE00010002000100020034
:1019B00001000200010002000100020001FFFE0020
:1019C00001CFCE00018786000187860001CFCE00BF
:1019D00001FFFE0000703800007038000070380011
:1019E00000000000000000000000000000000000F7
:1019F0000000000000000000007FFC00007FFC00F1
:101A000000400400004004000040040000400400C6
:101A1000004004000040040000400400007FFC007F
:101A200000478C0000478C0000478C00007FFC00C2
:101A3000003018000020080000400400018003006E
:101A40000000000000000000000000000000000096
:101A50000000000000000000000700000007000078
:101A600000070000000780000007800001078000D9
:101A70000187C0000187C00001FFFF8001FFFF80D8
:101A800001FFFF800187C0000187800001078000FF
:101A900000078000000700000007000000070000AA
:101AA0000000000000000000000000000000000036
:101AB0000000000000000000000000000000000026
:101AC000000000000FFFC0000FFFC0000FFFC000AC
:101AD0000FFFFF000FFFF8800FFFF8800FFFF88067
:101AE0000FFFF84000003FC00FFFFFC00F01F9C01B
:101AF0000EC6F6C00DEF6F4001EF0F0000C60600E6
:101B000000000000000000000000000000000000D5
:101B1000000000000000000000000000000001C004
:101B2000000006600000082000001E2000006E403B
:101B30000000B58000034B0000049400001B680007
:101B40000024B000005B400001A58000015A0000A5
:101B5000026C0000045000000CE000000F000000C8
:101B60001000000000000000000000000000000065
:101B700000000000000000000000400000006000C5
:101B80000000F000000FC00000338000004780001C
:101B9000008E63F0011C1E70013802700238027062
:101BA000027B0270047C0270048002700780067061
:101BB0000B7FFBF00A0000700C000000000000002A
:101BC0000000000000000000000000000000000015
:101BD0000000000000001000000038000000F800C5
:101BE0000000F8000001F8000001F8000003F80010
:101BF0000003F0000007F0000005F000000F600097
:101C0000000DC000000F6000000BC0000016800037
:101C1000001200000022000000230000003C000031
:101C20000020000000000000000000000000000094
:101C300000000000000000000007FC0000181C006D
:101C4000003FE4000020240000272400002024009E
:101C50000020240000202400002024000020240074
:101C6000003FE4000020240000272400002024007E
:101C7000002024000020280000203000003FE00069
:101C80000000000000000000000000000000000054
:101C90000000000000000000001FE0000020100015
:101CA0000020100000305000002FD0000017E0008E
:101CB0000013A000000B400000058000000580001C
:101CC0000009400000112000001120000021100038
:101CD00000279000002FD000002FD000001FE00050
:101CE00000000000000000000000000000000000F4
:101CF000000000000000000007FDFF000C0701804D
:101D00003C0201E0340201603402016034020160EF
:101D10003402016034020160340201603402016067
:101D200034020160340201603402016037FAFF605E
:101D300038070160380200E03FFAFFE0000F800042
:101D40000000000000000000000000000000000093
:101D5000000000000000000000FFFE000080020004
:101D6000008002000080020000800200008002006B
:101D7000008002000080020000800200008002005B
:101D800000800200008002000080020000803E000F
:101D900000802400008028000080300000FFE00068
:101DA0000000000000000000000000000000000033
:101DB000000000000000000000FFFE0000800200A4
:101DC0000080020000BF820000800200008002004C
:101DD00000BFFA0000BFFA000080020000BFFA0056
:101DE0000080020000BFFA000080020000BFBE00B9
:101DF00000802400008028000080300000FFE00008
:101E000000000000000000000000000000000000D2
:101E10000000000000000000000FFF8000080080AC
:101E200000080080007FFC800040048001FFF480F7
:101E30000100148001001480017F9480010014804F
:101E4000017F948001001480017F94800100148040
:101E500001001480017F948001001480017F97802D
:101E600001001400017E140001001C0001FFF000BD
:101E700000000000000000000FFFFFE0080000204D
:101E8000080003A009FC03A0080003A009FC03A0AC
:101E9000080003A00800002008000020080000201F
:101EA00009FFF8200800002009FFF82008000020A2
:101EB00009FFF82008000020080000200FFFFFE0C5
:101EC0000000000000000000000000000000000012
:101ED00000000000000000000FFFFFE00C000060A9
:101EE0000A0000A009000120088002200840042008
:101EF000082008200810102008082020080C602066
:101F0000081AB020082388200840042008800220F6
:101F1000090001200A0000A00C0000600FFFFFE094
:101F200000000000000000000000000000000000B1
:101F3000000000000000000001FFFC0001E01E00A6
:101F400001E0DE0001E0DE0001E0DE0001E0DE0095
:101F500001E01E0001FFFE00018006000180060076
:101F60000180060001800600018006000180060055
:101F700001800600018006000180060001FFFE00CE
:101F80000000000000000000000000000000000051
:101F9000000000000000000003FFFF00020003003B
:101FA00002000300020003000200020003FFFF0022
:101FB00003FFFF0003F8FF0003F07F0003F07F0042
:101FC00003F07F0003F8FF0003FFFF0003FCFF00A6
:101FD00003FCFF0003FCFF0003FCFF0003FFFF0006
:101FE00000000000000000000000000000000000F1
:101FF00000000000000000000000000000000000E1
:102000000000000007FFFF8007FFFF8007FFFF8041
:1020100004F87C80048CC480058CC680058CC68046
:1020200004FCFC8004F87C8007FFFF8007FFFF8032
:1020300006FFFD800000000000000000000000001E
:102040000000000000000000000000000000000090
:102050000000000000000000000FC000003E300043
:10206000007E080000FE04000178020001F78200F3
:1020700002F8610003F0310003E3110003E31F00E5
:1020800002231F0002103F0001187E000107FE001E
:102090000081FC000041F8000031F000000FC0009A
:1020A0000000000000000000000000000000000030
:1020B0000000000000000000000FC0000031F00030
:1020C000005FF80000A7FC0001D9FE0001A7FE0098
:1020D00001D83E0003A01F0003A31F0003E31F005D
:1020E00003E31D0001E02E0001F03A0001FFEA00C9
:1020F00000FE7400007FC800003E3000000FC000EA
:1021000000000000000000000000000000000000CF
:10211000000000000000000001FFFE0001000200BE
:10212000017FFE000140060001400600014006005C
:102130000140060001400600014006000140060083
:10214000017FFE0001FFFE0001FFFF000100010012
:10215000036F798002DFBC800200008003FFFF80F4
:10216000000000000000000000000000000000006F
:10217000000000000000000000010000000100005D
:102180000003000000FE000001000000010000004C
:10219000010000001FFFFFC01000004010000040C1
:1021A00017BDEDC01000004017BDEDC0100000408D
:1021B000177EEDC010000040100000401FFFFFC060
:1021C000000000000000000000000000000000000F
:1021D000000000000000000000000000003FF000D0
:1021E00000400800004008000040080000407F0058
:1021F00000408980004088800380FF80000080804C
:1022000000008080000080800000808000008080CE
:10221000000080800000C1800000630000003E00DC
:1022200000000000000000000000000000000000AE
:10223000000000000000000000000000000000009E
:10224000000000000000000000000000000000008E
:10225000000000000000000000000000000000007E
:1022600001FFFF0001000100013FF9000100010032
:1022700001000900010001000100010001FFFF0051
:10228000000000000000000000000000000000004E
:102290000000000000010000000780000007C000EF
:1022A000000BA000000BA000000920000009200086
:1022B0000007C00000052000001A200000131000D5
:1022C00000129000001C7800001C3800001C380030
:1022D000001C3800001C3800000C3000000E70009C
:1022E0000006600000000000000000000000000088
:1022F00000000000000000000018700000257800B9
:102300000027F800001FF000007FE00000FF8000C1
:1023100001FF800001FC800000F2400000E220008C
:102320000001200000011000000090000000880063
:1023300000004400000024000000220000001C00F7
:10234000000000000000000000000000000000008D
:10235000000000000000000000000000000000007D
:102360000000000000001E0000002100000021000D
:1023700000004780000088000003078001EC210076
:102380000210DE00078300000084000000C8000087
:10239000079000000210000001E0000000000000B3
:1023A000000000000000000000000000000000002D
:1023B000000000000000000000000F0000001F806F
:1023C00000003F8000007F8000007F0000007E0052
:1023D0000001FC000000F800000160000002A00005
:1023E00000050000000A00000014000000280000A2
:1023F00000D0000001200000022000000240000088
:10240000018000000000000000000000000000004B
:10241000000FFC0000080600000BF7000008008019
:10242000000BFE800008008007FBFEC0064800C0CD
:10243000064B80C0064800C0065FFFC00650004043
:1024400006506F4006506F4006506F4006576F4071
:1024500006576F4006576F4007D0004007FFFFC088
:10246000000000000000000000000000000000006C
:10247000000000000000000000FFF00000803800B5
:1024800000803C0000803C000080040000800400CC
:10249000008004000080040003FFFF000200010030
:1024A0000FFFFFC0092480400924804009FF8040BD
:1024B00008000040080000400FFFFFC003FFFF00BE
:1024C000000000000000000000000000000000000C
:1024D00000000000000000000000000000000000FC
:1024E000000000000078000000780000007BE000A1
:1024F000007A2000007A200000FE3C0000800400EA
:1025000003BF7700020001000200010003FFFF008B
:1025100001FFFE0001FFFC0001FFFC0000FFF800CE
:1025200000000000000000000000000000000000AB
:10253000000000000000000000070000000D800007
:10254000001AC000001540000017400000124000B3
:102550000067300000D2580001974C00021742007B
:10256000021242000218C20003E73E0003E73E00E9
:10257000003DE000003DE000000000000018C00049
:10258000003DE000000A80000002000000000000A2
:10259000000000000000000000000000000000003B
:1025A00000000000000000000007000000380000EC
:1025B000007800000077FFC00037FDC0002FF80052
:1025C00003EFE7000467E8800893D0400991FE40DC
:1025D0000BD0FE40091010400420088003C0070003
:1025E00000000000000000000000000000000000EB
:1025F00000000000000000000000000000000000DB
:10260000000000000000000000000000000F0000BB
:1026100000080000001FF0000034300003E44F8089
:1026200006725CC00C5A946008C9A6200889FE2076
:10263000080820200C101060063018C003E0078046
:10264000000000000000000000000000000000008A
:10265000534420A361A1AFA49D0086A2A56F70A1E1
:1026600061A69DAF2000896F9D639F2058426565DC
:1026700000486967686573742B313864426D00489F
:102680006967682020202B313664426D004D6564F7
:1026900069756D202B313464426D004C6F772020BA
:1026A00020202B313264426D004C6F7765737420AB
:1026B0002B313064426D00A16FA9A26F63A49D000D
:1026C0005842656500486163A4706F9E9F9D0054E9
:1026D0005820506F776572206D57009D20A3617060
:1026E0006FA0AC008A63A42E4E20A36FA0AC9C2EDA
:1026F00000896F97A46F709DA465204E00A36FA002
:10270000AC9C6F9761A465A0AF00429765999DA4AA
:1027100065204E0086A2A56F70A161A69DAF206FB7
:10272000008B6F70A161A49D706F9761A29D650081
:1027300053442020A361A1AFA49D004865A420A319
:1027400061706FA0AF209D00436F787061A2009709
:10275000976F9920A361706FA0AF0080A06F9F9DBD
:10276000706F9761A4AC008A435441482E00439691
:10277000706F632063A765A4A79D9F61009FA26FF0
:10278000A36F9F0080A06F9F9D706F979F6100A3B4
:102790006FA0AC9C6F9761A465A0AF0043A165A238
:1027A0009DA4AC0063A765A4A79D9F6F9700746963
:1027B0006D65322D0074696D65312D00A16FA46FB8
:1027C00070322D00A16FA46F70312D0086A2A46518
:1027D000709761A0206D73009DA2A465709761A0A1
:1027E000AB008A63A461A26F979DA4AC00896F9728
:1027F000A46F702020A361706FA0AF00429765990D
:102800009DA46520A361706FA0AC0042584F820068
:102810006199A19DA29D63A47061A46F706100A5E0
:10282000619EA06F97209D205344004D65A2AE008D
:102830008961706FA0AC00A36FA0AC9C6F9761A47E
:1028400065A0AF008A63A461A26F979DA4AC204EDF
:1028500000896FA0AC9C6F9761A465A0AC00439603
:10286000706F63209961A2A2AB7800639D63A46539
:10287000A1AB00486163A4706F9E9F61008261A458
:1028800079209D20977065A1AF008A63A461A26F33
:10289000979DA4AC004380504F43004396706F63F4
:1028A000003D3D3D3D3D3D3D3D3D3D3D00896F99F8
:1028B0009FA0AEA79DA4AC20868A007963A4706F08
:1028C0009E63A4970042976563A49D2061997065FB
:1028D0006361005465A1A3657061A42E4300536534
:1028E000742041646472657373004E6574776F720F
:1028F0006B00436F6F7264696E61746F7220534C2A
:1029000000436F6F7264696E61746F722053480088
:1029100086488B4F2058426565004FA89D966B6195
:102920002097976F996100486163A4706F9E9F61C3
:102930002058426565004291584F8200566F6C7472
:1029400028562920004261756428424429004173B9
:10295000736F632028414929004368616E656C20CC
:102960002843482900494420284944290050414E21
:1029700020494420284F5029004E6574776F726BB0
:10298000284D592900419970656320868A204E00A0
:10299000419970656320A379A0ACA461004E657471
:1029A000776F726B2041646472657373204D5900B8
:1029B0006FA4A3706197A065A26120555342207057
:1029C0006F72740086A2A56F2058426565004D4560
:1029D00048942032004D454894203100808A8B8BEA
:1029E000455020898A43544F8721008945504589A5
:1029F0004F884845488645210042AB786F99004290
:102A0000976F9920004FA4A165A26100052AFF29B4
:102A1000F929EB29DC29D529CE29C429B0299D29FA
:102A20009029852979296D29652959294E29452912
:102A30003C29362927291A2910290129F228EA28B0
:102A4000DE28D328C528BB28AD28A1289B28952897
:102A50008A287D2873286B285E2851284428372827
:102A600030282B281F2810280B28FC27ED27E227C9
:102A7000D827CC27C427BC27B527AE27A4279C2757
:102A80008F2784277D276E2767275B274F274827B7
:102A90003B273027212714270A27FD26F126E42685
:102AA000DB26CF26C526C026B726A9269B268D263F
:102AB0007F26712666265A2650264D616E75666100
:102AC00063747572696E6720646174653A2000539F
:102AD000657269616C206E756D6265723A20000ADC
:102AE00056657273696F6E3A200050726F64756339
:102AF000743A20004F454D2049443A20000A4D6168
:102B00006E7566616374757265722049443A20007F
:102B100072656164434944206661696C656400665E
:102B2000616C73650A00747275650A006572617381
:102B30006553696E676C65426C6F636B3A20002069
:102B4000626C6F636B730A00666C617368457261D7
:102B5000736553697A653A2000204D4220284D4222
:102B6000203D20312C3030302C30303020627974D0
:102B70006573290A006361726453697A653A2000BB
:102B80006373642076657273696F6E206572726F0D
:102B9000720A0072656164435344206661696C6522
:102BA0006400706172742C626F6F742C747970653C
:102BB0002C73746172742C6C656E6774680A000AF9
:102BC000534420506172746974696F6E205461625D
:102BD0006C650A000A4E6F204D42522E20417373DD
:102BE000756D696E6720537570657220466C6F70E5
:102BF000707920666F726D61742E0A00726561646F
:102C0000204D4252206661696C65640063616368AF
:102C100065436C656172206661696C65640064611E
:102C200074615374617274426C6F636B3A20004438
:102C30006F776E6C6F616420616E642075736520C0
:102C4000666F726D61747465722066726F6D207745
:102C500077772E736473642E6361726428292D3E26
:102C60006F72672F636F6E73756D6572210A0072E4
:102C70006F6F7444697253746172743A2000626CAD
:102C80006F636B735065724661743A2000666174BD
:102C9000436F756E743A2000666174537461727488
:102CA000426C6F636B3A2000204D4220284D422039
:102CB0003D20312C3030302C30303020627974653A
:102CC00073290A006672656553706163653A200076
:102CD00066726565436C7573746572733A20006340
:102CE0006C7573746572436F756E743A2000626C14
:102CF0006F636B73506572436C75737465723A20C1
:102D000000446174612061726561206973206E6F97
:102D10007420616C69676E6564206F6E20666C61FB
:102D2000736820657261736520626F756E6461728D
:102D3000696573210A000A566F6C756D65206973A9
:102D400020464154000A46696C65205379737465C6
:102D50006D20696E697469616C697A6174696F6EFE
:102D6000206661696C65642E0A004F43523A200068
:102D70000A726561644F4352206661696C65640044
:102D8000556E6B6E6F776E0A00534458430A0053BA
:102D90004448430A005344320A005344310A000AAB
:102DA0004361726420747970653A20000A696E6923
:102DB000742074696D653A006361726453697A6561
:102DC000206661696C6564000A63617264426567CC
:102DD000696E206661696C6564001010208F0000C8
:102DE00000000000000000000000000000000000E3
:102DF00000000000000000000000000000000000D3
:102E0000000007000F800F800F800F800F800700E9
:102E10000700000000000700070007000000000096
:102E20000E380E380E380E38063000000000000054
:102E30000000000000000000000000000000000092
:102E40000C300C300C307FFE7FFE0C300C300C3020
:102E50000C307FFE7FFE0C300C300C300000000088
:102E6000024002400FF81FF81A401A401FF00FF8F6
:102E7000025802581FF81FF00240024000000000F4
:102E8000000000000E100E300E7000E001C0038044
:102E900007000E700C7008700000000000000000B9
:102EA00000000F001980198019800F000F080F987B
:102EB00019F818F018E019F00F9800000000000051
:102EC00000000700070007000E00000000000000DF
:102ED00000000000000000000000000000000000F2
:102EE000000000F001C0038007000E000E000E007D
:102EF0000E000700038001C000F000000000000089
:102F000000000F00038001C000E00070007000703E
:102F1000007000E001C003800F000000000000000E
:102F2000000001801188099007E007E03FFC3FFCAA
:102F300007E007E009901188018000000000000010
:102F40000000000000000180018001800FF00FF000
:102F500001800180018000000000000000000000EE
:102F60000000000000000000000000000000000061
:102F7000000000000700070007000E00000000002E
:102F80000000000000000000000000001FF81FF813
:102F90000000000000000000000000000000000031
:102FA0000000000000000000000000000000000021
:102FB00000000000070007000700000000000000FC
:102FC000000000020006000E001C0038007000E047
:102FD00001C0038007000E001C000000000000007C
:102FE00000000FF01C381C781CF81CF81DB81DB828
:102FF0001F381F381E381C380FF00000000000007A
:1030000000000180018003801F801F8003800380F7
:1030100003800380038003801FF000000000000095
:1030200000000FE01C701C380038007000E001C088
:10303000038007000E381C381FF800000000000055
:1030400000000FE01C701C380038007003C003C083
:10305000007000381C381C700FE0000000000000F9
:10306000000000E001E003E006E00CE018E01FF8DB
:103070001FF800E000E000E003F80000000000009E
:1030800000001FF81C001C001C001C001FE01FF0AB
:10309000007800381C381C700FE0000000000000B1
:1030A000000003E007000E001C001C001FF01FF8CA
:1030B0001C381C381C381C380FF0000000000000C1
:1030C00000001FFC1C1C1C1C1C1C001C0038007079
:1030D00000E001C0038003800380000000000000C6
:1030E00000000FF01C381C381C381F3807E007E0C0
:1030F0001CF81C381C381C380FF0000000000000C1
:1031000000000FF01C381C381C381C381FF80FF852
:1031100000380038007000E007C000000000000028
:103120000000000000000380038003800000000016
:103130000380038003800000000000000000000006
:1031400000000000000003800380038000000000F6
:1031500003800380038007000000000000000000DF
:10316000007000E001C0038007000E001C001C007E
:103170000E000700038001C000E0007000000000A6
:1031800000000000000000003FFC3FFC00000000C9
:103190003FFC3FFC000000000000000000000000B9
:1031A0001C000E000700038001C000E000700070EA
:1031B00000E001C0038007000E001C0000000000BA
:1031C00003C00FF01E7818380038007000E001C00E
:1031D00001C00000000001C001C001C000000000EB
:1031E0000FF81C1C1C1C1C1C1C1C1CFC1CFC1CFCB0
:1031F0001CFC1C001C001C001FF007F80000000055
:10320000000003C007E00E701C381C381C381C3846
:103210001FF81C381C381C381C3800000000000047
:1032200000001FF00E380E380E380E380FF00FF079
:103230000E380E380E380E381FF000000000000067
:10324000000007F00E381C381C001C001C001C007D
:103250001C001C001C380E3807F0000000000000A5
:1032600000001FE00E700E380E380E380E380E3883
:103270000E380E380E380E701FE0000000000000FF
:1032800000001FF80E180E080E000E300FF00FF0A1
:103290000E300E000E080E181FF80000000000008F
:1032A00000001FF80E180E080E000E300FF00FF081
:1032B0000E300E000E000E001F0000000000000087
:1032C000000007F00E381C381C381C001C001C00C5
:1032D0001CF81C381C380E3807F8000000000000ED
:1032E00000001C701C701C701C701C701FF01FF004
:1032F0001C701C701C701C701C7000000000000012
:1033000000000FE0038003800380038003800380BC
:1033100003800380038003800FE0000000000000B2
:10332000000001FC00700070007000700070007000
:1033300038703870387038700FE0000000000000FE
:1033400000001E380E380E700EE00FC00F800F8088
:103350000FC00EE00E700E381E3800000000000096
:1033600000001F000E000E000E000E000E000E00EA
:103370000E000E080E180E381FF8000000000000A6
:1033800000001C1C1E3C1F7C1FFC1FFC1DDC1C9C29
:103390001C1C1C1C1C1C1C1C1C1C00000000000015
:1033A00000001C1C1C1C1E1C1F1C1F9C1DDC1CFC6C
:1033B0001C7C1C3C1C1C1C1C1C1C00000000000075
:1033C000000003E007F00E381C1C1C1C1C1C1C1CFD
:1033D0001C1C1C1C0E3807F003E00000000000005D
:1033E00000001FF00E380E380E380E380FF00FF0B8
:1033F0000E000E000E000E001F0000000000000076
:10340000000003E00F780E381C1C1C1C1C1C1C1C2C
:103410001C7C1CFC0FF80FF8003800FC00000000BA
:1034200000001FF00E380E380E380E380FF00FF077
:103430000E700E380E380E381E38000000000000E6
:1034400000000FF01C381C381C381C000FE007F07F
:1034500000381C381C381C380FF000000000000039
:1034600000001FFC19CC11C401C001C001C001C083
:1034700001C001C001C001C007F000000000000051
:1034800000001C701C701C701C701C701C701C7068
:103490001C701C701C701C700FE00000000000000D
:1034A00000001C701C701C701C701C701C701C7048
:1034B0001C701C700EE007C00380000000000000BC
:1034C00000001C1C1C1C1C1C1C1C1C1C1C9C1C9C74
:1034D0001C9C0FF80FF80770077000000000000038
:1034E00000001C701C701C700EE007C0038003807D
:1034F00007C00EE01C701C701C7000000000000073
:1035000000001C701C701C701C701C700EE007C04A
:1035100003800380038003800FE0000000000000B0
:1035200000001FF81C381838107000E001C003803C
:1035300007000E081C181C381FF8000000000000CF
:10354000000007F00700070007000700070007005A
:10355000070007000700070007F000000000000058
:103560000000100018001C000E000700038001C0BE
:1035700000E000700038001C0007000000000000A0
:10358000000007F0007000700070007000700070A4
:10359000007000700070007007F000000000000074
:1035A000018003C007E00E701C380000000000001E
:1035B000000000000000000000000000000000000B
:1035C00000000000000000000000000000000000FB
:1035D000000000000000000000007FFF7FFF0000EF
:1035E00000001C001C000700070000000000000095
:1035F00000000000000000000000000000000000CB
:10360000000000000000000000000FE000700070EB
:103610000FF01C701C701C700FD800000000000020
:1036200000001E000E000E000E000FF00E380E38C7
:103630000E380E380E380E381BF000000000000067
:10364000000000000000000000000FE01C701C7073
:103650001C001C001C701C700FE00000000000002B
:10366000000000F80070007000700FF01C701C70FB
:103670001C701C701C701C700FD800000000000033
:10368000000000000000000000000FE01C701C7033
:103690001FF01C001C701C700FE0000000000000F8
:1036A000000003E007700770070007001FE01FE03D
:1036B00007000700070007001FC00000000000000F
:1036C000000000000000000000000FD81C701C70FB
:1036D0001C701C700FF007F000701C700FE00000F1
:1036E00000001E000E000E000E000EF00F380F3806
:1036F0000E380E380E380E381E380000000000005C
:10370000000001C001C001C000000FC001C001C025
:1037100001C001C001C001C00FF80000000000009E
:103720000000007000700070000003F00070007076
:1037300000700070007000701C700CF007E000005A
:1037400000001E000E000E000E000E380E700EE07F
:103750000FC00EE00E700E381E3800000000000092
:1037600000000FC001C001C001C001C001C001C004
:1037700001C001C001C001C00FF80000000000003E
:10378000000000000000000000001FF81C9C1C9CB2
:103790001C9C1C9C1C9C1C9C1C9C00000000000091
:1037A000000000000000000000001FE01C701C7002
:1037B0001C701C701C701C701C700000000000004D
:1037C000000000000000000000000FE01C701C70F2
:1037D0001C701C701C701C700FE0000000000000CA
:1037E000000000000000000000001BF00E380E3842
:1037F0000E380E380E380FF00E000E001F000000BD
:10380000000000000000000000001FB038E038E0B9
:1038100038E038E038E01FE000E000E001F00000B0
:10382000000000000000000000001EF00FF80F383C
:103830000E000E000E000E001F0000000000000031
:10384000000000000000000000000FE01C301C30F1
:103850000F8003E0187018700FE0000000000000F7
:10386000000000000100030007001FF00700070030
:10387000070007000770077003E000000000000069
:10388000000000000000000000001C701C701C7094
:103890001C701C701C701C700FD800000000000011
:1038A000000000000000000000001C701C701C7074
:1038B0001C701C700EE007C00380000000000000B8
:1038C000000000000000000000001C1C1C1C1C1C50
:1038D0001C9C1C9C0FF80770077000000000000083
:1038E000000000000000000000001CE01CE00FC011
:1038F000078007800FC01CE01CE0000000000000F3
:10390000000000000000000000000E380E380E38E5
:103910000E380E3807F003E000E001C01F80000001
:10392000000000000000000000001FE018E011C0CF
:10393000038007000E201C601FE000000000000054
:10394000000001F803800380038007001C001C00B6
:10395000070003800380038001F8000000000000DE
:1039600001C001C001C001C001C001C001C001C04F
:1039700001C001C001C001C001C001C000000000C1
:1039800000001F8001C001C001C000E00038003805
:1039900000E001C001C001C01F8000000000000065
:1039A00000001F1C3B9C39DC38F8000000000000C0
:1039B0000000000000000000000000000000000007
:1039C000000000F001F80198019801F800F00000F3
:1039D00000000000000000000000000000000000E7
:1039E00000001FF80E180E080E000E000FF00E3823
:1039F0000E380E380E380E381FF0000000000000A0
:103A000000001FF80E180E080E000E000E000E002B
:103A10000E000E000E000E001F000000000000004F
:103A2000000007F00C701C701C701C701C701C7067
:103A30001C701C701C701C703FF830182008066049
:103A400000001FF80E180E080E000E300FF00FF0D9
:103A50000E300E000E080E181FF8000000000000C7
:103A6000000033CC1998199819980DB00FF00FF089
:103A70001DB819981998199833CC0000000000005F
:103A8000000017E01E701C381038007003C003C01F
:103A9000007000381C381C700FE0000000000000AF
:103AA00000001C701C701C701C701C701C701CF0C2
:103AB0001DF01F701E701C701C7000000000038041
:103AC00000001C701C701C701C701C701C701CF0A2
:103AD0001DF01F701E701C701C70000000000000A4
:103AE000000003F006700E700E700E700E700E70F7
:103AF0000E700E700E700E701C7000000000000042
:103B000000001FF01C701C701C701C701C701C705E
:103B10001C701C701C701C701C70000000000000E9
:103B200000001C701C701C701C701C701C700FF04E
:103B300007F0007000701CE00FC0000000000000E3
:103B400000001FF0339833983398339833983398A4
:103B500033981FF00380038007C0000000000000BE
:103B600000001C701C701C701C701C701C701C7081
:103B70001C701C701C701C701FF8001800080000DE
:103B800000001C701C701C701C701C701C701FF0DE
:103B90000FF0007000700070007000000000000066
:103BA0000000399C399C399C399C399C399C399C42
:103BB000399C399C399C399C3FFC00000000000076
:103BC0000000399C399C399C399C399C399C399C22
:103BD000399C399C399C399C3FFE0006000200004C
:103BE00000003F002E002E000E000E000FF00E38D9
:103BF0000E380E380E380E381FF00000000000009E
:103C00000000381C381C381C381C381C3F9C39DC20
:103C100039DC39DC39DC39DC3F9C00000000000075
:103C200000001F000E000E000E000E000FF00E38F8
:103C30000E380E380E380E381FF00000000000005D
:103C400000000FE01C701C380038003803F803F83F
:103C5000003800381C381C700FE000000000000025
:103C600000003CF81D9C1D9C1D9C1D9C1F9C1F9CC6
:103C70001D9C1D9C1D9C1D9C3CF80000000000002C
:103C800000000FF81C701C701C701C701C701FF062
:103C90000FF01C701C701C703878000000000000D1
:103CA0000000001807F80F000E000E000FF00E388D
:103CB0000E380E380E380E3807F0000000000000F5
:103CC000000000000000000000001FF00E380E3859
:103CD0000FF00E380E380E381FF000000000000004
:103CE000000000000000000000001FF81C381C004D
:103CF0001C001C001C001C001C0000000000000038
:103D00000000000000000000000007F00E700E70C0
:103D10000E700E700E700E701FF81008000000007C
:103D200000000000000006C000000FE01C701C70C6
:103D30001FF01C001C701C700FE000000000000051
:103D40000000000000000000000019CC19CC19CCC4
:103D50000DD807F00DD819CC19CC000000000000D8
:103D6000000000000000000000000FE01C70007068
:103D700003E0007000701C700FE000000000000005
:103D8000000000000000000000001C701C701C708F
:103D90001CF01D701E701C701C70000000000000E4
:103DA00000000000000001C000000E380E380E3880
:103DB0000E780EB80F380E380E38000000000000E4
:103DC000000000000000000000000E380E380E70E9
:103DD0000FE00E700E380E380E38000000000000A4
:103DE0000000000000000000000003F8073807385A
:103DF00007380738073807380E3800000000000081
:103E00000000000000000000000038383838383862
:103E10003C783AB8393838383838000000000000AB
:103E2000000000000000000000001C701C701C70EE
:103E30001C701FF01C701C701C7000000000000043
:103E4000000000000000000000001FF01C701C704B
:103E50001C701C701C701C701C70000000000000A6
:103E6000000000000000000000001FF0139003801D
:103E700003800380038003800380000000000000B3
:103E8000000000000000000003801FF03BB83BB8BA
:103E90003BB83BB80FF003800380038000000000B4
:103EA000000000000000000000001C701C701C706E
:103EB0001C701C701C701C701FF8001800000000A3
:103EC000000000000000000000001C701C701C704E
:103ED0001C700FF000700070007000000000000007
:103EE00000000000000000000000399C399C399C53
:103EF000399C399C399C399C3FFC00000000000033
:103F000000000000000000000000399C399C399C32
:103F1000399C399C399C399C3FFE0006000000000A
:103F2000000000000000000000003E002E000E0017
:103F30000FF00E380E380E380FF0000000000000B1
:103F400000000000000000000000381C381C381C75
:103F50003F9C39DC39DC39DC3F9C0000000000006C
:103F6000000000000000000000000E000E000E0027
:103F70000FF00E380E380E380FF000000000000071
:103F8000000000000000000000000FE01C70007046
:103F900003F0007000701C700FE0000000000000D3
:103FA0000000000000000000000038F8399C399C37
:103FB000399C3F9C399C399C38F800000000000077
:103FC0000000000000000000000007F80E380E3866
:103FD0000E3807F80E380E381C3800000000080CA8
:103FE00020A600000000000000000000000000000B
:103FF0002020202020200020000000285050000019
:1040000000000000000000002828FC2850FC505050
:104010000000002078A8A0603028A8F02000000050
:1040200048A8B05028345448000000002050507870
:10403000A8A8906C00000040408000000000000034
:1040400000000004081010101010100804000040B8
:104050002010101010101020400000000020A87048
:1040600070A8200000000000202020F82020200060
:104070000000000000000000000000404080000040
:10408000000000F800000000000000000000000038
:1040900000000040000000081010102020404040A8
:1040A0008000000070888888888888700000000080
:1040B00020602020202020700000000070888810E0
:1040C000204080F8000000007088083008088870E0
:1040D00000000000103050509078101800000000D0
:1040E000F88080F00808887000000000709080F070
:1040F0008888887000000000F89010202020202080
:1041000000000000708888708888887000000000B7
:10411000708888887808487000000000000020003F
:10412000000000200000000000000020000000202F
:1041300020000004081020402010080400000000A7
:104140000000F80000F80000000000402010080403
:1041500008102040000000007088881020200020F7
:1041600000000000708898A8A8B8807800000000BF
:1041700020203050507848CC00000000F0484870B3
:10418000484848F00000000078888080808088706F
:1041900000000000F0484848484848F0000000008F
:1041A000F8485070504048F800000000F84850703F
:1041B000504040E000000000384880809C88483033
:1041C00000000000CC484878484848CC0000000077
:1041D000F8202020202020F8000000007C10101083
:1041E00010101090E0000000EC485060505048EC77
:1041F00000000000E0404040404044FC000000005F
:10420000D8D8D8D8A8A8A8A800000000DC486868BA
:10421000585848E8000000007088888888888870AE
:1042200000000000F0484870404040E000000000FE
:104230007088888888E8987018000000F0484870F6
:10424000504848EC0000000078888060100888F032
:1042500000000000F8A820202020207000000000AE
:10426000CC4848484848483000000000CC484850F6
:104270005030202000000000A8A8A87050505050D6
:1042800000000000D8505020205050D800000000FE
:10429000D85050202020207000000000F8901020FE
:1042A000204048F800000038202020202020202036
:1042B000380000404040202010101008000000701E
:1042C000101010101010101070000020500000008E
:1042D00000000000000000000000000000000000DE
:1042E00000FC0020000000000000000000000000B2
:1042F000000000304838483C00000000C0404070DA
:10430000484848700000000000000038484040382D
:1043100000000000180808384848483C0000000029
:104320000000003048784038000000001C20207851
:1043300020202078000000000000003C4830407839
:1043400044380000C0404070484848EC000000007D
:1043500020000060202020700000000010000030CD
:104360001010101010E00000C040405C507048EC8D
:1043700000000000E0202020202020F800000000A5
:10438000000000F0A8A8A8A800000000000000F0AD
:10439000484848EC00000000000000304848483021
:1043A00000000000000000F04848487040E00000B5
:1043B0000000003848484838081C0000000000D8B9
:1043C000604040E0000000000000007840300878C5
:1043D00000000000002020702020201800000000B5
:1043E000000000D84848483C00000000000000ECF5
:1043F0004850302000000000000000A8A870505075
:1044000000000000000000D8502050D8000000003C
:10441000000000EC4850302020C000000000007870
:10442000102020780000001810101020101010101C
:104430001800101010101010101010101010006044
:104440002020201020202020600040A41800000020
:10445000000000000000000030484830000000006C
:1044600000000000F8484070484848F00000000094
:10447000F8484040404040E00000000038484848CC
:10448000484848FC84005000F8485070504048F8B4
:1044900000000000A8A8A870F8A8A8A800000000C4
:1044A000F0880830080808F000000000EC48585870
:1044B000686848DC00003000EC485858686848DC00
:1044C000000000003C484848484848CC0000000034
:1044D000FC484848484848CC00000000D8505020CC
:1044E000204040800000000070A8A8A8A87020709C
:1044F00000000000CC484848484848FC0400000040
:10450000CC4848483808081C00000000D6545454D1
:10451000545454FE00000000D6545454545454FED5
:1045200002000000E0C04070484848F00000000071
:10453000EE444464545454EE00000000E0404070E7
:10454000484848F000000000E090083808089060F3
:1045500000000000EC525252725252EC0000000077
:104560003C4848483848489C0000000008304070EB
:1045700048484830000000000000007028302870D3
:1045800000000000000000782820207000000000DB
:10459000000000182828287C440000000028003073
:1045A0004878403000000000000000545438545453
:1045B00000000000000000700830087000000000DB
:1045C000000000CC485868CC00000000003000CC4F
:1045D000485868CC00000000000000485060504877
:1045E000000000000000001C2828284C00000000EB
:1045F000000000446C54444400000000000000CC63
:10460000487848CC00000000000000FC484848CC36
:10461000000000000000007C541010380000000072
:10462000000000385454543810380000000000CC0A
:10463000484848FC04000000000000CC4838080C42
:1046400000000000000000545454547C000000009E
:10465000000000545454547E02000000000000E0AA
:10466000A030287000000000000000C6446454E63A
:1046700000000000000000602030287000000000F2
:10468000000000304818483000000000000000C85A
:10469000547454C8000000000000003C4848384CE6
:1046A00000003CE781BD81BD81BD81BD81FF3CE74C
:1046B000818181BD81BD81BD81FF3CE78181818197
:1046C00081BD81BD81FF3CE781818181818181BD87
:1046D00081FF3CE7818181818181818181FFFFFFB1
:1046E000003F3F000F0F000303000000003F3F00AA
:1046F0000F0F000303000000000000000F0F000375
:1047000003000000000000000000000303000000A0
:104710001010101010543810000000001038541001
:104720001010101000000000000010087C0810009D
:1047300000000000000010207C201000000000009D
:10474000003C0C142444800000000000008044243D
:10475000140C3C00000000003C42A581A599423C9D
:10476000000000003C7EDBFFFFDB663C0000000039
:104770003C42A58199A5423C000000003C7EDBFF45
:10478000FFE75A3C000000003C4281818181423CAD
:10479000000000003C7EFFFFFFFF7E3C00000000A9
:1047A000FF818181818181FF00000000FFFFFFFF09
:1047B000FFFFFFFF00005344206572726F723A20C2
:1047C000006572726F723A2000436C656172204618
:1047D00041542F44495220777269746553746F7045
:1047E000206661696C656400436C656172204641B6
:1047F000542F444952207772697465446174612072
:104800006661696C656400436C6561722046415461
:104810002F44495220777269746553746172742011
:104820006661696C6564007772697465204D4252F7
:10483000004D42522043485300636172642E62650A
:1048400067696E206661696C6564000A534420697B
:104850006E697469616C697A6174696F6E206661F2
:10486000696C757265210A49732074686520534428
:10487000206361726420696E73657274656420637D
:104880006F72726563746C793F0A4973206368695B
:10489000702073656C65637420636F7272656374F6
:1048A0002061742074686520746F70206F662074B6
:1048B0006869732070726F6772616D3F0A00426CA5
:1048C0006F636B732F436C75737465723A2000438A
:1048D00061726420697320746F6F20736D616C6CFA
:1048E0002E0046415431362072657365727665201C
:1048F0006661696C6564004641543136207772699F
:10490000746520504253206661696C6564004261A1
:104910006420636C757374657220636F756E7400C8
:104920004641543332207265736572766520666144
:10493000696C6564004641543332204653494E4603
:104940004F206661696C65640046415433322050E3
:10495000425320657874206661696C656400464145
:104960005433322077726974652050425320666157
:10497000696C65640042616420636C757374657270
:1049800020636F756E740043796C696E6465727331
:104990003A200048656164733A2000636C75737453
:1049A0006572436F756E743A2000536563746F725D
:1049B000733A20006461746153746172743A200028
:1049C00066617453697A653A200066617453746154
:1049D00072743A200072657365727665643A2000DD
:1049E0007061727453697A653A2000706172745311
:1049F000746172743A20004672656552616D3A20A6
:104A00000046415433320A0046415431360A0046CA
:104A10006F726D617474696E670A00466F726D61C2
:104A20007420646F6E650A00204D422C20284D4290
:104A3000203D20312C3034382C35373620627974C3
:104A400065732900436172642053697A653A2000D6
:104A50006361726453697A650042494720464C5449
:104A6000001F1C1F1E1F1E1F1F1E1F1E1F000021B8
:104A700000240027002A002D00300033000101002F
:104A800000040107010A010000200023002600297C
:104A9000002C002F00320000010000030106010974
:104AA0000100000A0B02090C0D0E080703040100A7
:104AB00000000000000000000000000000000000F6
:104AC00000000000000000000000000000121110B3
:104AD00000000000000000000000000000000000D6
:104AE0000000000000000001021020200808102033
:104AF000401020408002010201080402010102046A
:104B00000810204080804020100804020180040228
:104B1000018040201008040201080402010102047F
:104B2000081020408001020408102040800000226C
:104B300000250028002B002E003100340002010067
:104B400000050108010B0105050505070508080812
:104B500008020202020A0A0808040404040101010E
:104B60000101010101030303030303030304070716
:104B7000070C0C0C0C0C0C0C0C02020202060606B4
:104B800006060606060B0B0B0B0B0B0B0B534420F8
:104B90006572726F72446174613A200053442065FB
:104BA00072726F72436F64653A20000066E61124EA
:104BB0001FBECFEFD1E2DEBFCDBF00E00CBF17E0DC
:104BC000A0E0B2E0ECEBF7EE01E00BBF02C0079013
:104BD0000D92A63CB107D9F723E1A6ECB7E001C0DE
:104BE0001D92A73BB207E1F715E2C7EDD5E200E061
:104BF00006C021970109802FFE010E94C0F2C63D28
:104C0000D10780E00807A9F70E9424D30C94DCF3B5
:104C10000C9400002F923F924F925F926F927F927E
:104C20008F929F92AF92BF92CF92DF92EF92FF92BC
:104C30000F931F93CF93DF93CDB7DEB766970FB671
:104C4000F894DEBF0FBECDBF1092B61261E0809126
:104C5000D7120E9457B161E08091D8120E9457B1DB
:104C600061E08091D9120E9457B18091DA128F3F92
:104C700019F061E00E9457B18091C012813131F08A
:104C8000813049F48091C112853029F461E080912E
:104C9000DB120E9457B18091C012813079F08131CE
:104CA00031F09FEF91B9803149F497B907C088E19D
:104CB0008093010180E283BB8BE38DB9E091C81240
:104CC000F091C91290818091D312892B808365E085
:104CD00070E080E090E00E94D7B1E091C812F091BE
:104CE000C91290818091D3128095892380836FE0CF
:104CF00070E080E090E00E94D7B1E091C812F0919E
:104D0000C91290818091D312892B80836FE070E06B
:104D100080E090E00E94D7B1E091C612F091C712F6
:104D200090818091D2128095892380838091BF12D7
:104D300090E08032910510F00C943947FC018827EF
:104D4000EE58FF4F8F4F0C94C0F244EA50E066E4F7
:104D500082EB92E10E9460A143E550E067E482EBC0
:104D600092E10E9460A140E050E068E482EB92E1B1
:104D70000E9460A144E450E069E482EB92E10E9469
:104D800060A144E050E06AE482EB92E10E9460A1FD
:104D900047E650E06BE482EB92E10E9460A143E3BE
:104DA00050E06CE482EB92E10E9460A147E750E0A2
:104DB0006DE482EB92E10E9460A142E150E06EE47A
:104DC00082EB92E10E9460A14CE450E06FE482EB40
:104DD00092E10E9460A146E450E060E582EB92E13E
:104DE0000E9460A144E450E061E582EB92E10E9400
:104DF00060A140E050E062E082EB92E10E9460A19D
:104E000040E050E063E082EB92E10E9460A140E06C
:104E100050E064E082EB92E10E9460A14FEE50E02E
:104E200065E082EB92E10E9460A140E050E066E024
:104E300082EB92E10E9460A140E050E067E082EBEB
:104E400092E10E9460A141E050E068E082EB92E1D3
:104E50000E9460A14FE350E069E082EB92E10E9482
:104E600060A146E050E061E082EB92E10E9460A127
:104E700048EC50E066E182EB92E10E9460A145E9D6
:104E800050E063E282EB92E10E9460A145E950E0CC
:104E900064E282EB92E10E9460A14FEF50E065E294
:104EA00082EB92E10E9460A142E050E067E282EB77
:104EB00092E10E9460A142E050E068E282EB92E160
:104EC0000E9460A142E050E069E282EB92E10E9420
:104ED00060A142E050E06AE282EB92E10E9460A1B0
:104EE00042E050E06CE282EB92E10E9460A142E07D
:104EF00050E06DE282EB92E10E9460A141E050E05F
:104F00006AE382EB92E10E9460A140E050E06BE333
:104F100082EB92E10E9460A140EF50E06CE382EBF3
:104F200092E10E9460A140E050E06DE382EB92E1EB
:104F30000E9460A161E070E080E090E00E94D7B143
:104F400048E350E065E382EB92E10E9460A148E70C
:104F500050E066E382EB92E10E9460A148E350E0FA
:104F60006EE382EB92E10E9460A14FE050E060E4CA
:104F700082EB92E10E9460A140EF50E061E482EB9D
:104F800092E10E9460A149E450E069E182EB92E184
:104F90000E9460A14FE050E063E982EB92E10E9441
:104FA00060A161E070E080E090E00E94D7B140E451
:104FB00050E060E282EB92E10E9460A147E050E0A5
:104FC0006DE182EB92E10E9460A140E050E06EE171
:104FD00082EB92E10E9460A144E050E06FE182EB3D
:104FE00092E10E9460A14DE450E064E482EB92E122
:104FF0000E9460A14EE050E065E482EB92E10E94E5
:1050000060A161E070E080E090E00E94D7B144E0F0
:1050100050E06CE182EB92E10E9460A162E070E0FE
:1050200080E090E00E94D7B148E150E06BE182EB74
:1050300092E10E9460A161E070E080E090E00E9457
:10504000D7B140E150E06BE182EB92E10E9460A1B8
:1050500061E070E080E090E00E94D7B140E850E06D
:1050600063E482EB92E10E9460A162E070E080E084
:1050700090E00E94D7B14FE750E060E982EB92E107
:105080000E9460A144E050E066E282EB92E10E945F
:1050900060A161E070E080E090E00E94D7B144E25E
:1050A00050E066E282EB92E10E9460A14CE250E0A7
:1050B00066E282EB92E10E9460A161E070E080E034
:1050C00090E00E94D7B14CE350E066E282EB92E1BF
:1050D0000E9460A142E050E067E582EB92E10E940D
:1050E00060A141E050E065E982EB92E10E9460A19D
:1050F00040E050E067E50C94553F69EE82EB92E1A9
:105100000E9447A140E260E082EB92E10E9421A16F
:1051100061E182EB92E10E9447A164E670E080E0E9
:1051200090E00E94D7B161ED82EB92E10E9447A12D
:1051300040E060E082EB92E10E9421A141E760E063
:1051400082EB92E10E9421A149E160E082EB92E1D1
:105150000E9421A160ED82EB92E10E9447A147E00D
:1051600060E082EB92E10E9421A141E060E082EBED
:1051700092E10E9421A148E060E082EB92E10E946E
:1051800021A166E382EB92E10E9447A148E460E03E
:1051900082EB92E10E9421A16AE382EB92E10E94FC
:1051A00047A145E060E082EB92E10E9421A161EC21
:1051B00082EB92E10E9447A140E160E082EB92E144
:1051C0000E9421A140E160E082EB92E10E9421A1D6
:1051D00042E060E082EB92E10E9421A142E060E0C7
:1051E00082EB92E10E9421A160EC82EB92E10E94AD
:1051F00047A140E060E082EB92E10E9421A145E3FB
:1052000060E082EB92E10E9421A140E060E082EB4D
:1052100092E10E9421A140E060E082EB92E10E94D5
:1052200021A141E060E082EB92E10E9421A142E0F5
:1052300060E082EB92E10E9421A165EC82EB92E1B9
:105240000E9447A144E060E082EB92E10E9421A12C
:1052500062ED82EB92E10E9447A141E060E082EBC7
:1052600092E10E9421A144E460E082EB92E10E947D
:1052700021A168EC82EB92E10E9447A144E060E04A
:1052800082EB92E10E9421A147E660E082EB92E18D
:105290000E9421A145E360E082EB92E10E9421A1FE
:1052A00044E060E082EB92E10E9421A148E060E0EE
:1052B00082EB92E10E9421A146E060E082EB92E164
:1052C0000E9421A144E260E082EB92E10E9421A1D0
:1052D00041E060E082EB92E10E9421A147E360E0BF
:1052E00082EB92E10E9421A140E460E082EB92E136
:1052F0000E9421A143E060E082EB92E10E9421A1A3
:1053000040E160E082EB92E10E9421A148E060E090
:1053100082EB92E10E9421A140E860E082EB92E101
:105320000E9421A140E060E082EB92E10E9421A175
:105330006AE282EB92E10E9447A140E060E082EBEA
:1053400092E10E9421A140E060E082EB92E10E94A4
:1053500021A140E060E082EB92E10E9421A14FEEAA
:1053600060E082EB92E10E9421A16BE282EB92E18C
:105370000E9447A140E060E082EB92E10E9421A1FF
:1053800040E060E082EB92E10E9421A141E060E018
:1053900082EB92E10E9421A14FE860E082EB92E172
:1053A0000E9421A169E282EB92E10E9447A16CE296
:1053B00082EB92E10E9447A10C94394741E050E012
:1053C00060E082EB92E10E9460A144EA58EA63E067
:1053D00082EB92E10E9460A140E050E06CE082EB41
:1053E00092E10E9460A14CE058E06DE082EB92E116
:1053F0000E9460A140E05BE26EE082EB92E10E94DD
:1054000060A147EB50E06EE182EB92E10E9460A167
:105410004FE35BE261E082EB92E10E9460A140E039
:1054200056E062E082EB92E10E9460A140E050E031
:1054300060E182EB92E10E9460A140E750E661E109
:1054400082EB92E10E9460A140E050E065E082EBD7
:1054500092E10E9460A140E050E066E082EB92E1C0
:105460000E9460A14CE15FEE66E182EB92E10E9456
:1054700060A143E050E067E182EB92E10E9460A10D
:1054800043E352E067E082EB92E10E9460A140E0DA
:1054900050E06BE082EB92E10E9460A140E050E0BE
:1054A0006FE082EB92E10E9460A140E050E061E495
:1054B00082EB92E10E9460A140E050E062E482EB66
:1054C00092E10E9460A140E050E068E482EB92E14A
:1054D0000E9460A14FE351E069E482EB92E10E94F7
:1054E00060A140E050E06AE482EB92E10E9460A19A
:1054F00040E050E06BE482EB92E10E9460A140E06A
:105500005FEE64E482EB92E10E9460A140E050E033
:1055100065E482EB92E10E9460A14FE351E066E412
:1055200082EB92E10E9460A147E057E060E382EBEA
:1055300092E10E9460A144E052E061E382EB92E1DB
:105540000E9460A144E052E062E382EB92E10E949B
:1055500060A142E055E063E382EB92E10E9460A12A
:1055600047E055E064E382EB92E10E9460A144E0F1
:1055700052E065E382EB92E10E9460A144E052E0D8
:1055800066E382EB92E10E9460A142E055E067E3AE
:1055900082EB92E10E9460A142E053E06AE382EB79
:1055A00092E10E9460A142E053E06BE382EB92E162
:1055B0000E9460A140E050E063E282EB92E10E9431
:1055C00060A140E050E064E282EB92E10E9460A1C1
:1055D00040E050E865E282EB92E10E9460A140E089
:1055E00050E06FE482EB92E10E9460A140E050E065
:1055F0006EE40C94553F40EF58E765EE82EB92E184
:105600000E9460A140E051E061E082EB92E10E94E3
:1056100060A140E057E062E082EB92E10E9460A16D
:1056200040E350E163E082EB92E10E9460A140E040
:1056300050E064E082EB92E10E9460A147E052E01A
:1056400068E082EB92E10E9460A140E050E069E0F6
:1056500082EB92E10E9460A140E050E06AE082EBC0
:1056600092E10E9460A140E050E06CE082EB92E1A8
:105670000E9460A140E050E06DE082EB92E10E9468
:1056800060A140E050E06FE082EB92E10E9460A1F7
:1056900040E050E060E182EB92E10E9460A147E0CF
:1056A00050E061E182EB92E10E9460A140E050E0B5
:1056B00062E182EB92E10E9460A140E050E063E190
:1056C00082EB92E10E9460A141E050E067E082EB52
:1056D00092E10E9460A168EC70E080E090E00E949E
:1056E000D7B140E950E160E182EB92E10E9460A114
:1056F00047E252E061E182EB92E10E9460A162E345
:1057000070E080E090E00E94D7B14FE150E062E1AC
:1057100082EB92E10E9460A162E370E080E090E0A1
:105720000E94D7B140E055E163E182EB92E10E9433
:1057300060A147E250E069E282EB92E10E9460A141
:105740004DE050E06BE282EB92E10E9460A162E3E7
:1057500070E080E090E00E94D7B140E050E060E26D
:1057600082EB92E10E9460A140E050E061E282EBB6
:1057700092E10E9460A140E050E060E382EB92E1A0
:105780000E9460A147E057E061E382EB92E10E9452
:1057900060A147E053E062E382EB92E10E9460A1E6
:1057A00040E052E065E382EB92E10E9460A148E0B4
:1057B00050E066E382EB92E10E9460A144E050E099
:1057C00067E382EB92E10E9460A140E050E068E371
:1057D00082EB92E10E9460A147E057E069E382EB2F
:1057E00092E10E9460A142E050E06CE382EB92E122
:1057F0000E9460A144E05DE16DE382EB92E10E94D2
:1058000060A140E050E060E582EB92E10E9460A17F
:105810004FEE50E061E582EB92E10E9460A140E032
:1058200050E062E582EB92E10E9460A14FE351E01B
:1058300063E582EB92E10E9460A140E057EA60E6F6
:1058400082EB92E10E9460A141E050E061E682EBD0
:1058500092E10E9460A140E050E06AE682EB92E1B2
:105860000E9460A140E050E060E882EB92E10E947B
:1058700060A140E050E061E882EB92E10E9460A10B
:1058800040E050E062E882EB92E10E9460A140E0DB
:1058900050E063E882EB92E10E9460A140E050E0BA
:1058A00064E882EB92E10E9460A140E050E065E88C
:1058B00082EB92E10E9460A140E150E060E982EB5E
:1058C00092E10E9460A140E056E06AC140EF58E7D3
:1058D00065EE82EB92E10E9460A140E051E061E060
:1058E00082EB92E10E9460A140E052E062E082EB34
:1058F00092E10E9460A140E350E163E082EB92E11B
:105900000E9460A140E050E064E082EB92E10E94DE
:1059100060A147E052E068E082EB92E10E9460A162
:1059200040E050E069E082EB92E10E9460A140E03B
:1059300050E06AE082EB92E10E9460A140E050E01A
:105940006CE082EB92E10E9460A140E050E06DE0EB
:1059500082EB92E10E9460A140E050E06FE082EBB8
:1059600092E10E9460A140E050E060E182EB92E1B0
:105970000E9460A147E050E061E182EB92E10E9469
:1059800060A140E050E062E182EB92E10E9460A100
:1059900040E050E063E182EB92E10E9460A141E0CF
:1059A00050E067E082EB92E10E9460A168EC70E059
:1059B00080E090E00E94D7B140E956E160E182EBDF
:1059C00092E10E9460A147E252E061E182EB92E144
:1059D0000E9460A162E370E080E090E00E94D7B195
:1059E0004DE050E062E182EB92E10E9460A162E34F
:1059F00070E080E090E00E94D7B140E052E163E1C6
:105A000082EB92E10E9460A14AE050E069E282EB01
:105A100092E10E9460A14DE050E06BE282EB92E1E6
:105A20000E9460A162E370E080E090E00E94D7B144
:105A300040E050E060E282EB92E10E9460A140E031
:105A400050E061E282EB92E10E9460A140E050E010
:105A500060E382EB92E10E9460A144E054E061E3E4
:105A600082EB92E10E9460A143E050E062E382EBAE
:105A700092E10E9460A145E054E065E382EB92E18F
:105A80000E9460A148E058E066E382EB92E10E9448
:105A900060A147E054E067E382EB92E10E9460A1DD
:105AA00043E053E068E382EB92E10E9460A147E0AB
:105AB00057E069E382EB92E10E9460A144E055E087
:105AC0006CE382EB92E10E9460A148E058E06DE354
:105AD00082EB92E10E9460A140E050E060E582EB41
