:1020000000800020393A0000213A0000213A000007
:1020100000000000000000000000000000000000C0
:10202000000000000000000000000000213A000055
:102030000000000000000000213A00008D3A00007E
:10204000213A0000213A0000213A0000213A000024
:10205000213A0000213A0000213A0000253A000010
:10206000213A00006D390000213A0000213A0000B9
:10207000213A0000213A00007D390000213A000099
:10208000213A0000213A0000213A0000213A0000E4
:1020900000000000213A0000213A0000213A00002F
:1020A000213A0000213A0000213A0000213A0000C4
:1020B0000000000010B5064C2378002B07D1054B1B
:1020C000002B02D0044800E000BF0123237010BDA4
:1020D00010010020000000009C67000008B5084BBC
:1020E000002B03D00748084900E000BF07480368F9
:1020F000002B03D0064B002B00D0984708BDC046EC
:10210000000000009C670000140100200401002072
:102110000000000008B5642001F0C6FC08BD000006
:102120001FB51823009308230193162302930A2155
:1021300009221723074800F03FFF032300930223DF
:102140000193062105220423034801F0B3FB05B0E7
:1021500000BDC046300100209C010020F0B53B4B83
:1021600000243B4E1C603B4D3B4B87B0301C211C78
:102170001C602C6000F093F9301C032100F066FE17
:102180002C60344B1B68032B5DDC304B00221A6043
:102190002E4E304D37682B68032F51DC37225343C6
:1021A0002B4C053300219BB20A1C0493201CFF23F7
:1021B00000F0F8FE37217943049B32271AB205312B
:1021C000052309B2019302903B1C201C009700F0EC
:1021D00016FC32683723534305332A689BB20493B5
:1021E000372353430533FF219BB20A1C0593201C60
:1021F0000B1C00F0D7FE049B029019B2059B201C1B
:102200001AB20523019300973B1C00F065FB32686E
:10221000372151432A6837235A431431143209B203
:1022200012B2201C00F00FFE0B4B201C19680A2272
:102230000131196001F03FFF336801333360A7E7D4
:1022400001332B609DE707B0F0BDC046940100202C
:1022500030010020980100202C01002038B5114CDD
:102260009621201C890102F047FA201C0E4901F03A
:10227000D3FE0E4D0121281C01F028FB281C022151
:1022800001F062FB201C0A4901F0C6FE094800214A
:1022900000F03EFFFFF762FF201C074901F0BCFE83
:1022A00038BDC046C4020020045A00009C01002032
:1022B000105A0000300100201E5A0000F0B587B00F
:1022C0001E1C0CAB071C151C00201B5E0DAA1288DF
:1022D0000C1C591B0492CA1789185140321BD01785
:1022E00012184240914208DD321C01211E1C131CB1
:1022F000221C01912C1C151C01E000220192B44209
:1023000005DD2A1C1D1C131C221C341C161C321B30
:1023100092B202925A1BD117501848400590029869
:1023200002B2D10F8A18521092B200929D4202DA84
:10233000012103911FE0154A03921CE001983B68BC
:1023400000281BD01969381C8C46221C291C049BB0
:10235000E04700980599431A9BB29AB2009212B2D4
:10236000002A06DA029903985B182D189BB22DB249
:102370000093013424B2B442E0DD05E01A69381C50
:102380009446211C2A1CE2E707B0F0BDFFFF0000C5
:10239000704710B50468A468A04710BD37B506ACF7
:1023A000258804680095246BA04737BD37B506AC77
:1023B000258804680095646BA04737BD73B506ACEB
:1023C0000025665F07AC2588046800960195A46B1C
:1023D000A04773BD7047F0B585B01F1C0AAB1B88C2
:1023E000161C03930368013FDB68041C0D1CBF1916
:1023F0009847039A23683FB2019200971F6A201CF6
:10240000291C321C2B1CB8472368201C5B6A984788
:1024100005B0F0BDF0B585B01F1C0AAB1B88041CCD
:10242000039303680E1CDB68151C98470399226808
:102430007B1E019100959B19176A201C311C2A1CD8
:102440001BB2B8472368201C5B6A984705B0F0BDF3
:10245000F0B587B003930CAB0E1C171C0022995EDD
:102460000DAB1B88049105930368041CDB68984737
:10247000351C039BF218236895420BDA0599201C42
:1024800000919A69291C9446049B3A1C0135E04747
:102490002DB2EEE75B6A201C984707B0F0BD37B558
:1024A0000C24035F0E25445F026801910094002113
:1024B000946B0A1CA04737BDF0B585B002930AABF8
:1024C0000E1C00215F5E0BAB1B88151C0393029B47
:1024D000041C02689E420BD1BD4202DD2B1C3D1C38
:1024E0001F1C03997B1C5B1B00911BB2176B0EE03A
:1024F000BD4211D1029B9E4202DD331C029E02931B
:10250000029B0399013300919B1B576B1BB2201C4C
:10251000311C2A1CB8470FE0D3689847039A2368F8
:10252000019200971F6A201C029B311C2A1CB8478D
:102530002368201C5B6A984705B0F0BDF0B585B0F4
:102540001F1C0AAB151C0E1C0022995E0BAB1B88CE
:10255000039102930368041CDB689847029923687F
:102560000091DA69201C9446311C2A1C3B1CE04770
:1025700002992368039A0091D969013A52198C464D
:10258000201C311C3B1C12B2E047029A23680092C7
:102590009969201C8C462A1C311C039BE047029A37
:1025A0002368013F0092BE1931B29F69201C2A1C8A
:1025B000039BB8472368201C5B6A984705B0F0BDB1
:1025C000704703231940417603894289012904D0C9
:1025D000032902D08381C28101E08281C3817047D7
:1025E00010B50A4C4281C2810122002308340181C6
:1025F00081815142436004604376038243820276C4
:10260000C18281828276C376C36110BDC85C00003E
:10261000F0B58BB0029310AB1B78041C089311AB80
:102620001B88029807920393012283B2D21A5B009F
:1026300092B25B4204929BB20022069109930592EA
:102640000598029A03B2934200DB9DE0049803B21E
:10265000002B0CDB029B013B1AB2099B0292023356
:10266000049A9BB298B29B189BB209900493059B65
:1026700004989BB201935B000333C318089A9BB282
:10268000049352071CD5069B07989EB285B2029A06
:1026900023680198711C97B2411818697A1909B218
:1026A00012B28446039B201CE047019823686A1CF1
:1026B0008218BE191D6931B212B2201C039BA847B3
:1026C000089A92071CD5069B07989EB285B2029A7B
:1026D00023680198711C97B241181869EA1B09B266
:1026E00012B28446039B201CE047019823686A1EAF
:1026F000121ABE191D6931B212B2201C039BA847E1
:10270000089A12071CD5069B0298079A9FB286B2B8
:102710002368019895B26A1C82181869B91B09B21E
:1027200012B28446039B201CE047019A2368791E5D
:10273000891A75191F6909B22AB2201C039BB84770
:10274000089BDB071CD50698079B029A87B29EB2AE
:102750000198236895B2721E121A1869791B09B282
:1027600012B28446039B201CE047019A2368791E1D
:10277000891A751B1F6909B22AB2201C039BB8472E
:10278000059B013305935BE70BB0F0BDF0B591B04D
:10279000049316AB1B780D920E9317AB0027DD5FE9
:1027A00018AB1B880F95049D09930122ABB2D21A76
:1027B0005B005B4292B29BB2041C0C9105920B939E
:1027C00000270897089D049F2BB2BB4200DB81E0E5
:1027D000059D2BB2002B0CDB049B013B1FB20B9B16
:1027E00004970233059F9BB29DB2DB199BB20B95F8
:1027F0000593089D059FADB26E00B6B2331C03333E
:102800000695FB180E9D9BB20A960593ED072DD5F4
:102810000C9F0F99BBB20D9D04988EB2069A191C9D
:10282000AFB2013185B2511803977A1B099F701C12
:102830000097276807936B00C318B86909B212B2F2
:102840001BB28446201CE047079F039AED1929B26A
:10285000069D013A521B0A9F099D2068F31CFB1834
:102860000095866912B21BB2201CB0470E9FBF07AD
:102870002DD50C9D0F99ABB204980D9D8EB2069A82
:10288000191CAFB2013985B2891A03977A1B099FC7
:10289000701C0097276807936B00C318B86909B2CA
:1028A00012B21BB28446201CE047079F039A7D1B8F
:1028B00029B2069D013A521B0A9F099D2068F31C0C
:1028C000FB180095866912B21BB2201CB047089F06
:1028D000013776E711B0F0BDF0B58DB01E1C12AB1C
:1028E0000B9100215F5E13AB151C00215A5E14ABE7
:1028F0001B88059203930368041CDB6898470B9AB6
:10290000059B92B29BB207920493D2185B005B4284
:102910009BB211B2B6B2039A089609939E19236826
:1029200000920691D96936B28C46201C06992A1C61
:10293000331CBFB2E047ADB27B1EEB189BB20A93CB
:102940000A9923680AB20399201C0091D969331CA3
:102950008C460699E047049A099B03995519DF199B
:1029600023682DB200913FB29E69201C0B992A1C4E
:102970003B1CB047079A089B201CD618039A236873
:1029800000929A69B6B2711E94463B1C2A1C09B289
:10299000E04701230093039B201C019306992A1C06
:1029A000059BFFF735FE0499039ACB43F61836B220
:1029B000022300930192201C311C2A1C059BFFF767
:1029C00027FE0A9B0499039A5D1A2DB204230093F3
:1029D0000192201C311C2A1C059BFFF719FE0823BD
:1029E0000093039B201C019306992A1C059BFFF76B
:1029F0000FFE2368201C5B6A98470DB0F0BDF0B550
:102A00008BB01D1C10AB171C0E1C0022995E11AB65
:102A100009910022995E12AB1B8805910693036809
:102A2000041CDB689847059BADB29BB208955D001E
:102A300008996D42ADB2B6B207960493F6186B18BA
:102A4000099922680091069936B201915169201CBA
:102A50008C463A1C311C1BB2E047049A0899D319E2
:102A6000099F079A013F0139EF1951181DB2049AC5
:102A700001230093069B3FB2891A0293201C2A1C53
:102A8000059B09B20197FFF781FE06990223009387
:102A90000291201C311C2A1C059B0197FFF776FE32
:102AA0002368201C5B6A98470BB0F0BDF0B595B069
:102AB0001E1C1AAB1B88041C0A931BAB1B880691B7
:102AC00004931CAB1D78C3690992002B00D0B1E0C0
:102AD0000C20235E8B4200DC36E10E21635E9342C4
:102AE00000DC31E106236B43069AD318002B00DC8F
:102AF0002AE10998EB00C318002B00DC24E1E37EF7
:102B0000002B03D1AF2E01D90136F6B22368201C69
:102B1000DB68984705235E4300210F960D930891CB
:102B2000089A0F9853B2894A06991218D25C9BB240
:102B300007936B4389B20B92099ACB1896B29BB25A
:102B40000E93331C08339BB205911093371C0C96DF
:102B50000B9BDB0714D52068012D09D1079A059B33
:102B6000D118036909B29C463AB2201C0A9B17E0AF
:102B70000E9A33B211932BB211B200930A9A19E054
:102B8000049B0A9883421BD02068012D0AD1079A22
:102B9000059BD118036909B29C46049B3AB2201CDC
:102BA000E0470DE00C9B0E9A1BB211B21193049AF0
:102BB0002BB2009301924269201C9446119AE0477F
:102BC0000B9B0C985B080B930137431910997619EE
:102BD0009BB2BFB2B6B20C938F42B9D1089B0133FE
:102BE000DBB208930D9B013BDBB20D93002B97D119
:102BF000049A0A9B9A4200D1A2E02268012D0AD1D0
:102C00000498059900900531956909B2201C099A2C
:102C10000823A84794E005216943059B04985918A7
:102C20002BB2ED0001900095556909B2201C099A5C
:102C3000A84785E01A7A5968B61AF6B21B68F600FA
:102C400076183288F07871791193B378B679059255
:102C50000C9312900D910E96012D06D90E9A4EB23C
:102C600053B29BB2B6B2079302E0002307931E1C37
:102C70002368201CDB686E439847069880B286194B
:102C8000B6B2109600260B9006960496129AF3B2EE
:102C9000934255D2099B07989BB20F9333186B430D
:102CA0000F99109ACB189BB213930892002706989D
:102CB000FBB20C991A18D2B28B423BD2510707D102
:102CC000059B0598119A0133125C9BB204920593FF
:102CD000049843B2002B22DA2068012D11D10D9AFD
:102CE0000B9B51B259180E9B79185AB20F9B09B21F
:102CF0009A180369B2189C4612B2201C0A9BE0473E
:102D00000DE0089A139B11B21BB20A9A03932BB2DF
:102D1000009301924269201C9446039AE04704986C
:102D200008994300DBB204934B199BB20137089317
:102D3000BFB2BCE74318DBB201360693B6B2A5E7D3
:102D40002368201C5B6A984715B0F0BD185D000031
:102D5000F0B5C26987B0041C0B1C002A28D10A29CF
:102D600003D1037E0282DB0029E00D2968D0817E39
:102D7000007E00290DD01025615F062545434D19C1
:102D80000C26A15F8D4204DD618A2282C2005218A6
:102D900062821225625FA58A02900095E58A10275B
:102DA000E15F0195201CFFF781FE227E062343E0B0
:102DB0000A2908D100230382927A037E5343628A50
:102DC0009B1863823CE00D293AD0157AA94237D38B
:102DD000517A994234D35D1B5668ED00AD19A9783C
:102DE000E878002926D0002824D06F79A67E0597A0
:102DF000207E002E12D01027E65FB446059E77B2E3
:102E0000791841430C27E65F6144B14206DD002199
:102E10002182927A618A4243521862821022A15E14
:102E20001226A25FA68A02900096E68A201C0196CE
:102E3000FFF73CFE2A79237E5343228A9B18238284
:102E4000012007B0F0BD018242827047002900D105
:102E500001210176704737B506AC258804680093D8
:102E6000019564690123A04737BD73B506AC258879
:102E700001260468009601956469A04773BDF8B502
:102E80001D1C0368041CDB68161C0F1C9847236874
:102E9000391C1A69201C94462B1C321CE0472368FD
:102EA000201C5B6A9847F8BDF0B585B003930AAB68
:102EB0001F880368041CDB680E1C151C98472368D8
:102EC00000979F69201C311C2A1C039BB84723686C
:102ED000201C5B6A984705B0F0BDF0B585B0039340
:102EE0000AAB1F880368041CDB680E1C151C98477E
:102EF00023680097DF69201C311C2A1C039BB847FC
:102F00002368201C5B6A984705B0F0BDF0B585B01A
:102F100003930AAB029200229F5E0BAB1E880368EC
:102F2000041CDB680D1C98472368009701965E69B6
:102F3000201C291C029A039BB0472368201C5B6A53
:102F4000984705B0F0BD000008B5C36CC16D1A68A4
:102F50000A431A60036B002B02DA024800F076FC89
:102F600008BDC046D4010020026B13B5041C002A22
:102F70000DDA016A094B994200D9191C6A460023EF
:102F8000537113710648019A009100F043FCE36C01
:102F9000E16D1A688A431A6013BDC046001BB70072
:102FA000D4010020032082438240D808072399439C
:102FB0001043090208437047F0B585B001930AAB8E
:102FC0001B7800275BB202930BABDF570CAB1B786F
:102FD000151CA0220E1C5BB2F0215200041C0093B1
:102FE000FFF7FEFA18212C4B66624E43083323602C
:102FF0002A4BE762F256029FD2012763019F944653
:10300000274A6763009F9444A562A7634D436746C0
:1030100000202062E7649F197E680122171CB740D8
:10302000EE56E765F6011E4F5D196D68B446BC4467
:10303000171CAF40029D66464D43A664EE562766B8
:10304000F601B4465D19164E6D68B444161CAE40C8
:10305000019DA6654D43EE566746F60167645D190E
:103060000F4F6D68B446BC44171CAF40009D6646C8
:10307000E663276585420ADB6943C85659184B68E1
:10308000084EC00180199A402064626501E0206406
:103090006065201C05B0F0BD186200006862000089
:1030A0001044004120440041F8B5036B002B03DAC3
:1030B0000E4800F0DDFB18E0436C08248025C26B4D
:1030C000066D1768294201D03E4301E0B7433E1C1C
:1030D00016601A68866D013CB2431A601A68866DE4
:1030E0006D0832431A60002CE9D1F8BDD4010020EC
:1030F000836C10B51A68041C006E82431A60201C91
:10310000FFF7D2FFA36C226E19680A431A6010BD44
:1031100038B5041C002900D1E8492162A06A0121C8
:1031200000F03CFEA06A002100F092FE606A0121DE
:1031300000F034FE606A012100F08AFE236B002B50
:1031400015DB606B012100F029FE606B002100F0AF
:103150007FFE206B012100F021FE206B012100F099
:1031600077FEA06B002802DB002100F017FE236B26
:10317000002B02DAD24800F025FBE06A002817DBBA
:10318000012100F00BFE0121E06A00F061FE6420E5
:1031900000F08AFC0021E06A00F05AFE642000F092
:1031A00083FCE06A012100F053FEC82000F07CFCA3
:1031B0002368201CDB689847201CEF21FFF798FF4D
:1031C000201C0321FFF770FF201C8021FFF76CFFFC
:1031D000201C0221FFF768FF201CCF21FFF788FF8A
:1031E000201C0021FFF760FF201CC121FFF75CFFBE
:1031F000201C3021FFF758FF201CED21FFF778FF3E
:10320000201C6421FFF750FF201C0321FFF74CFF17
:10321000201C1221FFF748FF201C8121FFF744FFEB
:10322000201CE821FFF764FF201C8521FFF73CFFED
:10323000201C0021FFF738FF201C7821FFF734FF06
:10324000201CCB21FFF754FF201C3921FFF72CFF56
:10325000201C2C21FFF728FF201C0021FFF724FF52
:10326000201C3421FFF720FF201C0221FFF71CFF48
:10327000201CF721FFF73CFF201C2021FFF714FF43
:10328000201CEA21FFF734FF201C0021FFF70CFF70
:10329000201C0021FFF708FF201CC021FFF728FF9A
:1032A000201C2321FFF700FF201CC121FFF720FF76
:1032B000201C1021FFF7F8FE201CC521FFF718FF86
:1032C000201C3E21FFF7F0FE201C2821FFF7ECFE1A
:1032D000201CC721FFF70CFF201C8621FFF7E4FE0E
:1032E000201C3621FFF704FF201C4821FFF7DCFEDD
:1032F000201C3721FFF7FCFE236B002B09DA704DF1
:103300000021281C00F0B4FA281C002100F0B0FABB
:1033100007E0201C0021FFF7C7FE201C0021FFF75B
:10332000C3FE201C3A21FFF7E3FE201C5521FFF7C6
:10333000BBFE201CB121FFF7DBFE201C0021FFF7A4
:10334000B3FE201C1821FFF7AFFE201CB621FFF7AB
:10335000CFFE201C0821FFF7A7FE201C8221FFF7CB
:10336000A3FE201C2721FFF79FFE201CF221FFF760
:10337000BFFE201C0021FFF797FE201C2621FFF72F
:10338000B7FE201C0121FFF78FFE201CE021FFF774
:10339000AFFE201C0F21FFF787FE201C3121FFF715
:1033A00083FE201C2B21FFF77FFE201C0C21FFF742
:1033B0007BFE201C0E21FFF777FE201C0821FFF763
:1033C00073FE201C4E21FFF76FFE201CF121FFF73A
:1033D0006BFE201C3721FFF767FE201C0721FFF73B
:1033E00063FE201C1021FFF75FFE201C0321FFF766
:1033F0005BFE201C0E21FFF757FE201C0921FFF762
:1034000053FE201C0021FFF74FFE201CE121FFF797
:103410006FFE201C0021FFF747FE201C0E21FFF746
:1034200043FE201C1421FFF73FFE201C0321FFF761
:103430003BFE201C1121FFF737FE201C0721FFF760
:1034400033FE201C3121FFF72FFE201CC121FFF786
:103450002BFE201C4821FFF727FE201C0821FFF728
:1034600023FE201C0F21FFF71FFE201C0C21FFF75D
:103470001BFE201C3121FFF717FE201C3621FFF711
:1034800013FE201C0F21FFF70FFE1121201CFFF758
:103490002FFE782000F008FB2921201CFFF728FED2
:1034A000782000F001FB2368201C5B6A9847F0231A
:1034B000A381A0235B00E38138BDC04600366E01C6
:1034C000D401002038B503231940A022041C417602
:1034D000F023520002290BD003290DD0012903D07B
:1034E0008381C28148250AE08281C381282506E0C4
:1034F0008381C281882502E08281C381E825236817
:10350000201CDB689847201C3621FFF7F1FD291CA1
:10351000201CFFF7C9FD2368201C5B6A984738BD53
:1035200038B503680D1CDB68041C98476B426B417F
:103530002121C91A201CFFF7DBFD2368201C5B6AD0
:10354000984738BDF7B5041C08A80588CF18551949
:103550000904013F0F4312042A21013D201C154399
:10356000FFF7C6FD3B0C00933B0A0193236B390E1A
:10357000FFB2002B13DA2D4EC9B2301C00F078F9DF
:10358000009B301CD9B200F073F9019B301CD9B2FA
:1035900000F06EF9301C391C00F06AF911E0C9B274
:1035A000201CFFF781FD009B201CD9B2FFF77CFD9A
:1035B000019B201CD9B2FFF777FD201C391CFFF7B7
:1035C00073FD2B21201CFFF793FD2B0A0093236B27
:1035D000290E2F0CEDB2002B12DA144EC9B2301C9A
:1035E00000F046F9F9B2301C00F042F9009B301CA3
:1035F000D9B200F03DF9301C291C00F039F910E077
:10360000C9B2201CFFF750FDF9B2201CFFF74CFD9A
:10361000009B201CD9B2FFF747FD201C291CFFF797
:1036200043FD201C2C21FFF763FDF7BDD4010020D2
:10363000026B38B5041C0B12CDB2002A09DA094C12
:10364000D9B2201C00F014F9201C291C00F010F93C
:1036500006E0D9B2FFF728FD201C291CFFF724FD46
:1036600038BDC046D401002037B5041C1D1C0029FC
:1036700014DB0C20235E8B4210DD002A0EDB0E20B3
:10368000235E93420ADD012389B2201C92B200938B
:10369000FFF758FF201C291CFFF7CAFF37BD0000A9
:1036A000F8B5036B051C141C0E0ACFB2002B0CDA04
:1036B000002C16D00B4D311C281C00F0D9F8281C0A
:1036C000391C00F0D5F8013CF2E7002C09D0281C89
:1036D000311CFFF7E9FC281C391CFFF7E5FC013C15
:1036E000F3E7F8BDD4010020F0B589B0041C0EA8A2
:1036F000A6890025405F0FAD2D8837B20795039648
:103700000597B94238DAE5892EB204950696B24299
:1037100032DACD18ADB22E1C1718013EBFB2AC463E
:1037200036B27D1EADB2002E26DB2DB2002D23DB7E
:10373000002902DA61460BB20021002A01DA38B210
:103740000022059FBE4202DB039E731A1BB2069F36
:10375000BD4202DB049DA81A00B2051C5D4380B285
:1037600089B292B200909BB2201CFFF7EBFE201CA6
:1037700007992A1CFFF794FF09B0F0BD437A002B8C
:1037800004D18372C372C36001234372704730B5A2
:1037900085B0041C02AD00680291039200F078FD30
:1037A0006B79E179227A00932068002300F012FE01
:1037B00029792068029A00F03BFD206800F05EFD48
:1037C00005B030BD70B5041C1826FFF7D7FF20796F
:1037D000331C43430D4D0821EB18595600F068FB8C
:1037E000A079331C43430821EB18595600F060FBC5
:1037F000607908214643AD19695600F059FB044B26
:10380000201C06CBFFF7C3FF70BDC04668620000F6
:10381000CC01002007B5837A00910192002B0DD0D6
:103820009A0706D5EFF310835A425341C37272B61A
:1038300004E0DA0702D58289034B9A600099019A65
:10384000FFF7A5FF07BDC04600180040837A002B94
:103850000BD09A0704D5C37A002B06D062B604E0D9
:10386000DA0702D58289014BDA6070470018004000
:1038700008B5006800F015FD08BD0000094B0A4AB4
:103880000A491A6000225A711A71094B19601621EF
:103890001971182199711721597101215A72D97121
:1038A0001A727047CC01002000093D00B4020020CC
:1038B000D401002030B503AC257804AC2478C57160
:1038C000017142718371047230BD000038B5DE238E
:1038D00003621B4B002543621A4B041C8362562370
:1038E000FF33C362EF2343614023FF3383610A2325
:1038F0004374C56001740079012100F04FFA6079CA
:10390000012100F04BFAA079012100F047FA291CAF
:10391000E07900F043FA207A012100F03FFA607963
:10392000012100F095FA2079012100F091FAA079A7
:10393000012100F08DFA2079012100F089FA38BDCB
:10394000660F00000D0F0000031C481E00B5032881
:1039500009D801F027FF02080406012204E0192219
:1039600002E0642200E00A225A7400BD08B5024851
:1039700000F0A6FD08BDC0464402002008B502487C
:1039800000F09EFD08BDC046E4010020F7B5164FCB
:103990001649381C00F0DCFB1549164800F0D8FB2E
:1039A0001549164800F0D4FB1549164800F0D0FB25
:1039B0001549164800F0CCFB154D03260124281CA0
:1039C000144900F0C5FB391C0096231C0194002209
:1039D000114800F051FD0096291C01941F221E235E
:1039E0000E4800F049FDF7BDA80200200008004283
:1039F000000C0042AC02002000100042B002002087
:103A000000140042A402002000180042B40200206A
:103A1000B8020020001C004244020020E401002003
:103A2000FEE7000008B5034B1B68002B00D0984749
:103A300008BDC046BC02002038B50F490F4CA1425A
:103A400004D100F04FF800F097FA0BE00C4D8D42D6
:103A5000F7D00023CA18E818A24204D20068043341
:103A60001060F7E7FEE79042EBD0064B064A934220
:103A7000E7D2002204C3F9E7000000201001002073
:103A8000A067000010010020BC08002008B500F06D
:103A900026F8002801D100F017F808BD014B186086
:103AA0007047C046BC02002070B5041E08D0054B0C
:103AB0001D681E1C00F012F833685B1BA342F9D38B
:103AC00070BDC046C002002008B5034B1A68013221
:103AD0001A6000F003FB08BDC00200207047002000
:103AE0007047000070B54A4A1E21536802208B437C
:103AF0000343484953608B69082423438B61464C38
:103B0000464B9C829C8A20439882101CDA6894075A
:103B1000FCD5434A012414701478E50704D5404CC1
:103B2000647864B2002CF7DB01249460547864B2AA
:103B3000002CFBDB3B4D3A4C6560547864B2002CA2
:103B4000FBDB8225364CED016580547864B2002C95
:103B5000FBDB9C8C8025AC439C84DC68E606FCD5B2
:103B6000314D2E4CE562DD682C4CEE06FBD5A58C64
:103B70002E4E3543A584DD68284CEE06FBD5A58C7A
:103B800002263543A584DC682506FCD5234CE46871
:103B90006606F8D5DC68E506FCD500249460547808
:103BA00064B2002CFBDB224D1D4C656055781C4C2B
:103BB0006DB2002DFADB1E6A1E4D35401D621D6A76
:103BC0008026B5431D620323A3601B4B63605378BB
:103BD0005BB2002BFBDB00230B72184A4B728B721B
:103BE000CB72174BFF211A60164B174A1B681268DD
:103BF0005C01D20E214011439A06520F12020B1C97
:103C00001343124A1385436880221343436070BDF7
:103C100000400041000400400C0600000008004085
:103C2000000C004001050100B805FF7D040A0000FA
:103C300000070300FFFCFFFF03060100006CDC022D
:103C400000000020246080002060800000400042CE
:103C5000314BFA21186810B5890001F0ADFD2F4BEA
:103C60000138984224D82E4A2E4B5060186AC02141
:103C70000002000A0906014319620024072194602A
:103C80001160196A80220902090A12060A431A629F
:103C9000254BFC211A6A0A431A62196AFC22920116
:103CA0000A431A62196AA022D2020A431A6200E089
:103CB000FEE7201C0021013400F070F8142CF8D12C
:103CC0001A4C63785BB2002BFADB194B6380194BFB
:103CD0005A7ED209012AFAD0E422D2009A803F22E9
:103CE000DA70597E134AC9090129FAD0C0235B0151
:103CF00000201361907000F023F863785BB2002B12
:103D0000FBDB0D4A094B5A800C4BDA79D209012AA8
:103D1000FAD041225A7010BD00000020FFFFFF00C2
:103D200010E000E000ED00E000040040000C004066
:103D30001E400000004000422140000000480042B8
:103D400000B5144A517E131CC9090129F9D0013864
:103D5000042813D81969104A0A401A615A780F21A9
:103D60008A4301F01FFD030509070300012102E05A
:103D7000032100E002210A435A700AE01169F0238E
:103D80001B050B43136153780F218B4302210B4317
:103D9000537000BD00400042FFFFFFF010B5182433
:103DA000021C201C5043274B1818007A40B20130E7
:103DB00046D0032944D8081C211C01F0F3FC02332F
:103DC0001121624398569A18C3011F4852681B1864
:103DD00099184031022008700121914059602FE06C
:103DE0006243985618499A185268C3015B1899188B
:103DF00040310620087001219140596099611FE00F
:103E000051435A56104859184B68D2011118C81816
:103E10004030062404700120984048600B49521835
:103E200050600DE0624398569A18C30106485268E4
:103E30001B189918403102200870012191409960A7
:103E400010BDC046686200000044004110440041BB
:103E500018235843134AF0B5131808241C5701348B
:103E60001FD08256104ED2015D6801249019231C88
:103E70008668AB401E420BD10E1C771EBE41401916
:103E800034404030A50004780426B4432C43047029
:103E9000002903D105495218536002E0024E9219DD
:103EA0009361F0BD6862000000440041104400418D
:103EB00018224243F8B52D4D0824AA181457031CA4
:103EC000621C50D0481C00240C284CD801F06AFC1D
:103ED000071E1E1E1E1E1E1E1E0A0A0A0A0001249E
:103EE000644240E0092902D1181C002103E00A299C
:103EF00004D1181C0221FFF751FF23E000240B29F5
:103F000031D1181C0121FFF749FF2CE0182253433F
:103F1000EA185268EB560120141C04405508DB01D6
:103F2000002C11D0124C1B195D1930352E780C0164
:103F30000F21314021439A18C9B2297040321378B9
:103F40001843107000240EE0094E0F279B195D19CD
:103F500030352E789A18BE433143C9B229704032A9
:103F6000137818431070201CF8BDC046686200002A
:103F700000440041FEE7704710B5FFF769FE01F00D
:103F80006BFCFFF7F8FF0120FFF78EFD084C201CAB
:103F900000F0DAFD201C00F04FFEFEF75FF9FEF79F
:103FA000B9F8044B002BFAD000E000BFF7E7C04699
:103FB0008F07002000000000F7B58A18061C0D1CB2
:103FC00001920C1C019B671B9C4207D0336821782F
:103FD0001B68301C984701340028F3D1381CFEBD03
:103FE00038B5051C0C1C081E07D001F0DDFC2B6841
:103FF000021C5B68281C211C984738BD08B5036863
:104000001B68984708BD000008B50249FFF7E8FFA4
:1040100008BDC0468866000038B5041CFFF7E0FF05
:10402000051C201CFFF7F0FF281838BDF0B58DB037
:10403000161C0BAB002201900C1C1A70012E00D82C
:104040000A266D462B35201C311C01F0F9FB201C83
:10405000CFB2311C01F0B0FB291C041C092F01D880
:10406000303700E03737FFB22F70013D002CEAD126
:104070000198FFF7B5FF0DB0F0BDF8B5041C0D1C9D
:10408000161E04D10368C9B21B68984712E00A2AB9
:104090000DD100290ADA2D21FFF7B0FF6942071C74
:1040A000321C201CFFF7C2FFC01903E000E0D2B2AF
:1040B000FFF7BCFFF8BD08B5FFF7DFFF08BD000044
:1040C000014B18607047C04604000020024B0122DB
:1040D00052421A607047C04604000020154A136817
:1040E000581C25D0013B1360002B21D172B6124A17
:1040F000124B04329A4207D8BFF34F8F104A114B2C
:10410000DA60BFF34F8F11E00F4B197DC807FBD565
:10411000188B2021FF319208520001431983DA6184
:104120000A4A1A801A7DD107FCD5E5E7C046FDE7AB
:104130007047C04604000020002000000302000079
:104140000400FA0500ED00E00040004102A5FFFF79
:1041500001607047F7B508AC267804689D1E276893
:104160006C1EA541ECB2920705683A4327063A4314
:104170002A600268072529405068B501002C00D04C
:104180005C03294301430C435460F7BD30B5036819
:10419000C0251C68AD0312052A402243C024A40296
:1041A000090421401143196003685A6814435C6094
:1041B00030BD036801211A680A431A600268116859
:1041C00001231942FBD1D1691942F8D17047036824
:1041D00002211A680A431A600268D3699907FCD45D
:1041E000704703681A7ED10702D41A7E9107FCD566
:1041F0007047036800225A8370470368187E40079F
:10420000C00F70470368187EC0097047036880229A
:10421000197E52420A431A7670470368188DC0B25D
:10422000704703681A7E01200242FBD0198570474F
:1042300070B5036801268D07ED0F31401C686D07CE
:10424000090729432143196004685100034801F01C
:10425000B3FA0138C0B2207370BDC046006CDC02F6
:10426000036801211A680A431A6002681168012371
:104270001942FBD1D1691942F8D170470368022174
:104280001A680A431A600268D3699907FCD4704718
:104290000368DA699107FCD41A6802218A431A601C
:1042A000704703689A6A520A52021143996203687E
:1042B0001A7E5107FCD5986AC0B270470368224A3B
:1042C00030B5934211D0214A934211D0204A9342F3
:1042D00011D0204A934211D01F4A934211D01F4A55
:1042E000934230D10E2319220DE0092314220AE053
:1042F0000A23152207E00B23162204E00C231722C1
:1043000001E00D231822DCB2154901209B08A040D2
:104310009B0008605B180320C021890004405D58A1
:10432000E000FF248440A5432C1CC0258540281CA8
:10433000204358508023DB011A430A4B5A805A7895
:1043400052B2002AFBDB30BD00080042000C0042E4
:10435000001000420014004200180042001C0042FD
:1043600000E100E0000C0040F8B5041C151C0E1C18
:104370001F1CFFF7A3FF201CFFF71BFFB1001C222F
:104380000A4069072368090C0A431A6022688423DB
:104390009375012E1AD10821012D00D110210C4B4B
:1043A00079431868C00001F007FA236807219A8949
:1043B0000140D2044903D20C0A439A8123680004C5
:1043C000C20C9889400B400310439881F8BDC04649
:1043D00000000020F7B5019308AB041C1F780D1CEA
:1043E000161CFFF73DFF201CFFF768FFBF070C22DC
:1043F0001743C022920336051640C02292022D04B4
:1044000023683E4301991540354307221D600A4049
:104410008021236889020A435A60F7BD0120704752
:1044200008B50368014ADB69984708BD130400001A
:1044300010B5041C0069FFF7BCFE201C143001F00D
:1044400037F910BD08B50069FFF7CBFE08BD08B508
:10445000143001F03FF908BD08B5143001F040F9FF
:1044600008BD08B5143001F027F908BD08B500698A
:10447000FFF7D7FE012008BDF7B51D1C08AB1B7860
:10448000041C009309AB1B78161C019300234360A6
:10449000FA239B008360094B0F1C08330360143020
:1044A00001F0F0F8009A231C5C3327619A70019A9E
:1044B0001E705D70201CDA70FEBDC046986600005C
:1044C00010B5041C0069FFF798FE002807D020698A
:1044D000FFF7A3FE011C201C143001F0DEF8206958
:1044E000FFF790FE002805D02069FFF78FFE2069B6
:1044F000FFF77FFE10BDF023081C18403038434200
:1045000058417047F0231B01194080239B009942BA
:104510000CD0C0239B00994206D080235B0005206D
:10452000994204D0002002E0072000E006207047F6
:104530000F231940012905D002394B424B4102207B
:10454000C01A00E000207047F0B5031C85B003914D
:104550005C33041C182718783B1C43431B4E08216E
:10456000F3185956151CFFF7A3FC231C5D3318786C
:1045700008214743F6197156FFF79AFC01210A1CDE
:10458000039B2069FFF7F0FE291C201CFFF7BAFFF0
:10459000291C071C201CFFF7CBFF291C061C201C14
:1045A000FFF7A9FF391C0090331C20690122FFF797
:1045B000D1FD231C5F331978013B1A782069FFF77E
:1045C000E5FD2069FFF703FE05B0F0BD686200005D
:1045D0003F20704713B502686B46D97107335468A2
:1045E000191C0122A04716BD08B50069022100F080
:1045F00027FC08BD08B50069032100F037FC08BDA1
:1046000038B50D1C041C131C006903212A1C00F082
:1046100029FD002801D10123636038BD10B5054C88
:1046200023685A1C04D10368DB6898472060031C88
:10463000181C10BD58000020074A08B51368591C03
:1046400004D0012149421160181C03E000690221D5
:1046500000F0FAFC08BDC0465800002008B50378F9
:104660000349023303704222024800F0B1FD08BD45
:10467000140000208F07002010B50178031C427839
:104680000020A12908D1212A2FD118481849072232
:1046900000F09EFD012028E0212926D1202A05D105
:1046A00013490722114800F027FC04E0222A10D108
:1046B0009A780F4BDA710E4B96221968D20091420C
:1046C00010D1DC7901231C400CD1FA20FFF7F8FC53
:1046D0000AE0232A09D1DA789B7812021A43054BA3
:1046E0001A6002E0FFF7F2FC002010BD8F070020E7
:1046F000080000201000002070470000064BFA213F
:1047000089009960054900220831196004495A60FE
:1047100019611A767047C046C4020020C8660000BE
:104720008F07002070B5C2B219495301CB189E689B
:10473000184DC0242E40A40526439E60164E8001CD
:1047400009683018083258605201505C0726B0439F
:104750000126304350549E6935402C439C610F4CD8
:104760005C61505C7024A0431024204350549C682A
:104770000B488A182040802464032043986098687E
:104780004021800B8003986053790B43537170BDB7
:1047900098070020FFFFFF8FB0050020EC030020EA
:1047A000FF3F00F038B5041C08CC01211A78051C25
:1047B0000A431A708022201C0021520001F085F863
:1047C0002B689A78D107FCD45C6238BD134BF0B5E6
:1047D0001B6899035A029B01C90ED20E5B0F1F2959
:1047E00000D105211F2A00D11D22072B00D1032350
:1047F00004688E01278D0A491F25394031432185E0
:1048000001682A400C8DAC4322430A8502681903D3
:10481000108D044B03400B431385F0BD24608000D2
:104820003FF8FFFFFF8FFFFFEFF3108303600123CB
:10483000436072B670470368002B02D162B6BFF3C3
:104840006F8F704737B50569041C6846002D12D17B
:10485000FFF7EAFF019B013B03D3621DD57FEDB259
:10486000F9E768460193FFF7E6FF0020854217D07D
:10487000206AE36913E0FFF7D7FF019B0025013BA6
:1048800004D3221C34321578EDB2F8E76846019360
:10489000FFF7D1FF0020854202D0206BE36AC01AE7
:1048A0003EBD0000436810B51A68037A01215B0120
:1048B000D318FF339A7A0A439A72037A42685B01EB
:1048C000D318C2689C6891040B4A090922400A4324
:1048D0009A60037A42685B01D3189A684021920B70
:1048E00092039A6043681A68037A08335B01D3180D
:1048F0001A790A431A7110BDFF3F00F0F7B5056938
:10490000041C0E1C171C6846002D1FD1FFF78CFFDE
:10491000019B013B5A1C06D0621DD17F5A1E002903
:104920003AD0131CF6E768460193FFF784FF002591
:10493000E369BD4235D0226A934232D25A1CE26109
:10494000A269D3181B7873550135F1E7FFF76CFFA7
:10495000019B013B5A1C08D0221C343215785A1E88
:10496000EDB2002D18D0131CF4E768460193FFF751
:1049700062FF0025E36ABD4226D0226B934241D3F9
:1049800022E0621D0021D17730321678581E8E4207
:1049900014D1031C5A1CF4D168460193FFF74BFF56
:1049A00038E0226A934235D10023E3610123236179
:1049B0006846FFF739FF019B013BEBE71170201CB4
:1049C0000193FFF76FFFF6E7226B934222D100239A
:1049D000E36223616846FFF727FF019B013B5A1CF6
:1049E000DAD0221C34320021117001321678581EA0
:1049F0008E4201D1031CF2E71170201C0193FFF7D6
:104A000051FFEAE75A1CE262A26AD3181B78735579
:104A10000135AFE7281CFEBD37B54368027A1B6835
:104A2000083252019A18041CD0790123FF21184240
:104A300053D0D371A068656962680140002D20D110
:104A400049015218916863618904890C2162A16A45
:104A500068465160621DD377FFF7E6FE019B013B7C
:104A60005A1C33D0221C34321178581EC9B201327C
:104A7000002903D001930123137023E01170031C5C
:104A8000EEE74B01D3189A68A5699204920C226351
:104A90000022626168465D60FFF7C6FE019B013B34
:104AA00001E011702B1C591C10D0221C3432012043
:104AB0001070621DD17F5D1EC9B230320029F0D066
:104AC000019310706846FFF7B6FE06E06846019352
:104AD000FFF7B1FE201CFFF7E5FE37BD37B5002319
:104AE0006C46E3710734201C0D1CFFF7B7FD2B68E3
:104AF0001818286000F044FE211C00F0FAFD2B6815
:104B00001818286020783EBD03290BD10D4BB22226
:104B10001B685200985C802149420143995402214C
:104B200068220CE001290CD1064B92221B6852002E
:104B3000985C802149420143995402212822FF3286
:104B4000995470479807002038B5304B0024012154
:104B5000051C1A201C70FFF721F91A200121FFF70C
:104B600077F92B4B192001211C70FFF717F9192039
:104B70000121FFF76DF9274B2021DA6901200A4353
:104B8000DA61254B06241A7802431A70234B0F2250
:104B900019789143197019782143197020490C78BC
:104BA0002043087019780A401A701A7860210A4365
:104BB0001A701C4B1C4A5A805A78D209FCD11B48E7
:104BC000FEF76CFF1A4C201CFFF7ECFD201CFFF7D2
:104BD000FDFD23687F2219780A401A701A78042193
:104BE0000A431A701A890C218A431A81C121114A79
:104BF000890050580002000A5050802111601A7834
:104C000002210A431A7001232B7038BDAC05002025
:104C10009407002000040040584400413C440041F7
:104C200059440041000C0040064000005D56000061
:104C30009807002000E100E00078002810D0094B20
:104C400001211B681A898A431A811A8B08210A4399
:104C50001A831A8B04210A431A83034B00221A6019
:104C60007047C046980700209C0800200F4B9A69A7
:104C7000920B92039A611B680222FF331A72987991
:104C80008022524202439A711A7A9007FCD5084B4F
:104C9000081C997A7F221040914301439972997AB6
:104CA000802252420A439A727047C04698070020F9
:104CB0000050004110B50B790C1C002B0BD1081CC7
:104CC000FFF7DAFC002804D1094B9A69920B920392
:104CD0009A6101200BE000F053FD211C00F03DFD26
:104CE0000028F6D1024B9A69920B92039A6110BD8B
:104CF00098070020F8B50D1C832A16D1CAB2424984
:104D00005301CB189C694148AD012040C024A40543
:104D1000204398613E48083245195D610B68520195
:104D2000D15C70208143402065E0022A45D13820C3
:104D300000F0A4FC374B344F80260360760000233C
:104D4000421D036203614361C36147608560C660C1
:104D5000D3772F32041CC36203631370301C53706B
:104D600000F0A0FDA061301C00F09CFDFF232A1C78
:104D70001A405201A062BF18B968244A07260A40A7
:104D8000C02189050A43BA60A168626819401268A7
:104D900008314901885CAD00B04303263043885494
:104DA000A16862680B405B01A169D3185960201C9F
:104DB000FFF778FD184BEC5025E0822A1ED1CAB2CD
:104DC00011495301CB189C691048AD012040C02403
:104DD000A405204398610E48083245195D610B68AF
:104DE000520199180C798020404220430871D15C0F
:104DF0007020814330200143D15404E0002A02D1C5
:104E0000081CFFF78FFCF8BD98070020FFFFFF8FFD
:104E1000EC030020F86600007007002038B5051C80
:104E20000124064BA200D258002A06D0211C281CBF
:104E30000134FFF75FFFE4B2F3E738BD5C00002008
:104E400008B5084B8A00D058002803D003689B6837
:104E5000984706E0C9B2044B490159188868800494
:104E6000800C08BD700700209807002010B50C1CAE
:104E7000FFF7E6FF00280CD0064BE1B21B680831B3
:104E8000490159184A7980235B4213434B7102232D
:104E9000CB7110BD9807002070B5CAB2134B1448EF
:104EA000540189015918031959609D681149083244
:104EB00029408025AD022943996099684026890BD5
:104EC000890399600368510159180D7935430D71B3
:104ED0005101591889794D06FAD551015918C979E6
:104EE000CD07FAD50419A068C0B270BDB005002086
:104EF00098070020FF3F00F038B50C4B141C1B68CE
:104F00000D1CFF335A7940210A435A710021FFF7E3
:104F1000C3FFA04200D9201C0023A34204D0044AAE
:104F20009A5CEA540133F8E738BDC0469807002080
:104F3000B005002010B5C9B20C48490143189A6861
:104F40009204920C3F2A08D9141C9A68403CA4048D
:104F5000920BA40C9203224302E09A68920B9203F4
:104F60009A6041188868C0B210BDC04698070020FA
:104F7000F0B51C1C2F4B85B01B68061C0D1C029243
:104F8000002B51D02C4F3978C9B2002902D11920F9
:104F9000FEF75EFF64233B70284BAA00D058002820
:104FA00005D0036802995B68221C984740E0301CDA
:104FB000291CFFF745FFA04204D2301C291CFFF733
:104FC0003FFF041C291C301CFFF7B4FF1C4FE9B243
:104FD0004A010191396803928B18FF335A7A0121F3
:104FE0000A4318495A72AB01C9180298221C00F0F2
:104FF00063FC002C1BD0301C291CFFF721FF00286C
:1050000015D1019B3A6808335B01D3181979402008
:10501000014319710121D97103995318FF339A7A09
:1050200001210A439A7202E00120404200E0201C64
:1050300005B0F0BD9C0800209407002070070020F8
:1050400098070020B005002013B56C460734221CD9
:105050000123FFF78DFF012801D1207801E0012015
:10506000404216BDF0B51C1C3F4B85B01B680E1CA2
:105070000292002B6AD08023DB019C4266D83B4D14
:105080002978C9B2002902D11A20FEF7E1FE642373
:1050900000222B700092002C56D0354DF7B22B68B1
:1050A00001933B1C0833019A5B01D3189B79DB0900
:1050B0001AD0304B3049186800F07EFB2F4B172177
:1050C000584300F079FB3B1C0833019A5B01D3186D
:1050D000DB799A0708D42A4B9A5D002A38D1421E00
:1050E000002835D0101CEEE7254B00229A55251ECE
:1050F0003F2D00D93F25234AB301D318181C02992C
:105100002A1C039300F0D8FB194A7B01D318039A99
:10511000A9045A619A69890C920B92030A439A6115
:105120003B1C019A08335B01D3180222DA715979CA
:10513000802252420A435A71009B029A5B1952190B
:105140000093641B0292A6E700980BE0012008E0A0
:1051500001229A557B01ED18AB69101C9B0B9B0338
:10516000AB61404205B0F0BD9C080020AC050020BA
:10517000980700200000002040420F00701101003D
:10518000E4030020EC03002070B50E4D1C1C8B01C5
:10519000ED18281C0E1C111C221C00F08DFBF6B211
:1051A0000949760189194D618A69084B201C134011
:1051B0008B618B69A2049B0B920C9B0313438B6145
:1051C00070BDC046EC03002098070020FF3F00F0B0
:1051D000F7B5114B01901B780F1C141C002B19D133
:1051E0000E4B1E78002E01D1151C08E00C4D0D4809
:1051F0002E888019361900F05FFB2E800AE0002D02
:1052000008D0BA192B1C01980021FFF7BDFF3618F2
:105210002D1AF4E7201CFEBD8E0700208C0700200D
:10522000E2030020E1020020F8B50E1C00AF151EBD
:10523000012D28D9D31DDB08DB006A46D21A95461A
:10524000081C00F0B1FB01306C46400003232070C5
:1052500063700222AA420ED23378002B0BD0511C6D
:10526000C9B20136A354A94204D0002302326354C8
:10527000D2B2EFE72A1C0548211CFFF7A9FF431E05
:105280009841C0B200E00020BD46F8BD8F07002065
:1052900008B5044B00221A70034B04491A88FFF723
:1052A00097FF08BD8C070020E2030020E1020020E8
:1052B000F0B5204A87B001230026009102A913709F
:1052C000051C0296FFF70AFC03AC092701903A1C63
:1052D000201C311C00F0F9FA02236370A023E37153
:1052E000FA232372029B0122DB196380019B627106
:1052F0002371104A009B27701670BB4205D1281CF1
:10530000211C1A1CFFF764FF11E00B4B01221A70DD
:105310000A4B211C3A1C281C1E800296FFF758FFDE
:10532000281C02A9FFF7DAFB281CFFF7B1FF0120B8
:1053300007B0F0BD8E0700208C070020E20300209C
:1053400070B5CE788AB0051C0C1C022E08D1C98815
:105350002348FFF7ADFF031C581E8341D8B23DE040
:1053600000F00EFA211C00F0D9F9002803D0C31771
:105370001B1AD80F32E0012E04D1E2881949112AF4
:1053800027D823E0032E29D1A278002A05D1164977
:10539000E2880B78934219D81BE0022A03D1A27944
:1053A000281C124904E0012A05D1A2791049281CC1
:1053B000FFF73AFF12E0032A10D100F0E1F901A94A
:1053C00000F0BCF9A279281C01A9F1E7D2B2002AA9
:1053D00000D10A78281CFFF7FBFE01200AB070BD3F
:1053E0008F07002018670000146700002A6700007C
:1053F0000867000073B5051C48780C1C0B2878D88A
:1054000000F0D0F9081C7728773E4306474B686FB9
:1054100000206FE0097801AA002903D111705170B2
:10542000281C09E0002313705370334B1B78012BA9
:1054300000D11370281C002102234FE08A7800233A
:10544000012A04D101AA137053702C4BEEE72A4AAB
:10545000137049E08E78012E07D1284B01AA002154
:105460001E701170281C331C38E0002E08D1224A0F
:1054700001231370224A9169890B8903916138E0F5
:10548000A178281CFFF7F2FB33E0281CFFF758FF38
:1054900030E0281C00211B4A1FE00A780020D306B8
:1054A00028D1281CFFF7BAFCA2781549154B022415
:1054B0001A600A682A23FF33D05C2043D0544A2064
:1054C000FF30145C01231C4314548A69920B92032D
:1054D0008A610EE00C4A281C00210123FFF754FECC
:1054E00007E08A78084B1A60054B9A69920B920381
:1054F0009A61012076BDC046E00200208D070020A1
:10550000980700209C08002090070020F8B54B4B1E
:10551000071C1C78002C00D08EE0494D2868838B36
:1055200019070DD5201CFFF7FDF82B6810201A1C59
:10553000FF32917A01439172424A146008229A83A1
:105540002B689A8B50071FD504229A833E4B1A78FA
:10555000002A0AD01A78013AD2B21A701B78002BAE
:1055600003D11A200121FEF773FC384B1A78002A68
:105570000AD01A78013AD2B21A701B78002B03D1E4
:1055800019200121FEF764FC2B68FF331A7AD1063B
:1055900026D510221A725A7940210A432C495A7191
:1055A0000A786023381C1A4202D1FFF723FF01E07A
:1055B000FFF780FB002806D02B688022FF33997903
:1055C00052420A4301E0234B20229A712B68FF3399
:1055D0001A7A500604D540221A72597A0A435A722E
:1055E0002968FE230E8C00241E40E1B2002E23D039
:1055F000321C012322411A4216D0221C286808328C
:1056000052018218D079184203D1D279DA401A4275
:1056100007D0114BA200D058002809D003681B689E
:1056200098470123A3409E430134092CDDD103E0B8
:10563000381CFFF769FAF4E7F8BDC0468C07002074
:10564000980700209C080020AC050020940700204B
:10565000B0050020FF5000417007002008B5024847
:10566000FFF754FF08BDC0468F070020014A024BD8
:105670001A607047005000419807002008B500F0FC
:1056800011F908BD10B500214022041C00F01DF9DD
:105690000023201C2364636410BD026C10B53F23FB
:1056A000541C2340446CA34201D08154036410BDB8
:1056B0000023036443647047436C026C934206D03A
:1056C000C25C3F2101330B404364101C01E0012008
:1056D00040427047026C436CD01A00D5403070478E
:1056E000436C026C934201D0C05C01E00120404257
:1056F000704770B544680E1C0025002C09D0236843
:10570000201C5B68311C9847002804DB2D18E468D6
:10571000F3E7281C01E00120404270BD38B5446821
:105720000D1C002C08D02368201C9B68291C98475E
:10573000002802D1E468F4E7201C38BD38B544687D
:105740000D1C002C07D02368201C291CDB689847FF
:10575000E4682D18F5E72C7038BD38B544680D1C89
:10576000002C08D02368201C1B68291C984700289F
:1057700003D1E468F4E7201C00E0012038BD0000FC
:10578000064B0122196810B51140054805D10224C5
:1057900004700424447041601A6010BDA808002001
:1057A000A008002002B4714649084900095C49007C
:1057B0008E4402BC7047C046002934D00123002229
:1057C00010B488422CD301242407A14204D2814280
:1057D00002D209011B01F8E7E400A14204D2814290
:1057E00002D249005B00F8E7884201D3401A1A430D
:1057F0004C08A04202D3001B5C0822438C08A04244
:1058000002D3001B9C082243CC08A04202D3001BF9
:10581000DC082243002803D01B0901D00909E3E773
:10582000101C10BC7047002801D00020C04307B4F2
:10583000024802A14018029003BDC04619000000B2
:105840000029F0D003B5FFF7B9FF0EBC4243891A17
:105850001847C0467047C04670B50E4B0E4D002429
:10586000ED1AAD101E1CAC4204D0A300F3589847AB
:105870000134F8E700F0BAF8084B094D0024ED1A9E
:10588000AD101E1CAC4204D0A300F358984701345D
:10589000F8E770BDE8000020E8000020E8000020E4
:1058A0000001002008B5034B011C186800F016F831
:1058B00008BDC046E400002010B50023934203D089
:1058C000CC5CC4540133F9E710BD031C8218934229
:1058D00002D019700133FAE77047000070B5032356
:1058E000CD1C9D430835061C0C2D01D20C2501E072
:1058F000002D3FDB8D423DD3204B1C681A1C211C20
:10590000002913D00868431B0DD40B2B02D90B6060
:10591000CC181EE08C4202D1636813601AE048681C
:1059200060600C1C16E00C1C4968E9E7144C206808
:10593000002803D1301C00F025F82060301C291C01
:1059400000F020F8431C15D0C41C03239C43844260
:105950000AD12560201C0B300722231D9043C31A57
:105960000BD05A42E25008E0211A301C00F00AF82D
:105970000130EED10C233360002070BDB008002050
:10598000AC08002038B5074C0023051C081C236018
:1059900000F012F8431C03D12368002B00D02B60C9
:1059A00038BDC046B80800200023C25C0133002A7D
:1059B000FBD1581E70470000094A1368002B0CD019
:1059C00018186946884202D81060181C7047054BA9
:1059D0000C2201201A604042F8E7034B1360EFE706
:1059E000B4080020B8080020BC080020F8B5C04664
:1059F000F8BC08BC9E467047F8B5C046F8BC08BC69
:105A00009E4670475374617274207365747570009C
:105A1000494C49393334312054657374210053653E
:105A200074757020656E640048656C6C6F20576FEC
:105A3000726C64210047726F6F70004920696D704D
:105A40006C6F726520746865652C006D7920666FD7
:105A50006F6E74696E67207475726C696E676472BC
:105A60006F6D65732E00416E6420686F6F7074698E
:105A70006F75736C79206472616E676C65206D65FB
:105A80000077697468206372696E6B6C7920626953
:105A90006E646C65777572646C65732C004F722050
:105AA000492077696C6C2072656E64207468656546
:105AB00000696E2074686520676F62626572776145
:105AC0007274730077697468206D7920626C7572E6
:105AD000676C656372756E6368656F6E2C007365C5
:105AE00065206966204920646F6E2774210044692F
:105AF00073706C617920506F776572204D6F6465AB
:105B00003A203078004D414443544C204D6F646539
:105B10003A20307800506978656C20466F726D616C
:105B2000743A20307800496D61676520466F726D68
:105B300061743A2030780053656C6620446961676F
:105B40006E6F737469633A2030780042656E6368E3
:105B50006D61726B2020202020202020202020201A
:105B60002020202054696D6520286D6963726F7351
:105B700065636F6E6473290053637265656E20669A
:105B8000696C6C2020202020202020202020202034
:105B90002000546578742020202020202020202000
:105BA0002020202020202020202020004C696E650D
:105BB0007320202020202020202020202020202092
:105BC000202020202000486F72697A2F5665727459
:105BD000204C696E6573202020202020202020008A
:105BE00052656374616E676C657320286F75746CA1
:105BF000696E652920202020200052656374616E43
:105C0000676C6573202866696C6C656429202020A8
:105C100020202000436972636C6573202866696CDC
:105C20006C6564292020202020202020200043694A
:105C300072636C657320286F75746C696E652920BA
:105C40002020202020202000547269616E676C653E
:105C50007320286F75746C696E65292020202020C0
:105C60002000547269616E676C6573202866696CE8
:105C70006C6564292020202020202000526F756E42
:105C800064656420726563747320286F75746C6931
:105C90006E6529202000526F756E64656420726500
:105CA000637473202866696C6C6564292020200069
:105CB000446973706C6179207465737420656E64D7
:105CC00000446F6E6521000000000000000000002D
:105CD000512D0000B93F0000753F000091230000E6
:105CE00093230000BD2300009D230000AD2300008E
:105CF000BD220000D5230000C3250000C1250000FF
:105D0000D723000015240000512400009F24000028
:105D1000B92400003D25000000000000003E5B4F5C
:105D20005B3E3E6B4F6B3E1C3E7C3E1C183C7E3CFB
:105D3000181C577D571C1C5E7F5E1C00183C180009
:105D4000FFE7C3E7FF0018241800FFE7DBE7FF3099
:105D5000483A060E2629792926407F050507407F07
:105D600005253F5A3CE73C5A7F3E1C1C08081C1C7A
:105D70003E7F14227F22145F5F005F5F06097F0170
:105D80007F006689956A606060606094A2FFA2945B
:105D900008047E040810207E201008082A1C080829
:105DA0001C2A08081E101010100C1E0C1E0C303877
:105DB0003E3830060E3E0E06000000000000005F78
:105DC00000000007000700147F147F14242A7F2A94
:105DD0001223130864623649562050000807030056
:105DE000001C2241000041221C002A1C7F1C2A08A2
:105DF000083E080800807030000808080808000005
:105E000060600020100804023E5149453E00427F78
:105E1000400072494949462141494D331814127FC7
:105E20001027454545393C4A494931412111090767
:105E30003649494936464949291E000014000000E8
:105E400040340000000814224114141414140041BA
:105E500022140802015909063E415D594E7C121177
:105E6000127C7F494949363E414141227F414141AF
:105E70003E7F494949417F090909013E414151732A
:105E80007F0808087F00417F41002040413F017F9B
:105E9000081422417F404040407F021C027F7F0463
:105EA00008107F3E4141413E7F090909063E4151AC
:105EB000215E7F09192946264949493203017F019C
:105EC000033F4040403F1F2040201F3F4038403F9D
:105ED000631408146303047804036159494D4300B3
:105EE0007F4141410204081020004141417F0402EA
:105EF0000102044040404040000307080020545481
:105F000078407F284444383844444428384444285E
:105F10007F385454541800087E090218A4A49C78B1
:105F20007F0804047800447D40002040403D007F0D
:105F30001028440000417F40007C047804787C08ED
:105F40000404783844444438FC18242418182424C1
:105F500018FC7C08040408485454542404043F44A6
:105F6000243C4040207C1C2040201C3C4030403CD5
:105F700044281028444C9090907C4464544C440035
:105F80000836410000007700000041360800020199
:105F90000204023C2623263C1EA1A161123A404085
:105FA000207A385454555921555579412254547802
:105FB00042215554784020545579400C1E5272129B
:105FC0003955555559395454545939555454580024
:105FD00000457C410002457D420001457C407D1228
:105FE00011127DF0282528F07C545545002054548A
:105FF0007C547C0A097F4932494949323A44444435
:106000003A324A4848303A4141217A3A424020786F
:10601000009DA0A07D3D4242423D3D4040403D3C70
:1060200024FF2424487E4943662B2FFC2F2BFF0995
:1060300029F620C0887E0903205454794100004489
:106040007D413048484A32384040227A007A0A0A74
:10605000727D0D19317D2629292F282629292926E7
:1060600030484D4020380808080808080808382F2C
:1060700010C8ACBA2F102834FA00007B00000814B6
:106080002A142222142A14085500550055AA55AA8C
:1060900055AAFF55FF55FF000000FF00101010FF2C
:1060A00000141414FF001010FF00FF1010F010F087
:1060B000141414FC001414F700FF0000FF00FF1478
:1060C00014F404FC141417101F10101F101F1414C4
:1060D000141F00101010F0000000001F101010100E
:1060E0001F10101010F010000000FF101010101002
:1060F00010101010FF10000000FF140000FF00FF40
:1061000000001F10170000FC04F4141417101714DB
:1061100014F404F40000FF00F714141414141414FD
:10612000F700F7141414171410101F101F14141470
:10613000F4141010F010F000001F101F0000001FDA
:1061400014000000FC140000F010F01010FF10FF0D
:10615000141414FF141010101F00000000F010FFA2
:10616000FFFFFFFFF0F0F0F0F0FFFFFF0000000086
:1061700000FFFF0F0F0F0F0F3844443844FC4A4A0A
:106180004A347E02020606027E027E0263554941BF
:10619000633844443C04407E201E2006027E0202F6
:1061A00099A5E7A5991C2A492A1C4C7201724C300A
:1061B0004A4D4D303048784830BC625A463D3E49E1
:1061C0004949007E0101017E2A2A2A2A2A44445F85
:1061D000444440514A444040444A51400000FF0179
:1061E00003E080FF000008086B6B08361236243687
:1061F000060F090F060000181800000010100030EC
:1062000040FF0101001F01011E00191D1712003C73
:106210003C3C3C00000000000000000000000000CA
:10622000512D0000B93F00007F2E0000692F0000B3
:1062300069360000E9360000572E00006B2E000082
:10624000BD220000492F0000C534000021350000A8
:10625000A92E0000DB2E00000D2F00009F2400005F
:10626000B92400003D250000000000000B000000E4
:106270000200000004000000FF00FFFFFFFF0B0012
:10628000000000000A0000000200000004000000FE
:10629000FF00FFFFFFFF0A00000000000E000000EB
:1062A0000800000004000000FF00FFFFFFFF0E00D9
:1062B0000000000009000000040000001C000000B5
:1062C000FF000100010009000000000008000000BC
:1062D000040000001C000000FF000000000010008F
:1062E000000000000F000000040000001C0000007F
:1062F000FF00010301030F00000000001400000074
:10630000050000002C000000FF0002000200040055
:10631000000000001500000008000000040000005C
:10632000FF00FFFFFFFF0500000000000600000067
:10633000040000001C000000FF0000010001060036
:106340000000000007000000040000001C00000026
:10635000FF00010101010700000000001200000021
:10636000040000001C000000FF0000030003020006
:106370000000000010000000040000001C000000ED
:10638000FF000002000200000000000013000000F7
:10639000050000002C000000FF00030003000300C4
:1063A0000000000011000000040000001C000000BC
:1063B000FF000102010201000000000002000000D5
:1063C00001000000020000000000FFFFFFFF0200CC
:1063D000010000000800000001000000180000009B
:1063E0000200000400040800010000000900000091
:1063F000010000001800000003000104010409006E
:106400000000000004000000010000000000000087
:106410000400FFFFFFFF0400000000000500000073
:1064200001000000000000000500FFFFFFFF050065
:106430000100000002000000010000000000000058
:106440000A00FFFFFFFF020000000000160000002E
:106450000200000004000000FF00FFFFFFFF060035
:10646000000000001700000002000000040000000F
:10647000FF00FFFFFFFF0700000000000C0000000E
:106480000300000004000000FF00FFFFFFFF0C00FE
:10649000010000000A0000000300000004000000EA
:1064A000FF00FFFFFFFF0A00010000000B000000DB
:1064B0000300000004000000FF00FFFFFFFF0B00CF
:1064C00001000000030000000B00000004000000B9
:1064D000FF00FFFFFFFFFF00000000001B000000A7
:1064E0000B00000004000000FF00FFFFFFFFFF00A3
:1064F000000000001C00000006000000000000007A
:10650000FF00FFFFFFFFFF00000000001800000079
:106510000600000000000000FF00FFFFFFFFFF007B
:10652000000000001900000006000000000000004C
:10653000FF00FFFFFFFFFF0001000000160000004A
:106540000300000000000000FF00FFFFFFFFFF004E
:106550000100000017000000030000000000000020
:10656000FF00FFFFFFFFFF0000000000160000001B
:106570000200000000000000FF00FFFFFFFFFF001F
:1065800000000000170000000200000000000000F2
:10659000FF00FFFFFFFFFF000000000013000000EE
:1065A0000200000000000000FF00FFFFFFFFFF00EF
:1065B00000000000100000000200000000000000C9
:1065C000FF00FFFFFFFFFF000000000012000000BF
:1065D0000200000000000000FF00FFFFFFFFFF00BF
:1065E0000000000011000000020000000000000098
:1065F000FF00FFFFFFFFFF00000000000D00000094
:10660000040000000C000000FF000100FFFF0D006F
:106610000000000015000000050000000C00000054
:10662000FF000300FFFFFF00000000000600000065
:10663000040000000C000000FF000001FFFFFF004D
:106640000000000007000000040000000C00000033
:10665000FF000101FFFFFF00000000000300000039
:106660000100000002000000FF00FFFFFFFFFF002D
:106670000000000002000000010000000200000015
:106680001400FFFFFFFF02000D0A006E616E00693B
:106690006E66006F766600000000000000000000DB
:1066A0006D440000B93F00004F4400006344000007
:1066B00059440000454400002144000049450000C1
:1066C000314400001D4400000000000000000000F4
:1066D000D545000001460000E945000039460000AC
:1066E0001D460000F5450000D145000000000000F7
:1066F0000000000000000000194A0000FD480000F2
:10670000454800000000000041726475696E6F200A
:106710004C4C43000403090412010002EF02014043
:1067200041234D8000010102030141726475696ECD
:106730006F205A65726F00430000000000000000E7
:106740000000000000000000000000000000000049
:106750000000000000000000000000000000000039
:106760000000000000000000000000000000000029
:106770000000000000000000000000000000000019
:106780000000000000000000000000000000000009
:1067900000000000000000000000000000000000F9
:1067A00040420F00FFFFFFFF00C201000000080091
:1067B000FFFFFFFF080B00020202000009040000B7
:1067C0000102020000052400100104240206052431
:1067D00006000105240101010705810310001009CD
:1067E000040100020A000000070502024000000741
:1067F0000583024000000000FFFFFFFF00000000D3
:106800008300000002000000820000000000000081
:106810000000000000000000000000000000000078
:1068200000000000000000003C6700005C67000002
:106830007C67000000000000000000000000000075
:1068400000000000376700000000000000000000AA
:106850000000000000000000000000000000000038
:106860000000000000000000000000000000000028
:106870000000000000000000000000000000000018
:106880000000000084000020DD2000002121000025
:106890007D3800008D390000FD4600006D56000077
:1068A000B520000000000000000000000000000013
:0400000300003A3986
�      	                              
            e  �L#x +�K +�H � �##p�\         �K +�HI � �Hh +�K + ИG��F      `   X       JKx )	�Ix	xAɲp� I��ax1ɲpx�)�x	)	�Ix@B��px	xAɲpxx�Bр"K��apGx           D A��i���h$�C`�i#B��h#C`h����i#B���i�@B��KC`�iZ���#�C`���i���h"C`�  @~����pG  ~#Q��B�B�B��@B�B��B�K"p ���pG�Fy   p�h��!�2B&Ѐ ���r#Sp@!K�qPq^hM� .@�C^`^i5@(CXaH`Ha]hH(@�%�(CX`Xh��X` #Qq#q�z��  ��� yp��  �����     �? � #qCqK`�`x"CppG�F�  8�6K !�i 
C�a4K$xCp2K"x�Cpx!Cp/Ix Cpx
@px`!
Cp+K+JZ�ZxR� *��)K!x
Cp�x���&HhQ"@�B �!@��"I)@!C�h�
@* �"�!
@�C"C�h!�
@�B �"
@�J@
C�x"
@px!H
CpXb�!�C��!�C� !�"�v�8�  @XD A<D AYD A  @@   P A$`� ?��������  ��J_��Xi'@ @03�@��"Yh
CZ`	�/{�AK��8"�5��H5BaRi����
CZaYiJ
@Zak�"�qYy�"RB
CZqk��y��� ���    �? ���N3x +�KJdZl��ZdXlJ@Zd�#[ �\@ C�T#3pH'�7�]#@�KZl���B�\l��"I���#�U #3p � ��z   �  �   �? ��0�y " ) �"C�qpG  K�0Zi��Za#r�y�#[BC�qz���pG�F�  �#[BCɲ�rpGp��#"[ �TKJ\l�!@�CF%\d�5@$DUM0&d�%m FU]k@)C�%Ycm �!AU	Mc�%m DU\o"@Zg�#[ �Tp��F�  �����   X  0�6J#Qh �C#CQ`3I�iC�a2H2J����C���h���/K px��,H@x@� (�� �`Xx@� (��(L&HD`Xx@� (�ۂ$#H�D�Xx@� (�ې��$�C���h���LH�b�hH��Մ�M,C���hH��Մ�%,C���h��H�hE���h��� "�`ZxR� *��H
JP`ZxR� *�� #rKr�r�r0��F @ A  @    @  @ ��}
    ���
���������JH8��B�JK�B�
�
L�B�� #��B���X3
`�� ���B�� !�����    \   �  \     3J8�h3�Ѳ )�0Kx#@/K
�h.I�B�`�`,I9 )��`#h����#�C(K�`"K[hG��)�b� ��� �Z�#K�"�#I�`"
`"I
`�"�`�aK J�!Z`J	j  
Cb "�`"`�h �GK (�"px *�   �� ����x +�� �� (��  �� �����F    8 @�  5�sH�  � � D A�D A�D A� ��  {   ����� �����KL#`��b� !h��P� � P A  p��� �;�@ jF#0Sppv#�:xZ  )�(iF #����@�p��B��hF�R3��  ���Jhx�I'�7 8rpSx�H�Np�x3��x3�	C3�y�K�Qy�	C��y�I��y�C
�@"zq�O:x�O8xC�H�FbE ��� ܀!I �B �n�	܁* ђ�* ѕ�* �d��#[ �B ��� �X��#� �B �W�K�B �O�R�#�Bi���#� �B"Ј#�BiР#� �B �@� ����1�(h������;�K�B �/� �1�K�B ��K�B �)�3�kq"�3�
+��"(h�B�
���~I�3�
+��C"(h�B�
���yI�3�
+ ��3�۲+� +�+ ���
�(hҲpI�"�oI �Y�;�"(h�B�:������
�(hiIҲ�����3� +q��~� ������)�"��aI #�(h"��^I "
��P"@\Jp� 0@��( ���x�3[��y *Л ����(h"���"�CNJɲp�!@�1� ) У�� ) џ��) ٛ�x�3[� *� "Zq��!Yq���#�C<KҲp�"
@�2� * Ѐ�� * �|��* �x�x +��3[��y�j�� "3[�q�3[��y_]��@"3[��q�"3[���3[��y�J��"3[�q�3[��y�=�� "3[��q�"3[�q0��F�   }   �   �   �   �       !   �!  !"  \     L  <  @  ~   |   �"(h�B�
���I #���� ����� !�������FH   �K"��h���� ��F  �KlF4h!"��7� x��F  �L ���  �B�"hH#�3�\#@�  �Jh#"���� �  p�L 
���� #�B� h1*���p�  ��L ���� #'4�B
� ,�)"8h����$-��3���F  ��GK�"ZaKd"���F D A�   (�KJ`Kp� (�JK`pG�  �  �   �  0�
I��	x )*�*� h�*� � � xR ��;��B�!@	)�0%)C �71p 	;���0#px#Kp
 ��p
 �pK2h�h�I	h�h�����0��F�   �  r����J`h���ChGpG�F�  
K� *	��:��� *р"	K�aK� *��:��� *�K"`pG�    D A�   �D A𵑰��J1�1�Q�Q�`�`��K�H�hz%RR� RX�I`�h��bC`�I $
`�J`�L%p�L�M#h(i@!�G (��K"`�Kd"��K "`�K`�K�M�O`*h;h�B�ҽKhx�* � �#* ���N3x +вK�Ih"�h����KxS+?�;h*h�BٯH2*`��Khh1`�N�B�2` �3`�H2h h� ���3h)hZ*`�Jh�`�Jp+h;+`�Kh:`�K�Jxh�B
�"h�H� h�i�G (ВK"`�Kd"��F��R+щH�J#h hh[i��G�K�"Zad"�K
�O+сK�Jhhp}�H+�}K�Jhh�u�W+�yK�Jhh`m�o+�uK!h�h+�rK|Hh!�`����\�w+�lKwHh!h`��G+�sKh����vKh���b�tKx + �C�cK hh�G=�T+�#3p^Khd�N+�3x +�ZKaIh"�h��f� #3p'�V+W�#hcI�h"��[�#haI�h"��U�`M#h)�h"��N�#h]I�h
"��H�#h)�h"��B�IOJMWI #9`+`:(h^`x� +�h3`��;N*h3h�h��)�3hII�h"��#��)`II9`8JhX`x +�5Kh2`��3h*h�h���3h�h1I"��1JX+�!N#M6hh*h� �B
�MX�a7H(�M(}���[��K3Ih�h��Y+ �}�hK0I *�h`p�Mhhkh
N�%�C�s` *e�(K	M+�N3}��� #M-h���BG�"MN5�J�p   @ A@  8  4  �  0  �  D  �D A�   (  ,  <  �   �  �  �  $   D A�   �  �   �  �  �  �  �  �  ����  �   D�������B�Н FY3NQ��@N5}��՝ I@���<K=Ih�h.�Z+/�;Khh &��B�(x1 ��5��2K4Ih"�h��V�#"2@6	01	* �1 �jF�T;��#h��h"��A�#h'I�h"��;�&Kz"p%K "`%Kx�B-�K#Ih"�h��*�%�09ȲK	(�h*C`�A9)�h7:1�a9)�hW:
C�,*�Jh`�I
p "`Kh2`
Kh2���F @ A�  �  �  �  �  0  �  �   �  <  ,  �K x$CpK"x�Cpx!CpIx Cpx
@px !
CpK!j
CbKJZ�ZxR� *���"HI���0�J #pJpJpJpJpJp�JD A5D AKD A  @  @@    B*�  �    �  �       ���H��/� ��F  BK~@�pG�F  B����� (��H�� ���F  B����� #�B�����#;ZBSA�p�
F�B� x����4��(p������ p �
X@K@ �Z	H@��pG�F  �� $&�B �����K��x� +�1����
K� *�Jx* )��j)p�/��9�4����0 � ��  �    �>N�� "�2p<K�B�"�:I�p#BЀ4�C��~�3x�� +� %5p��v�3x���B6�C(�q(S�(��# � ��U� ���R� ��%�C����L�� '�$J� +�!I�	x )����=�9���y�= -�� 
����1�����.���>�3x +
�5p��;	x���3�����(� ��3۲�1 ��<� ,�� ������K%p � %(��    �  �8L�� #�#p�B�#�4J�4Jd&pC ����2O���� (� /�?�� /�> .��M�%����#x +8����(�(=� ����9��!0�����!���#x� +�����������#x?��+
���B�3x�B��Crx۲�B� ���� #� �����"x *� &&p�+��k�2ݲ���J #p&0��  �     5 � #�B��\�T3�����B�p3��pG #�\3 *��XpG���F����FpG���F����FpG	Arduino LLC Arduino Zero       @A#M               @   �            �  !    U  o  �    v   Dec 20 2016 15:36:39 X

 Y

 Z #

 > 2.0    =  Y  u  �  �  �  �  [Arduino:XYZ]   !B c0�@�P�`�p�)�J�k���������1s2R"�R�B�r�b9��{�Z��Ӝ�����b$C4 �d�t�D�Tj�K�(�	������ō�S6r&0�v�f�V�F[�z��8�����׼��H�X�h�x@a(#8���َ��H�i�
�+��Z�J�z�jqP
3:*���˿���y�X�;���l�|�L�\",<`A�������*��h�I��~�n�^�N>2.Qp���������:�Y�x�����ʱ��-�N�o�� �0� P%@Fpg`������ڳ=���^���"�25BRwbVr�˥����n�O�,�
��4�$��ftGd$TDۧ������_�~��<��&�6��WfvvF4VL�m��/�ș鉊���DXeHx'h���8�(}�\�?����؛����uJTZ7jz�
��*�:.��l�Mͪ����ɍ&|ld\EL�<�,���>�]�|ߛ���ُ��n6~UNt^�.�>��        	C  �2	    $ $ $ $ � �	 
   �@  @    �    i   A       