:100000000C9473000C949B000C949B000C943E0980
:100010000C943E090C943E090C949B000C949B009C
:100020000C949B000C949B000C949B000C949B00E4
:100030000C949B000C949B000C949B000C949B00D4
:100040000C94FC0D0C949B000C94B5100C94E710D0
:100050000C949B000C949B000C949B000C949B00B4
:100060000C949B000C949B00B705BF05C705CF05FA
:10007000D705DF05E705EF05F705FF0507060A06C3
:100080000D06150600000008000201000003040729
:100090000000000000000000010204081020408061
:1000A00001020408102001020408102004040404C2
:1000B0000404040402020202020203030303030312
:1000C0000000000023002600290000000000250099
:1000D00028002B0000000000240027002A0005084B
:1000E000E70D1711470811241FBECFEFD8E0DEBF80
:1000F000CDBF12E0A0E0B1E0E0EAF5E202C0059079
:100100000D92A035B107D9F724E0A0E5B2E001C017
:100110001D92AD36B207E1F710E0C4EED0E004C0A6
:100120002297FE010E949512CE3DD107C9F70E9489
:100130005B110C94C3120C9400000F931F93CF9388
:10014000DF938C01EB010E94AD128883C8010196F8
:100150000E94AD128983CE01DF91CF911F910F9143
:1001600008950F931F93CF93DF938C01EB010E94AF
:10017000AD128883C80101960E94AD128983CE0119
:10018000DF91CF911F910F910895EF92FF920F93FE
:100190001F93CF93DF931F92CDB7DEB77C01FC0195
:1001A00000811181C80169830E94AD1269816817BD
:1001B00019F0C8010E94B512C7010F90DF91CF91CD
:1001C0001F910F91FF90EF900895EF92FF920F9380
:1001D0001F93CF93DF9300D0CDB7DEB77C018B01A7
:1001E000FB0160819A838983CE0101960E94C5003C
:1001F000F8016181FFEFEF1AFF0AFA82E982CE016E
:1002000001960E94C500C8010F900F90DF91CF9119
:100210001F910F91FF90EF900895EF92FF920F932F
:100220001F93CF93DF9300D0CDB7DEB77C018B0156
:10023000FB0160819A838983CE0101960E94C500EB
:10024000F8016181FFEFEF1AFF0AFA82E982CE011D
:1002500001960E94C500C8010F900F90DF91CF91C9
:100260001F910F91FF90EF900895BF92CF92DF9270
:10027000EF92FF920F931F93CF93DF93B82E8B01D2
:10028000C0E0D0E06A01EE24D7FCE094FE2CC01759
:10029000D107ACF461E08B2D0E943A0FC701B60183
:1002A0000E94750E60E08B2D0E943A0F2196C017B8
:1002B000D1076CF7C701B6010E94750EE8CFDF9138
:1002C000CF911F910F91FF90EF90DF90CF90BF9053
:1002D0000895CF93DF93CDB7DEB763970FB6F89449
:1002E000DEBF0FBECDBF2EE144E852E062E772E010
:1002F000CE0101960E943B0D8C819B8190936102FF
:10030000809362028D819E81909364028093630248
:100310008F818093650288E0FE013896A6E6B2E000
:1003200001900D928A95E1F78889998990936F02DF
:1003300080936E028A89809370028B898093710208
:100340006FE572E08AED92E00E94770D68EE73E04F
:100350008AED92E00E94010D8823D1F08AED92E0AF
:100360000E94720C0E941F0B8B3809F040C08AED6E
:1003700092E00E94720C65E572E00E94540B85E5E4
:1003800092E00E944F0B882391F164E271E00AC071
:100390008AED92E00E94720C0E94250B882389F05E
:1003A00069E471E080ED93E00E94AE1144E650E014
:1003B0006AE070E080910201909103010E94350192
:1003C00016C06EE671E080ED93E00E94AE1144E647
:1003D00050E06AE070E080910201909103010E9478
:1003E000350168EC70E080E090E00E94750E68EEE8
:1003F00073E080E090E00E94750E63960FB6F8946B
:10040000DEBF0FBECDBFDF91CF9108951F93CF9375
:10041000DF9300D0CDB7DEB7182F7A83698346E922
:1004200050E061E070E080910001909101010E9434
:10043000350110938402BE016F5F7F4F80911201DE
:10044000909113010E94E5000F900F90DF91CF91E2
:100450001F9108951F93CF93DF9300D0CDB7DEB7E0
:10046000182F7A83698346E950E061E070E080915B
:100470000001909101010E94350110938402BE0198
:100480006F5F7F4F80911001909111010E94E500F4
:100490000F900F90DF91CF911F9108951F93CF93ED
:1004A000DF9300D0CDB7DEB7182F7A83698346E992
:1004B00050E061E070E080910001909101010E94A4
:1004C000350110938402BE016F5F7F4F80910E0152
:1004D00090910F010E94E5000F900F90DF91CF9156
:1004E0001F9108951F93CF93DF9300D0CDB7DEB750
:1004F000182F7A83698346E950E061E070E08091CB
:100500000001909101010E94350110938402BE0107
:100510006F5F7F4F80910C0190910D010E94E5006B
:100520000F900F90DF91CF911F910895CF93DF939C
:1005300000D0CDB7DEB78EEB92E00E94FB0BFC0142
:100540008385882359F01A821982BE016F5F7F4F1D
:1005500080912201909123010E940D018EEB92E087
:100560000E94FB0BFC018485882359F01A821982B2
:10057000BE016F5F7F4F80912001909121010E9409
:100580000D018EEB92E00E94FB0BFC018585882318
:1005900059F01A821982BE016F5F7F4F80911E0150
:1005A00090911F010E940D018EEB92E00E94FB0BC7
:1005B000FC018685882359F01A821982BE016F5F7B
:1005C0007F4F80911C0190911D010E940D018EEBC7
:1005D00092E00E94FB0BFC018785882359F01A8268
:1005E0001982BE016F5F7F4F80911A0190911B01AC
:1005F0000E940D018EEB92E00E94FB0BFC018089B2
:10060000882359F01A821982BE016F5F7F4F809153
:100610001801909119010E940D018EEB92E00E9449
:10062000FB0BFC018189882359F01A821982BE01D3
:100630006F5F7F4F80911601909117010E940D010D
:100640008EEB92E00E94FB0BFC018289882359F01B
:100650001A821982BE016F5F7F4F809114019091C1
:1006600015010E940D010F900F90DF91CF91089519
:10067000EF92FF920F931F93CF93DF9300D0CDB7EC
:10068000DEB77C018B01BE016F5F7F4FC8010E9406
:10069000B10029813A812F5F3F4F273E83E0380721
:1006A0001CF43A83298304C087EE93E09A838983FC
:1006B000BE016F5F7F4FC8010E940D0189819A8141
:1006C000F701EC57FD4F908381830F900F90DF91DE
:1006D000CF911F910F91FF90EF900895CF93DF93EB
:1006E00000D0CDB7DEB78093840246E950E061E0E8
:1006F00070E080910001909101010E943501BE01DE
:100700006F5F7F4F80910E0190910F010E949D00BD
:1007100060E08FE00E943A0F61E080E10E943A0FB2
:1007200069817A8180E090E00E94750E60E08FE040
:100730000E943A0F60E080E10E943A0F609122012E
:100740007091230181E090E00E9438030F900F9098
:10075000DF91CF910895CF93DF9300D0CDB7DEB76F
:100760008093840246E950E061E070E080910001EE
:10077000909101010E943501BE016F5F7F4F809112
:100780000E0190910F010E949D0061E08FE00E9498
:100790003A0F60E080E10E943A0F69817A8180E03F
:1007A00090E00E94750E60E08FE00E943A0F60E0DA
:1007B00080E10E943A0F609120017091210183E055
:1007C00090E00E9438030F900F90DF91CF91089531
:1007D0001F93CF93DF9300D0CDB7DEB7182F46E934
:1007E00050E061E070E080910001909101010E9471
:1007F000350110938402BE016F5F7F4F80910C0121
:1008000090910D010E949D0060E081E10E943A0FED
:1008100061E082E10E943A0F69817A8180E090E094
:100820000E94750E60E081E10E943A0F60E082E173
:100830000E943A0F60911E0170911F0185E090E0C7
:100840000E9438030F900F90DF91CF911F91089570
:100850001F93CF93DF9300D0CDB7DEB7182F46E9B3
:1008600050E061E070E080910001909101010E94F0
:10087000350110938402BE016F5F7F4F80910C01A0
:1008800090910D010E949D0061E081E10E943A0F6C
:1008900060E082E10E943A0F69817A8180E090E015
:1008A0000E94750E60E081E10E943A0F60E082E1F3
:1008B0000E943A0F60911C0170911D0187E090E049
:1008C0000E9438030F900F90DF91CF911F910895F0
:1008D000CF93C82F46E950E061E070E080910001BD
:1008E000909101010E943501C093840260917A03C6
:1008F00081E0682760937A0384E00E943A0F609158
:100900001A0170911B0189E090E0CF910C9438039B
:10091000CF93C82F46E950E061E070E0809100017C
:10092000909101010E943501C09384026091790386
:1009300081E068276093790385E00E943A0F609117
:100940001801709119018BE090E0CF910C9438035D
:10095000CF93C82F46E950E061E070E0809100013C
:10096000909101010E943501C09384026091780347
:1009700081E068276093780386E00E943A0F6091D7
:100980001601709117018DE090E0CF910C9438031F
:10099000CF93C82F46E950E061E070E080910001FC
:1009A000909101010E943501C09384026091770308
:1009B00081E068276093770387E00E943A0F609197
:1009C0001401709115018FE090E0CF910C943803E1
:1009D0000F931F93CF93DF9300D0CDB7DEB78C0179
:1009E000CB01BE016F5F7F4F0E94B10089819A8168
:1009F000F801EC57FD4F908381830F900F90DF91AA
:100A0000CF911F910F910895609122017091230160
:100A100081E090E00E94E804609120017091210142
:100A200083E090E00E94E80460911E0170911F0134
:100A300085E090E00E94E80460911C0170911D0126
:100A400087E090E00E94E80460911A0170911B0118
:100A500089E090E00E94E80460911801709119010A
:100A60008BE090E00E94E8046091160170911701FC
:100A70008DE090E00E94E8046091140170911501EE
:100A80008FE090E00E94E8046091120170911301E0
:100A900081E190E00E94E8046091100170911101E1
:100AA00083E190E00E94E80460910E0170910F01D3
:100AB00085E190E00E94E80460910C0170910D01C5
:100AC00087E190E00E94E80410929D0280917A03F1
:100AD00080939E028091790380939F028091780396
:100AE0008093A002809177038093A1020895CF9311
:100AF000DF938EEB92E00E94FB0BFC0180818093E0
:100B000054028EEB92E00E94FB0BFC01C181D0E00D
:100B1000DC2FCC278EEB92E00E94FB0BFC01828144
:100B2000C82BD0935302C09352028EEB92E00E94E6
:100B3000FB0BFC01C381D0E0DC2FCC278EEB92E0D5
:100B40000E94FB0BFC018481AE01482B50935102A3
:100B5000409350028091540290E0FC013197EE30B6
:100B6000F10508F069C0EC5CFF4F0C9493126091A2
:100B700052027091530281E00E946E035DC0609149
:100B800052027091530282E00E94AB0355C0609103
:100B900052027091530283E00E94E8034DC06091BD
:100BA00052027091530284E00E94280445C0609173
:100BB00052027091530285E00E9468043DC060912A
:100BC00052027091530286E00E94880435C0609101
:100BD00052027091530287E00E94A8042DC06091D8
:100BE00052027091530288E00E94C80425C06091AF
:100BF00052027091530289E00E9406021DC060916A
:100C00005202709153028AE00E942A0215C00E948B
:100C1000040512C00E9496020FC0609152027091AA
:100C200053028DE00E944E0207C060915202709103
:100C300053028EE00E9472020E940405DF91CF9160
:100C40000C9469014F925F926F927F928F929F9264
:100C5000AF92BF92CF92DF92EF92FF920F931F93CA
:100C6000CF93DF93CDB7DEB728970FB6F894DEBFEA
:100C70000FBECDBF8AED92E00E94730C8AED92E028
:100C80000E94720C0E94220B882309F4C8C08AEDCE
:100C900092E00E94720C0E941F0B803909F0BCC0C8
:100CA0008AED92E00E94720C60EC72E00E94910B5F
:100CB0008EEB92E00E948A0B813019F463E971E0B7
:100CC00002C067EA71E080ED93E00E94AE1180EC13
:100CD00092E00E94100CFC01408150E060E070E066
:100CE000742E66245524442480EC92E00E94100C5B
:100CF000FC018180912CA12CB12C540199248824D1
:100D000080EC92E00E94100CFC01C280D12CDC2C03
:100D1000CC24E12CF12C80EC92E00E94100CB30169
:100D2000A201480D591D6A1D7B1DFC018381480FDE
:100D3000511D611D711D4C0D5D1D6E1D7F1D40936C
:100D4000800250938102609382027093830280EC50
:100D500092E00E94100CFC01448150E060E070E0E1
:100D6000742E66245524442480EC92E00E94100CDA
:100D7000FC018580912CA12CB12C5401992488244C
:100D800080EC92E00E94100CFC01C680D12CDC2C7F
:100D9000CC24E12CF12C80EC92E00E94100CB301E9
:100DA000A201480D591D6A1D7B1DFC018781480F5A
:100DB000511D611D711D4C0D5D1D6E1D7F1D4093EC
:100DC0007C0250937D0260937E0270937F028EEBD3
:100DD00092E00E947D0B90937B0280937A020091B7
:100DE0007C0210917D0220917E0230917F02409121
:100DF0008002509181026091820270918302CE0143
:100E000001960E942D0D88E0FE013196A2E7B2E026
:100E100001900D928A95E1F70E9477051BC08AED3B
:100E200092E00E94720C0E94250B882399F06FEBD0
:100E300071E080ED93E00E94A8118AED92E00E949B
:100E4000720C0E942D0B4AE050E0682F80ED93E079
:100E50000E94261228960FB6F894DEBF0FBECDBFB3
:100E6000DF91CF911F910F91FF90EF90DF90CF9086
:100E7000BF90AF909F908F907F906F905F904F90BA
:100E80000895E4E8F2E0119282E0E23AF807D9F737
:100E900008950F931F93CF93DF93EC018B01C0173D
:100EA000D10734F460E0CE010E94B5122196F7CF4D
:100EB000DF91CF911F910F91089561E08DE00E9425
:100EC000010F61E08DE00E943A0F61E084E00E9432
:100ED000010F61E085E00E94010F61E086E00E9461
:100EE000010F61E087E00E94010F61E08FE00E9446
:100EF000010F61E080E10E94010F61E081E10E9449
:100F0000010F61E082E10E94010F60E084E00E9435
:100F10003A0F60E085E00E943A0F60E086E00E94B0
:100F20003A0F60E087E00E943A0F60E08FE00E9495
:100F30003A0F60E080E10E943A0F60E081E10E9498
:100F40003A0F60E082E10C943A0F26E040E855E267
:100F500060E070E080ED93E00E94531040E855E2BD
:100F600060E070E088E593E00E94410A6BEC71E07C
:100F700080ED93E00E94AE1168E573E08AED92E0A7
:100F80000E94350C0E945D0746E950E063E070E086
:100F900080910401909105010E9435010E94410752
:100FA00080E090E00E94AD12883339F168ED71E085
:100FB00080ED93E00E94AE116FEF73E080E090E06F
:100FC0000E94490768E380E090E00E94B5126AE061
:100FD00071E080910E0190910F010E940D0168E077
:100FE00071E080910C0190910D010E940D016BEE5A
:100FF00071E080ED93E00E94AE116CEF71E080ED46
:1010000093E00C94AE110C9422060F931F9320E0F2
:10101000409106016091070188E593E00E94110A62
:101020008AED92E00E94230C81ED92E00E941E0B5B
:101030008EEB92E00E945C0B85EB92E00E940F0C1D
:1010400082EA92E00E94EF0B00917C0210917D02F7
:1010500020917E0230917F02409180025091810266
:10106000609182027091830282E792E00E942D0DCE
:101070002EE144E852E062E772E08FE592E00E94E0
:101080003B0D85E592E01F910F910C944E0B88E586
:1010900093E00C94B8092091BD033091BE0328174A
:1010A0003907B9F490917B0380917C03981789F0FC
:1010B000E0917B03F0E0E358FC4F808120917B03BB
:1010C00030E02F5F3F4F2F73332720937B0390E057
:1010D00008958FEF9FEF08951F93CF93DF93DC0167
:1010E0005C968D919C915D97009749F481E090E02A
:1010F00013969C938E93129780E090E03BC051969C
:10110000ED91FC91529750962C915097322F30953B
:101110001FB75E964C915E9741FB772770F941FDB2
:101120006095F8944081772311F0422B01C043234E
:101130004083EC012197F1F748E0508160FF02C045
:10114000522B01C053235083EC012197F1F7669590
:10115000415099F78081772311F0832301C0822BBE
:1011600080831FBF5C968D919C915D970197F1F7ED
:1011700081E090E0DF91CF911F9108952091BD0310
:101180003091BE032817390781F490917B03809139
:101190007C03981751F0E0917B03F0E0E358FC4F9B
:1011A0008081992787FD909508958FEF9FEF08958F
:1011B0002091BD033091BE032817390771F4809147
:1011C0007C0320917B0390E0805C9F4F821B910900
:1011D00060E470E00E943E12089580E090E008957F
:1011E0002091BD033091BE032817390739F48FB71A
:1011F000F89410927C0310927B038FBF0895E091C6
:10120000BD03F091BE03E817F90769F4A389B48917
:101210009C918589809589238C931092BE031092AE
:10122000BD0381E0089580E00895CF93DF93EC0142
:101230008A8D9B8D892BF1F08091BD039091BE0327
:101240008C179D07B9F0009711F00E94FF088E8D52
:101250008E7F8E8F10927C0310927B03D093BE03FF
:10126000C093BD03EB89FC8980819D89892B808394
:1012700081E001C080E0DF91CF9108951F920F922D
:101280000FB60F9211242F933F934F935F936F9359
:101290007F938F939F93AF93BF93EF93FF93E091CF
:1012A000BD03F091BE03309709F451C0868DA68529
:1012B000B785958581FF04C08C91892329F447C0A7
:1012C0008C91892309F043C0A389B4899C918589B5
:1012D000809589238C93868997890197F1F7208DD2
:1012E000318DA685B785758558E040E0C901019725
:1012F000F1F7842F90E095958795482F6C9167239F
:1013000009F04068515091F7868D81FD409580919C
:101310007C0390E001968F73992720917B03281717
:1013200049F0A0917C03B0E0A358BC4F4C9380934C
:101330007C0303C0868D8160868F828D938D01979B
:10134000F1F7A389B4898C919589892B8C93FF91AE
:10135000EF91BF91AF919F918F917F916F915F912D
:101360004F913F912F910F900FBE0F901F901895A6
:101370002AE032E0FC01318320830C94FF081F93A4
:10138000CF93DF93EC01162F6E8D6695617081E02F
:101390006827812F0E943A0F61E0812F0E94010F80
:1013A000812F90E0FC01E856FF4FE491E88BFC01AF
:1013B000E455FF4FE491F0E0EE0FFF1FE653FF4FBF
:1013C000859194919A8B898BDF91CF911F9108958C
:1013D0001F93CF93DF93EC01162F60E0812F0E94C3
:1013E000010F8E8D81FD04C061E0812F0E943A0FB4
:1013F0001C87812F90E0FC01E856FF4FE491ED87B8
:10140000FC01E455FF4FE491F0E0EE0FFF1FE054C4
:10141000FF4F859194919F878E87DF91CF911F9188
:101420000895FF920F931F93CF93DF93EC01F62E55
:10143000522F1B821A8208EE13E020E030E00C836A
:101440001D832E833F838AE092E0998388831F8ADD
:101450001E8A198E188E1B8E1A8E1D8E1C8E8E8DD6
:101460008E7F50FB81F98E8F642FCE010E94BF09C1
:101470006F2DCE01DF91CF911F910F91FF900C94B2
:10148000E809CF93DF93EC019A01AB011B8E1A8E12
:10149000198E188E1F8A1E8A60E079E08DE390E035
:1014A0000E947412C9012430310520F0B901635043
:1014B000710902C061E070E07D8F6C8FEC85E631D0
:1014C00008F068C0B901769567956431710518F028
:1014D0006351710902C061E070E07F8B6E8B0697EB
:1014E00018F0C901059702C081E090E0998F888FBC
:1014F000C901880F991F820F931F9695879596951E
:1015000087958D30910510F00C9702C081E090E036
:101510009B8F8A8F20916800E83050F091E0EE3088
:1015200008F490E081E001C0880F9A95EAF701C0C5
:1015300084E0822B809368002C85283038F02E3090
:1015400040F0263148F48CE690E008C08DE690E04B
:1015500005C08BE690E002C080E090E09C8B8B8B16
:10156000283030F481E001C0880F2A95EAF70DC0D9
:10157000822F90E02E3010F4089701C00E9791E072
:1015800001C0990F8A95EAF7892F8D8B8C8D9D8DDF
:101590000197F1F7CE01DF91CF910C9415098BE003
:1015A0000895CF93DC011696CC911697ED91FC919E
:1015B0000280F381E02D0995C150C81B8C2FCF917B
:1015C0000895FC018681845F0895FC01611102C0C9
:1015D00082850895613011F481850895623011F497
:1015E00080850895633011F487810895643011F483
:1015F00086850895653011F485850895663011F467
:1016000084850895673011F483850895683011F456
:1016100080890895693011F4878508956A3011F43E
:10162000818908956B3011F4828908950480F581D1
:10163000E02DE60FF11D3C97808108950895FC018F
:1016400082810895FC018781089521E0FC01808555
:10165000811101C020E0822F0895FC01808508954A
:10166000FC01DB01828112968C9312978781179679
:101670008C931797858115968C931597808518966E
:101680008C931897868116968C9316978381139660
:101690008C931397848114968C9308950895DC019C
:1016A000ED91FC9184810895FC0120813181FB0141
:1016B000318320830C94300BCF93DF93CDB7DEB70B
:1016C00028970FB6F894DEBF0FBECDBF22E232E0FE
:1016D000FC013183208328E0FE013196DC011B965A
:1016E00001900D922A95E1F728960FB6F894DEBF87
:1016F0000FBECDBFDF91CF910895DC011296ED9121
:10170000FC911397808590E0982F88272185820F80
:10171000911D0895DC011296ED91FC91139782853D
:1017200008950F931F93CF93DF938C01EB01DC019E
:101730008D919C9199838883C8010E94300BD801B8
:10174000ED91FC91808190E0A0E0B0E0B82FAA2755
:1017500099278827418150E060E070E0BA01552761
:101760004427840F951FA61FB71F2381820F911D49
:10177000A11DB11D228130E0322F2227820F931F3D
:10178000A11DB11D89879A87AB87BC87848190E0B2
:10179000A0E0B0E0B82FAA2799278827458150E01C
:1017A00060E070E0BA0155274427840F951FA61FFB
:1017B000B71F2781820F911DA11DB11D268130E029
:1017C000322F2227820F931FA11DB11D8D879E8767
:1017D000AF87B88BDF91CF911F910F910895CF9371
:1017E000DF93EC010E945C0B8AE192E0998388838D
:1017F000DF91CF910895CF93DF93DC011296CD91C5
:10180000DC911397ED91FC910280F381E02D099515
:10181000FE01E80FF11DCF01DF91CF9108950895EA
:10182000FC01808191810895FC0117821086158248
:1018300012821382148216820895FC011286118688
:1018400014860C94140CFC011286118614861586DD
:101850001782108615820E9691838083E458FF4F7D
:1018600080ED93E091838083089584589F4FFC011D
:1018700071836083089584589F4FDC018D919C9102
:10188000DC01ED91FC910480F581E02D099521E0CA
:10189000892B09F420E0822F089584589F4FDC01A2
:1018A0008D919C91DC01ED91FC910680F781E02DFA
:1018B0000995089584589F4FDC018D919C91DC011E
:1018C000ED91FC910284F385E02D099484589F4F9B
:1018D000DC018D919C91DC01ED91FC910190F081F6
:1018E000E02D09940895DF92EF92FF920F931F93DA
:1018F000CF93DF93EC018F81811103C0888588230A
:1019000019F0CE010E941D0C52E0D52E01E063E0DB
:10191000E62E74E0F72E10E2CE010E943B0C8823E5
:1019200009F467C0CE010E944D0C8B879A859923DC
:1019300099F08E3711F483E038C08D3769F4CE0109
:101940000E943B0C882331F0CE010E944D0C812770
:101950008B8702C00987E0CF8985882321F08B859A
:1019600081278B8719864A85433020F08C859B859B
:10197000890F8C87413071F040F0423079F043306C
:1019800089F48B858A83FA86C7CF8B858E3721F6BB
:101990000A87C2CF8B858B83DA86BECF8B858C83FB
:1019A000EA86BACF4F3618F082E0888722C0242F0B
:1019B00030E08C8190E003962817390779F48C8504
:1019C0008F3F31F48B858D8381E08F83188602C031
:1019D00081E0888744504E831A860BC08B85E8814E
:1019E000F981E20FF31F349780838A858F5F8A879E
:1019F00093CFDF91CF911F910F91FF90EF90DF90E8
:101A00000895CF92DF92EF92FF920F931F93CF939F
:101A1000DF93EC018B0177FF02C080E015C00E94CC
:101A2000460E6B017C010E94460E6C197D09601701
:101A300071079CF7CE010E94730C8F81811104C045
:101A40008885882381F3E9CFDF91CF911F910F9192
:101A5000FF90EF90DF90CF9008950F931F93FC01BC
:101A60004083518362837383048315832683378382
:101A70001F910F910895CF93DF93EC0180E18A834A
:101A800081E08B835D834C832E838AE292E099838D
:101A9000888388E0FB01DE01179601900D928A95FC
:101AA000E1F78EEF9FEF988B8F87198A1A8ADF9163
:101AB000CF9108951F93CF93DF93EC01162F44230A
:101AC00079F083E8860F823020F0862F8D7F813178
:101AD00039F46DE7CE010E94660C60E2612701C017
:101AE000612FCE01DF91CF911F910C94660CDF9294
:101AF000EF92FF920F931F93CF93DF938C01EB0133
:101B00006EE70E94660CE881F9810280F381E02D86
:101B1000CE010995E82EE881F9810280F381E02D5C
:101B2000CE010995F82E2E2D30E02E5F3F4F41E07B
:101B3000632FC8010E945A0D62E06F0D41E0C80199
:101B40000E945A0D41E06A81C8010E945A0D41E08D
:101B50006B81C8010E945A0DDA808B81D80EE12C6E
:101B6000F12CE881F9810280F381E02DCE01099505
:101B7000282F30E0E216F306D4F4E881F9810190D1
:101B8000F081E02D6E2DCE01099541E0682FC8014E
:101B90000E945A0DE881F9810190F081E02D6E2DAF
:101BA000CE010995D80E8FEFE81AF80ADACF6D2D1D
:101BB000609541E0C8010E945A0DC801DF91CF91A4
:101BC0001F910F91FF90EF90DF900C945A0C1092A0
:101BD000BF031092C0031092C1031092C2038FEF93
:101BE0009FEFA0E0B0E08093C3039093C403A09361
:101BF000C503B093C60308951F920F920FB60F92BC
:101C000011242F933F938F939F93AF93BF93809112
:101C1000C8039091C903A091CA03B091CB0330913E
:101C2000C70323E0230F2D3720F40196A11DB11D1A
:101C300005C026E8230F0296A11DB11D2093C703FE
:101C40008093C8039093C903A093CA03B093CB03B6
:101C50008091CC039091CD03A091CE03B091CF039E
:101C60000196A11DB11D8093CC039093CD03A09349
:101C7000CE03B093CF03BF91AF919F918F913F91CE
:101C80002F910F900FBE0F901F9018952FB7F894BB
:101C90006091C8037091C9038091CA039091CB03EE
:101CA0002FBF08953FB7F8948091CC039091CD0356
:101CB000A091CE03B091CF0326B5A89B05C02F3FBE
:101CC00019F00196A11DB11D3FBF6627782F892FFE
:101CD0009A2F620F711D811D911D42E0660F771FC3
:101CE000881F991F4A95D1F70895CF92DF92EF92FE
:101CF000FF92CF93DF936B017C010E94520EEB01A8
:101D0000C114D104E104F10489F00E943D120E9443
:101D1000520E6C1B7D0B683E734090F381E0C81A35
:101D2000D108E108F108C851DC4FEACFDF91CF912B
:101D3000FF90EF90DF90CF900895789484B5826003
:101D400084BD84B5816084BD85B5826085BD85B55F
:101D5000816085BDEEE6F0E0808181608083E1E80E
:101D6000F0E0108280818260808380818160808346
:101D7000E0E8F0E0808181608083E1EBF0E0808149
:101D800084608083E0EBF0E0808181608083EAE71B
:101D9000F0E08081846080838081826080838081A4
:101DA000816080838081806880831092C100089563
:101DB000833081F028F4813099F08230A1F00895C9
:101DC0008730A9F08830B9F08430D1F48091800058
:101DD0008F7D03C0809180008F778093800008956D
:101DE00084B58F7702C084B58F7D84BD08958091BE
:101DF000B0008F7703C08091B0008F7D8093B000DA
:101E00000895CF93DF9390E0FC01E856FF4F2491B3
:101E1000FC01E455FF4F8491882349F190E0880F3D
:101E2000991FFC01EC52FF4FA591B49186539F4F2F
:101E3000FC01C591D4919FB7611108C0F8948C91B1
:101E4000209582238C93888182230AC0623051F4CA
:101E5000F8948C91322F309583238C938881822B38
:101E6000888304C0F8948C91822B8C939FBFDF9160
:101E7000CF9108950F931F93CF93DF931F92CDB708
:101E8000DEB7282F30E0F901EC57FF4F8491F901BC
:101E9000E856FF4F1491F901E455FF4F04910023D8
:101EA000C9F0882321F069830E94D80E6981E02F50
:101EB000F0E0EE0FFF1FE653FF4FA591B4919FB7DF
:101EC000F8948C91611103C01095812301C0812B7E
:101ED0008C939FBF0F90DF91CF911F910F91089529
:101EE000FC01818D228D90E0805C9F4F821B9109C7
:101EF0008F7399270895FC01918D828D981731F089
:101F0000828DE80FF11D858D90E008958FEF9FEF92
:101F10000895FC01918D828D981761F0828DDF010B
:101F2000A80FB11D5D968C91928D9F5F9F73928FCC
:101F300090E008958FEF9FEF08958DE091E1892B58
:101F400049F080E090E0892B29F00E940D11811169
:101F50000C9400000895FC01848DDF01A80FB11DD1
:101F6000A35ABF4F2C91848D90E001968F739927CF
:101F7000848FA689B7892C93A089B1898C918064BC
:101F80008C93938D848D981306C00288F389E02D7D
:101F900080818F7D80830895CF93DF93EC01888DBE
:101FA0008823C9F0EA89FB89808185FD05C0A8895D
:101FB000B9898C9186FD0FC00FB607FCF5CF8081E3
:101FC00085FFF2CFA889B9898C9185FFEDCFCE012D
:101FD0000E94AB0FE7CFDF91CF910895CF92DF92B0
:101FE000FF920F931F93CF93DF931F92CDB7DEB76E
:101FF0006C0181E0D60158968C9358975B969C9122
:102000005B975C968C915C97981307C05096ED9106
:10201000FC915197808185FD2EC0F601038D10E063
:102020000F5F1F4F0F731127F02EF601848DF812EA
:1020300011C00FB607FCF9CFD6015096ED91FC9177
:102040005197808185FFF1CFC60169830E94AB0F54
:102050006981EBCF838DE80FF11DE35AFF4F608359
:10206000D6015B960C935B975296ED91FC9153973A
:10207000808180620CC0D6015696ED91FC915797F5
:1020800060835096ED91FC915197808180648083AC
:1020900081E090E00F90DF91CF911F910F91FF9021
:1020A000DF90CF900895BF92CF92DF92EF92FF9290
:1020B000CF93DF93EC016A017B01B22EE889F989A5
:1020C00082E08083411581EE580761057105A1F01A
:1020D00060E079E08DE390E0A70196010E94521242
:1020E0002150310941095109569547953795279552
:1020F000211580E1380798F0E889F989108260E8B5
:1021000074E88EE190E0A70196010E9452122150DE
:102110003109410951095695479537952795EC8521
:10212000FD853083EE85FF852083188EEC89FD893F
:10213000B082EA89FB89808180618083EA89FB899A
:10214000808188608083EA89FB89808180688083C0
:10215000EA89FB8980818F7D8083DF91CF91FF9019
:10216000EF90DF90CF90BF9008951F920F920FB61F
:102170000F9211242F938F939F93EF93FF93E091EE
:10218000E003F091E1038081E091E603F091E70341
:1021900082FD12C090818091E9038F5F8F7320913F
:1021A000EA03821751F0E091E903F0E0E053FC4FBD
:1021B000958F8093E90301C08081FF91EF919F91FA
:1021C0008F912F910F900FBE0F901F9018951F9217
:1021D0000F920FB60F9211242F933F934F935F935B
:1021E0006F937F938F939F93AF93BF93EF93FF93DF
:1021F00080ED93E00E94AB0FFF91EF91BF91AF9103
:102200009F918F917F916F915F914F913F912F910E
:102210000F900FBE0F901F90189580ED93E00E94D5
:10222000700F21E0892B09F420E0822F089510928D
:10223000D3031092D20388EE93E0A0E0B0E0809345
:10224000D4039093D503A093D603B093D70382E32E
:1022500092E09093D1038093D00385EC90E090932B
:10226000DD038093DC0384EC90E09093DF038093A4
:10227000DE0380EC90E09093E1038093E00381EC37
:1022800090E09093E3038093E20382EC90E09093DC
:10229000E5038093E40386EC90E09093E70380935A
:1022A000E6031092E9031092EA031092EB031092F6
:1022B000EC03089508950E949D0E0E945A110E94F9
:1022C000A507CDE9DFE00E9403082097E1F30E9413
:1022D0009D0FF9CFCF92DF92EF92FF920F931F9352
:1022E000CF93DF936C017A01EB01E60EF71E00E05D
:1022F00010E0CE15DF0561F06991D601ED91FC91FA
:102300000190F081E02DC6010995080F191FF1CF4A
:10231000C801DF91CF911F910F91FF90EF90DF9057
:10232000CF9008956115710581F0DB010D900020BB
:10233000E9F7AD0141505109461B570BDC01ED9106
:10234000FC910280F381E02D099480E090E00895F3
:102350000C9492116EE372E00C9492110F931F9300
:10236000CF93DF93EC010E9492118C01CE010E9469
:10237000AA11800F911FDF91CF911F910F910895A6
:102380008F929F92AF92BF92CF92DF92EF92FF9285
:102390000F931F93CF93DF93CDB7DEB7A1970FB6FF
:1023A000F894DEBF0FBECDBF7C01C42EE52FCB015C
:1023B000D22E19A221E02D1510F02AE0D22E8E0186
:1023C0000F5D1F4F8D2C912CA12CB12C6C2D7E2FCD
:1023D000A50194010E9452128C2DD29E80191124C5
:1023E000015011098A3014F4805D01C0895CF80144
:1023F0008083211531054105510521F0C22EE32FBF
:10240000CA01E4CFB801C7010E949211A1960FB68C
:10241000F894DEBF0FBECDBFDF91CF911F910F911A
:10242000FF90EF90DF90CF90BF90AF909F908F90F4
:1024300008952115310541F4DC01ED91FC910190E5
:10244000F081E02D642F09940C94C0110F931F9319
:10245000CF93DF93EC019A01462F50E060E070E0EB
:102460000E9419128C01CE010E94AA11800F911FA7
:10247000DF91CF911F910F910895089597FB072E3B
:1024800016F4009407D077FD09D00E94991207FC3A
:1024900005D03EF4909581959F4F08957095619574
:1024A0007F4F0895A1E21A2EAA1BBB1BFD010DC090
:1024B000AA1FBB1FEE1FFF1FA217B307E407F507F4
:1024C00020F0A21BB30BE40BF50B661F771F881FD0
:1024D000991F1A9469F760957095809590959B0166
:1024E000AC01BD01CF010895052E97FB1EF40094A9
:1024F0000E948B1257FD07D00E94521207FC03D096
:102500004EF40C948B1250954095309521953F4F89
:102510004F4F5F4F089590958095709561957F4FCF
:102520008F4F9F4F0895EE0FFF1F0590F491E02D00
:102530000994AA1BBB1B51E107C0AA1FBB1FA6170A
:10254000B70710F0A61BB70B881F991F5A95A9F75C
:1025500080959095BC01CD010895F999FECF92BD6B
:1025600081BDF89A992780B50895262FF999FECF55
:102570001FBA92BD81BD20BD0FB6F894FA9AF99AA0
:102580000FBE0196089510E0C4EED0E004C0FE0135
:102590000E9495122296C63ED107C9F7F894FFCF44
:1025A0000D000D000D000203F401F40117001500E9
:1025B000130011000F000D000B00090007000500BB
:1025C000030001004572726F722072656164696E6A
:1025D00067207061636B65742E20204572726F7284
:1025E00020636F64653A2031004572726F72207209
:1025F000656164696E67207061636B65742E20206D
:102600004572726F7220636F64653A2032004572C2
:10261000726F722072656164696E67207061636BAE
:1026200065742E20204572726F7220636F64653A64
:102630002033007061636B65742061636B6E6F772C
:102640006C6564676564007061636B6574206E6FB0
:10265000742061636B6E6F776C6564676564006599
:1026600072726F7220636F64653A005374617274A2
:102670002073797374656D00436C65617220454504
:1026800050524F4D20537461727400436C656172F7
:1026900020454550524F4D20456E6400536574757A
:1026A0007020456E6400000000006C086A11D808B4
:1026B0004B08BE08F00800000000D10ACF0A000055
:1026C0000000D10ACF0A00000000E50AE10A00007C
:1026D0000000EE0F6A11700F890F7B0FCC0F0D0AEF
:1026E000006E616E00696E66006F7666002E0000F7
:1026F000FFFFFFFFFFFFFFFFFFFFFFFFFFFFFFFFEA
:10270000FFFFFFFFFFFFFFFFFFFFFFFFFFFFFFFFD9
:10271000FFFFFFFFFFFFFFFFFFFFFFFFFFFFFFFFC9
:10272000FFFFFFFFFFFFFFFFFFFFFFFFFFFFFFFFB9
:107800000C94343C0C94513C0C94513C0C94513CE1
:107810000C94513C0C94513C0C94513C0C94513CB4
:107820000C94513C0C94513C0C94513C0C94513CA4
:107830000C94513C0C94513C0C94513C0C94513C94
:107840000C94513C0C94513C0C94513C0C94513C84
:107850000C94513C0C94513C0C94513C0C94513C74
:107860000C94513C0C94513C11241FBECFEFD8E036
:10787000DEBFCDBF11E0A0E0B1E0ECE9FFE702C060
:1078800005900D92A230B107D9F712E0A2E0B1E065
:1078900001C01D92AD30B107E1F70E942D3D0C945F
:1078A000CC3F0C94003C982F959595959595959582
:1078B000905D8F708A307CF0282F295A8091C0000B
:1078C00085FFFCCF9093C6008091C00085FFFCCF60
:1078D0002093C6000895282F205DF0CF982F809127
:1078E000C00085FFFCCF9093C6000895EF92FF92F1
:1078F0000F931F93EE24FF2487018091C00087FD22
:1079000017C00894E11CF11C011D111D81E4E8164B
:1079100082E4F8068FE0080780E0180770F3E09132
:107920000401F091050109958091C00087FFE9CF1E
:107930008091C6001F910F91FF90EF9008950E94D3
:10794000763C982F8091C00085FFFCCF9093C600B5
:1079500091362CF490330CF09053892F089597555D
:10796000892F08951F930E949F3C182F0E949F3CCF
:107970001295107F810F1F9108951F93182F882350
:1079800021F00E94763C1150E1F71F9108951F935A
:10799000182F0E94763C803249F0809103018F5F5E
:1079A000809303018530C1F01F9108958091C0003C
:1079B00085FFFCCF84E18093C6008091C00085FFE5
:1079C000FCCF1093C6008091C00085FFFCCF80E102
:1079D0008093C6001F910895E0910401F091050184
:1079E00009951F9108950E94763C803241F0809164
:1079F00003018F5F80930301853081F008958091AA
:107A0000C00085FFFCCF84E18093C6008091C00058
:107A100085FFFCCF80E18093C6000895E0910401CA
:107A2000F09105010995089540E951E08823A1F0FE
:107A30002D9A28EE33E0FA013197F1F721503040CA
:107A4000D1F72D9828EE33E0FA013197F1F7215064
:107A50003040D1F7815061F708953F924F925F9285
:107A60006F927F928F929F92AF92BF92CF92DF924E
:107A7000EF92FF920F931F93CF93DF93000080E16B
:107A80008093C4001092C50088E18093C10086E015
:107A90008093C2005098589A259A81E00E94143D24
:107AA00024E1F22E9EE1E92E85E9D82E0FE0C02ECA
:107AB00010E1B12EAA24A394B1E49B2EA6E58A2E50
:107AC000F2E57F2EE0E26E2E79E4572E63E5462E36
:107AD00050E5352E0E94763C8033B1F18133B9F107
:107AE000803409F46FC0813409F476C0823409F41B
:107AF00085C0853409F488C0803531F1823521F1A3
:107B0000813511F1853509F485C0863509F48DC0BC
:107B1000843609F496C0843709F403C1853709F423
:107B200072C1863709F466C0809103018F5F80932C
:107B30000301853079F6E0910401F0910501099582
:107B40000E94763C803351F60E94F33CC3CF0E94E2
:107B5000763C803249F78091C00085FFFCCFF092DF
:107B6000C6008091C00085FFFCCF9092C600809136
:107B7000C00085FFFCCF8092C6008091C00085FFC9
:107B8000FCCF7092C6008091C00085FFFCCF609250
:107B9000C6008091C00085FFFCCF5092C600809146
:107BA000C00085FFFCCF4092C6008091C00085FFD9
:107BB000FCCF3092C6008091C00085FFFCCFB09210
:107BC000C60088CF0E94763C863808F4BDCF0E945C
:107BD000763C0E94F33C7ECF0E94763C803809F4CC
:107BE0009CC0813809F40BC1823809F43CC1883942
:107BF00009F48FC080E00E94C73C6CCF84E10E94F2
:107C0000BD3C0E94F33C66CF85E00E94BD3C0E94D3
:107C1000F33C60CF0E94763C809306010E94763C44
:107C2000809307010E94F33C55CF0E94763C80333D
:107C300009F41DC183E00E94BD3C80E00E94C73C66
:107C400049CF0E94763C809309020E94763C809343
:107C5000080280910C028E7F80930C020E94763C79
:107C6000853409F415C18091080290910902892B8D
:107C700089F000E010E00E94763CF801E85FFE4FDA
:107C800080830F5F1F4F80910802909109020817AF
:107C9000190788F30E94763C803209F045CF809125
:107CA0000C0280FF01C16091060170910701660F0F
:107CB000771F7093070160930601A0910802B091AD
:107CC00009021097C9F0E8E0F1E09B01AD014E0F09
:107CD0005F1FF999FECF32BD21BD819180BDFA9A17
:107CE000F99A2F5F3F4FE417F50799F76A0F7B1F4B
:107CF00070930701609306018091C00085FFFCCF5F
:107D0000F092C6008091C00085FFFCCFB092C60003
:107D1000E1CE83E00E94C73CDDCE82E00E94C73CFA
:107D2000D9CE0E94763C809309020E94763C8093D3
:107D300008028091060190910701880F991F909386
:107D40000701809306010E94763C853409F4A6C0A1
:107D500080910C028E7F80930C020E94763C8032D0
:107D600009F0B8CE8091C00085FFFCCFF092C6002C
:107D7000609108027091090261157105B9F140E046
:107D800050E080910C02A82FA170B82FB27011C0E2
:107D9000BB2309F45CC0E0910601F0910701319624
:107DA000F0930701E09306014F5F5F4F46175707B7
:107DB000E8F4AA2369F3F999FECF209106013091E6
:107DC000070132BD21BDF89A90B58091C00085FFB2
:107DD000FCCF9093C6002F5F3F4F30930701209355
:107DE00006014F5F5F4F4617570718F38091C00099
:107DF00085FDE5CE8091C00085FFF8CFE0CE81E023
:107E00000E94C73C67CE0E94763C803209F08CCE3F
:107E10008091C00085FFFCCFF092C6008091C00029
:107E200085FFFCCFE092C6008091C00085FFFCCFAB
:107E3000D092C6008091C00085FFFCCFC092C600E2
:107E40008091C00085FFFCCFB092C60043CEE09188
:107E50000601F091070194918091C00085FFFCCF4D
:107E60009093C6009CCF80E10E94C73C33CE0E9415
:107E7000763C0E94763C182F0E94763C112309F430
:107E800083C0113009F484C08FE00E94C73C22CE29
:107E900080910C02816080930C02E5CE80910C02EF
:107EA000816080930C0259CF809107018823880F4D
:107EB000880B8A2180930B02809106019091070123
:107EC000880F991F90930701809306018091080203
:107ED00080FF09C080910802909109020196909359
:107EE000090280930802F894F999FECF1127E091D6
:107EF0000601F0910701C8E0D1E08091080290915D
:107F00000902103091F40091570001700130D9F34B
:107F100003E000935700E89500915700017001308D
:107F2000D9F301E100935700E89509901990009169
:107F3000570001700130D9F301E000935700E89534
:107F40001395103498F011270091570001700130FB
:107F5000D9F305E000935700E895009157000170B0
:107F60000130D9F301E100935700E895329602976A
:107F700009F0C7CF103011F00296E5CF112480919F
:107F8000C00085FFB9CEBCCE8EE10E94C73CA2CD19
:107F900085E90E94C73C9ECDF894FFCF8000FFFF8B
:107FA000FFFFFFFFFFFFFFFFFFFFFFFFFFFFFFFFE1
:107FB000FFFFFFFFFFFFFFFFFFFFFFFFFFFFFFFFD1
:107FC000FFFFFFFFFFFFFFFFFFFFFFFFFFFFFFFFC1
:107FD000FFFFFFFFFFFFFFFFFFFFFFFFFFFFFFFFB1
:107FE000FFFFFFFFFFFFFFFFFFFFFFFFFFFFFFFFA1
:107FF000FFFFFFFFFFFFFFFFFFFFFFFFFFFFFFFF91
:00000001FF
